:1000030031323836342CB4F8D6D0CEC4D7D6BFE28A
:10001300003136583136BCF2CCE5BABAD7D6BFE296
:100023002C00BBF238583136B5E3D5F3415343497D
:10003300492C00BBF2355837B5E3D5F34153434957
:1000430049C2EB00C0CAD2EBB5E7D7D3BFC6BCBC2D
:10005300B3C9C1A200B6FEC1E3C1E3C1F9C4EAA1B9
:10006300A3C6ECCFC200C6DFD0C7B3E6C6B7C5C6CA
:10007300D7A8D7A2D3DA00BDCCD3C9E8B1B8D1D0C1
:10008300B7A2C9E8B1B800474232333132BCF2CC2F
:10009300E5D7D6BFE2BCB000D3D0CDBCD0CDB9A696
:1000A300C4DCA3ACBFC9D7D400B1E0B4F3D7D6BB8B
:1000B300F2CDBCCFF1BBF2C9FA00C6A7D7D6A3AC29
:1000C300C0C8E7A3BA20202020003C2140232425D8
:1000D3005E262A28295F2D2B5D2F003C21402324F7
:1000E300255E262A28295F2D2B5D2F3B2E2C3F5B77
:1000F300002020202049204C6F7665204D79206A0E
:100103006F62202020200020202020716978696EF2
:100113006763686F6E672020202020200020202046
:100123007777772E646F666C79652E6E6574202001
:1001330020200054454C3A3032352D353231353894
:10014300393633202020202000452D6D61696C3A1B
:1001530068616F74756E403132362E636F6D00B017
:10016300A1B0A2B0A3B0A4B0A5B0A6B0A7B0A80098
:10017300B0A9B0AAB0ABB0ACB0ADB0AEB0AFB0B098
:1001830000B0B1B0B2B0B3B0B4B0B5B0B6B0B7B000
:10019300B800B0B9B0BAB0BBB0BCB0BDB0BEB0BFB0
:1001A300B0C000F7DFF7E0F7E1F7E2F7E3F7E4F7D2
:1001B300E5F7E600F7E7F7E8F7E9F7EAF7EBF7EC37
:1001C300F7EDF7EE00F7EFF7F0F7F1F7F2F7F3F7E4
:1001D300F4F7F5F7F600F7F7F7F8F7F9F7FAF7FB9F
:1001E300F7FCF7F7FE0000FE8242A29E8A82868A0F
:1001F300B26202FE0000007F40407F40404040402A
:100203007F40407F0000808080BFA5A5A53FA5A5B6
:10021300A5BF808080007F24243F24247F007F2487
:10022300243F24247F0000000000000000000000A1
:1002330000000000000000000000000000000000BB
:1002430000000000000000000000000000000000AB
:10025300000000000000000000000000000000009B
:10026300000000000000000000000000000000008B
:10027300000000000000000000000000000000007B
:10028300000000000000000000000000000000006B
:10029300000000000000000000000000000000005B
:1002A300000000000000000000000000000000004B
:1002B300000000000000000000000000000000003B
:1002C300000000000000000000000000000000002B
:1002D300000000000000000000000000000000001B
:1002E300000000000000000000000000000000000B
:1002F30000000000000000000000000000000000FB
:1003030000000000000000000000000000000000EA
:1003130000000000000000000000000000000000DA
:1003230000000000000000000000000000000000CA
:100333000000000000808080808080C0FEFE8080FE
:1003430080808080808080808080808080808080AA
:100353008000000000FFFFE7E7E7E7E7E7E7E7E7FD
:10036300E7E7E7E7E7E7E7E7E7E7E7E7F7FFFE00C2
:100373000000000000000000000000403838307822
:100383007CFCFCFCFCFCFCFCF8F8F8F0F0E0E0C0C2
:1003930080000000000000000000000000000000DA
:1003A300000000000000000000000000000000004A
:1003B300000000000003030303030303FFFF030321
:1003C30003030303030303030303030303030303FA
:1003D30001000000000FFFFEFC1C1C1C1C1C1C1C4D
:1003E300FCFC5C1C1C1C1C1C1C1C1C1C1E0F070086
:1003F300000080C0E0E0E0E0E0E0E0F8F8F8F8F0CA
:10040300E0E0C1071FFFFBF3FBFFFFFFFFFEFEFC66
:10041300FFFFFCC00000000000000000000000001F
:1004230000000000000000000000000000000000C9
:10043300000000000000000000000000FFFF0000BB
:1004430000000000000000000000000000000000A9
:1004530000000000CEEFE7E7E7E6E6E6E6E6E6EFD4
:10046300FFFFEFE6E6E6E6E6E6E6E6E6E6E6E606CE
:1004730000007FFFFFE3E1E1E1E1E1FFFFFFFFE3D5
:10048300E1E1E1E3E0F0F3C70F3F7F7FFFFFEFEF31
:10049300E7FF7F07000000000000000000000000ED
:1004A3000000000000000000000000000000000049
:1004B3000000000000000000000000000F1F1C3CB3
:1004C3003C3C3C3C3C3C3C3C3C3C3C3C3C3C3C386D
:1004D300100000001C1C1C1C1C1C1C1C1C1C1C1DB8
:1004E3001F1F1D1C1C1C1C1C1C1C1C1C1C1C1C1846
:1004F30000003038383838383838383F3F3F3F3BD2
:100503003938383838383838383838383838393965
:100513003D38000000000000000000000000000063
:1005230000000000000000000000000000000000C8
:1005330000000000000000000000000000000000B8
:1005430000000000000000000000000000000000A8
:100553000000000000000000000000000000000098
:100563000000000000000000000000000000000088
:100573000000000000000000000000000000000078
:100583000000000000000000000000000000000068
:100593000000000000000000000000000000000058
:1005A3000000000000000000000000000000000048
:1005B3000000000000000000000000000000000038
:1005C3000000000000000000000000000000000028
:1005D3000000000000000000000000000000000018
:1005E3000000000000000000000000000000000008
:1005F30000000000000000000000000000000000F8
:1006030000000000000000000000000000000000E7
:1006130000000000000000000000000000000000D7
:06062300000000000000D1
:060F5900044C0000000042
:100ED900C2A6E4FDC280EF30E704D2818002C2815C
:100EE900D280EF7801088005C333CE33CED8F9FF1D
:040EF9000DBD08E043
:010EFD0022D2
:060E84001209B3FF7E001D
:100E8A00D2A6E4FDC280EF30E704D2818002C2819B
:100E9A00D280EF7801088005C333CE33CED8F9FF6C
:040EAA000DBD08E092
:010EAE002221
:040EAF007FB87E0B7F
:100EB300E4FDFCC3ED9FEE6480F8EC64809850156C
:100EC300E4FBFA0BBB00010ABA04F8BB4CF50DBDF9
:050ED30000010C80DEAF
:010ED80022F7
:100BF100C2A4D285C2A57F147E00120EB3D2A51263
:100C01000EB37FE2120ED97F057E00120EB37F2C48
:100C1100120ED97F057E00120EB37F2E120ED97FE0
:100C2100057E00120EB37F2F120ED97F057E0012B2
:100C31000EB37F23120ED97F817E00120ED97F2F32
:100C41007E00120ED97FA27E00120ED97FC87E00CF
:100C5100120ED97FA07E00120ED97F407E00120EA7
:0B0C6100D97FAF7E00120ED9D2A42272
:100E2200AB05AA04EB1B70011AEF24AFFFE43EFEF0
:100E3200120ED9EAC4F854F0C8EBC4540F48540F48
:100E42002410FFE433FE120ED97E00EB540FFF0292
:020E52000ED9B7
:100E5400C2A4D285E4FCEC24B0FFE433FE120ED924
:100E64007F107E00120ED9E4FFFE120ED9E4FBE4DB
:0F0E7400FFFE120E8A0BBB84F60CBC09D9D2A468
:010E8300224C
:060D3C008B088A09890AF8
:100D4200C2A4E4F50DF50EE50E2401FFE4350DFE17
:100D52007D017C00120E22E4F50BF50CAB08AA090A
:100D6200A90A120E847401250AF50AE43509F50967
:100D7200050CE50C7002050BC39480E50B94004052
:100D8200DB050EE50E7002050DC39408E50D940017
:040D920040B5D2A4F2
:010D9600223A
:080C6C007BFF7C007F077E0086
:0E0C74008E418F428C438D448B458A468947C2
:100C8200C2A4D285E4F54AF54BE542254BFFE54186
:100C9200354AFEAD44AC43120E22E4F548F549ABA9
:100CA20045AA46A947120E8474012547F547E43543
:100CB20046F5460549E54970020548C39410E548E2
:100CC200940040DB054BE54B7002054AC39402E5F4
:070CD2004A940040B4D2A4D3
:010CD90022F8
:0C0CDA008E418F428D438B448A45894631
:100CE600C2A4E4F549F54AE542254AFFE5413549FE
:100CF600FEAD437C00120E22E4F547F548AB44AA4C
:100D060045A946120E8474012546F546E43545F597
:100D1600450548E54870020547C39408E547940031
:100D260040DB054AE54A70020549C39402E5499449
:050D36000040B4D2A44E
:010D3B002295
:100D9700EF24AFFFC2A4ED540F14F51BEDC4540F9D
:100DA7002410FC7E00120ED9AF047E00120ED9AFBC
:100DB7001B7E00120ED9E4F519F51A120E84740180
:100DC70029F9E43AFA051AE51A70020519C39406D7
:080DD700E519940040E5D2A4E7
:010DDF0022F1
:100F1800E4FEEF30E704D2838002C283EF25E0FFCE
:080F2800C284D2840EBE08EA67
:010F3000229E
:100EFE00E4FFD284FED282C284EF25E0FF3082036B
:090F0E000F8000D2840EBE08EC35
:010F170022B7
:060DE000AB10AD0FAF0ED9
:020DE600AC0758
:100DE800C285D2A4C2847F03120F18AF04120F1851
:100DF800AF05120F18AF03120F18E4FDEDC39547A6
:100E08005015120EFEAB44AA45A9468D8275830083
:090E1800EF1209F90D80E5D28505
:010E210022AE
:060629007BFF7D017F0153
:0A062F008F088D098B0A8A0B890CD5
:10063900E4F50DAB0AAA0BA90C850D82758300128E
:1006490009CCFFD39400500302082FEF94B0404621
:10065900EFD394F75040850D82758300A31209CC1E
:10066900C394A14031850D827583001209CC2450B1
:10067900FFE434FFFE7C007D5E120A1BE48F4F8E7F
:100689004EF54DF54C850D82F583A31209CC24ADA9
:10069900FFE434028062AB0AAA0BA90C850D8275AE
:1006A90083001209CCFFC394A15003020779EFD349
:1006B90094A34003020779850D82758300A312096B
:1006C900CCC394A15003020779850D82758300126A
:1006D90009CC245FFFE434FFFE7C007D5E120A1B17
:1006E900E48F4F8E4EF54DF54C850D82F583A3129F
:1006F90009CC245FFFE434FFFEE4FDE54F2FF54FFD
:10070900E54E3EF54EED354DF54DEC354CF54CAF1E
:100719004FAE4EAD4DFCE47B20FAF9F8120A2D8F4D
:100729004F8E4E8D4D8C4CE4FFFEE4FC7810120A7E
:100739007C8F0EE4FFE54EFEE4FDFC7808120A7C8E
:100749008F0FE54FFFE48F10F5447545007546118D
:10075900754720120DE0AF087E00AD097C007B00D3
:100769007A007911120C74050D050D741002082315
:10077900AB0AAA0BA90C850D827583001209CCFF5F
:10078900C39420500302082AEFD3947E4003020841
:010799002A35
:10079A00850D827583001209CC24E0FFE434FFFE44
:1007AA00E48F4F8E4EF54DF54CAD4DAC4C7B10FAA7
:1007BA00F9F8120A2D8F4F8E4E8D4D8C4CE54F2431
:1007CA0080F54FE54E34CFF54EE54D3403F54DE453
:1007DA00354CF54CE4FFFEE54DFDE4FC7810120AB9
:1007EA007C8F0EE4FFE54EFEE4FDFC7808120A7CDD
:1007FA008F0FE54FFFE48F10F544754500754631BC
:10080A00754710120DE0AF087E007B007A0079313F
:0D081A00AD09120CDA050D74082509F50969
:0808270002063C050D02063C2F
:01082F0022A6
:040A8F007BFF7D016B
:0A0A93008F088D098B0A8A0B890C6D
:100A9D00E4F50DAB0AAA0BA90C850D827583001226
:100AAD0009CCFFD394005003020B64EF9420500344
:0C0ABD00020B5FEFD3947E4003020B5F3E
:100AC900850D827583001209CC24E0FFE434FFFE12
:100AD900E48F4F8E4EF54DF54CAD4DAC4C7B08FA7D
:100AE900F9F8120A2D8F4F8E4E8D4D8C4CE54F24FF
:100AF900C0F54FE54E34BFF54EE54D3403F54DE4F1
:100B0900354CF54CE4FFFEE54DFDE4FC7810120A86
:100B19007C8F0EE4FFE54EFEE4FDFC7808120A7CAA
:100B29008F0FE54FFFE48F10F544754500754611A9
:100B3900754708AB10AD0FAF0E120DE6AF087E007A
:100B49007B007A007911AD09120D97050D74062500
:030B590009F50992
:080B5C00020AA0050D020AA027
:010B6400226E
:10083000E4F594F593D285C2A4120BF1120E547B09
:10084000FF7A027929120D3C120EAF7A0079031259
:1008500006297BFF7A0079147D017F0312062F7B26
:10086000FF7A0079257D017F0512062F7BFF7A0034
:1008700079367D017F0712062F120EAF120E547AC1
:100880000079471206297BFF7A0079587D017F03A2
:1008900012062F7BFF7A0079697D017F0512062FF2
:1008A0007BFF7A00797A7D017F0712062F120EAF47
:1008B0007BFF7A00798A12062B7BFF7A00799B7D79
:1008C000017F0312062F7BFF7A0079AC7D017F0543
:1008D00012062F7BFF7A0079BD7D017F0712062F5C
:1008E0007A0179E97D61120C6C7A0279097D7112C5
:1008F0000C6C120EAF120E547BFF7A0079CD1206EB
:100900002B7A0079DE7F03120A8F7A0079F47F0454
:10091000120A8F7BFF7A01790A7D017F05120A9303
:100920007BFF7A0179207D017F06120A937BFF7A93
:100930000179367D017F07120A937BFF7A01794C9A
:100940007D017F08120A93120EAF7BFF7A01796254
:1009500012062B7BFF7A0179737D017F0312062F2C
:100960007BFF7A0179847D017F0512062F7BFF7A58
:100970000179957D017F0712062F120EAF7BFF7A5A
:100980000179A612062B7BFF7A0179B77D017F03DF
:1009900012062F7BFF7A0179C87D017F0512062F91
:1009A0007BFF7A0179D97D017F0712062F120EAFE6
:0309B00002083505
:0F0F3100E5A254F34408F5A275CED075CDC022C9
:0B0F4E008FCFE5CD30E7FB75CDC02252
:0D0F4000E4F5CFE5CD30E7FBAFCF75CDC0B8
:010F4D002281
:03000000020B658B
:0C0B6500787FE4F6D8FD75814F020BACE0
:1009B300BB010689828A83E0225002E722BBFE0242
:0909C300E32289828A83E4932275
:1009CC00BB010CE58229F582E5833AF583E02250E0
:1009DC0006E92582F8E622BBFE06E92582F8E2222A
:0D09EC00E58229F582E5833AF583E4932244
:1009F900F8BB010DE58229F582E5833AF583E8F034
:100A0900225006E92582C8F622BBFE05E92582C8DF
:020A1900F222C7
:100A1B00EF8DF0A4A8F0CF8CF0A428CE8DF0A42EEF
:020A2B00FE22A9
:100A2D00E88FF0A4CC8BF0A42CFCE98EF0A42CFC68
:100A3D008AF0EDA42CFCEA8EF0A4CDA8F08BF0A4E6
:100A4D002DCC3825F0FDE98FF0A42CCD35F0FCEB45
:100A5D008EF0A4FEA9F0EB8FF0A4CFC5F02ECD390A
:0F0A6D00FEE43CFCEAA42DCE35F0FDE43CFC2277
:100A7C00E8600FECC313FCED13FDEE13FEEF13FF58
:030A8C00D8F1227C
:100B7100020830E493A3F8E493A34003F68001F262
:100B810008DFF48029E493A3F85407240CC8C33385
:100B9100C4540F4420C8834004F456800146F6DF54
:100BA100E4800B0102040810204080900F59E47E7C
:100BB100019360BCA3FF543F30E509541FFEE49349
:100BC100A360010ECF54C025E060A840B8E493A310
:100BD100FAE493A3F8E493A3C8C582C8CAC583CA3B
:100BE100F0A3C8C582C8CAC583CADFE9DEE780BEF3
:010F5F000091
:00000001FF
