:0B168D00900299EBF0A3EAF0A3E9F053
:10169800900299E0FBA3E475F001120553A9F0FA52
:1016A80012045CFFC3942050037F0022EFC3948090
:1016B80050037F0122900299E0FBA3E475F0011228
:1016C8000553A9F0FA12045CFEEFB48106EEC39448
:0C16D800395004EFB482037F04227F022B
:0116E40022E3
:1000030090029CEDF0900299EBF0A3EAF0A3E9F0E3
:1000130012045CFFC394804003020105EFC39420E4
:100023005010900299E0FBA3E0FAA3E0F9742012C8
:1000330004A2900299E0FBA3E0FAA3E0F912045CA6
:1000430024E0FFE434FFFEE4FCFD90029D1205CBA7
:1000530090029CE0B40812A3E0FCA3E0FDA3E0FE41
:10006300A3E0FFE47B080202BC90029CE0B40C1204
:10007300A3E0FCA3E0FDA3E0FEA3E0FFE47B0C020E
:1000830002BC90029CE0B41023E47F10FEFDFCA3AD
:10009300E0F8A3E0F9A3E0FAA3E0FB120569EF247B
:1000A300CCFFEE347FFEED341A0202EC90029CE0AA
:1000B300B41822E47F30FEFDFCA3E0F8A3E0F9A32B
:1000C300E0FAA3E0FB120569E42FFFEE34FFFEED37
:1000D300341D0202EC90029CE0642060030203578B
:1000E3007F40FEFDFCA3E0F8A3E0F9A3E0FAA3E060
:1000F300FB120569EF2450FFEE345AFEED341E0265
:1001030002EC900299E0FBA3E0FAA3E0F912045C8D
:10011300FF9002A1F09000011204759002A2F0EF8B
:10012300C394A140109002A1E0D394AB5007A3E085
:10013300C394A150209002A1E0FFC394A8500302EE
:10014300025BEFD394A9400302025BA3E0C394A133
:10015300400302025B9002A1E0FFC394A1402EEF93
:10016300D394AB5028A3E0FBC394A140209002A1F9
:10017300E0245FFFE434FFFE7C007D5E1204D6EBD7
:10018300245FFDEC34FFCD2FFFED3E80269002A2CD
:10019300E0D3947F4003E014F09002A1E0FF7E00DF
:1001A3007C007D601204D6A3E02FFFEC3ECF240E2B
:1001B300CF34C4FEE4FD90029D1205CB90029CE077
:1001C300B40C15E47F18FEFDFCA3E0F8A3E0F9A34B
:1001D300E0FAA3E0FB02056990029CE0B41022E47C
:1001E3007F20FEFDFCA3E0F8A3E0F9A3E0FAA3E07F
:1001F300FB120569EF24C0FFEE34F4FEED340580F5
:100203004F90029CE0B41822E47F48FEFDFCA3E07B
:10021300F8A3E0F9A3E0FAA3E0FB120569EF24C019
:10022300FFEE34E5FEED340D802690029CE0B42011
:1002330024E47F80FEFDFCA3E0F8A3E0F9A3E0FA49
:10024300A3E0FB120569E42FFFEE34DFFEED340E6D
:10025300FDE43CFC220203519002A1E0FFC394B0F1
:100263004035EFD394F7502FA3E0FBC394A140276D
:100273009002A1E02450FFE434FFFE7C007D5E1277
:1002830004D6EB245FFDEC34FFCD2FFFED3EFEE4FF
:10029300FD90029D1205CB90029CE0B40C24A3E0D8
:1002A300FCA3E0FDA3E0FEA3E02496FFEE3402FEF0
:1002B300E43DFDE43CFCE47B18FAF9F8120569021D
:1002C300034990029CE0B41026E47F20FEFDFCA3CA
:1002D300E0F8A3E0F9A3E0FAA3E0FB120569EF2439
:1002E30080FFEE3447FEED3406FDE43CFC8057907E
:1002F300029CE0B41826E47F48FEFDFCA3E0F8A3CB
:10030300E0F9A3E0FAA3E0FB120569EF24F0FFEEA6
:10031300349FFEED340EFDE43CFC802A90029CE009
:10032300B4202BE47F80FEFDFCA3E0F8A3E0F9A357
:10033300E0FAA3E0FB120569E42FFFEE342AFEED99
:100343003410FDE43CFC90029D1205CB8006E4FFD3
:10035300FEFDFC2290029DE0FCA3E0FDA3E0FEA3D2
:02036300E0FFB9
:010365002275
:100AE4006020000000000000000000000000000082
:100AF40000000000000000000000000000000000F2
:100B04000000000060200020010101010101010139
:100B140001010101010101010000000000000000C9
:100B240000000000000000006020024F00000000F0
:100B3400FCFCFFFFFFFFFCFC0000000000000000C5
:100B4400FFFFFFFFFFFFFFFF00000000602001CF59
:100B540000000000FC040707070704FC0000000075
:100B640000000000FFFFFFFFFFFFFFFF0000000089
:100B74006020022F00000000FC040707070704FCA4
:100B84000000000000000000FF808080808080FF63
:100B940000000000602001EF00000000FC244787F3
:100BA400874724FC0000000000000000FF848281CD
:100BB400818284FF000000006020020F808080801A
:100BC400808080808080808090A0C08000000000B1
:100BD4000000000000000000040201004300400087
:0A0BE40000004101AB004101AC002C
:10188F00FFE025E024B8FDEE2DFD1217D27F647E18
:01189F000048
:1018A000E4FDFCC3ED9FEC9E50070DBD00010C80D4
:0118B000F245
:0118B1002214
:0917C9007F011217D27D407F015F
:1017D200AB05AA077FC87E001218A0C2A5EAB40111
:1017E20009D2A01218A0C2A1800BC2A07FC87E009D
:1017F2001218A0D2A11218A0C2A4C2A3D2A5AF03EC
:051802008F80C2A52249
:101737009002FAE09002F4FFE0FBA3E0FAA3E0F9DD
:0417470012045CFD2F
:10174B00AB05AA077FC87E001218A0C2A5EAB40198
:10175B0009D2A01218A0C2A1800BC2A07FC87E0024
:10176B001218A0D2A11218A0D2A4C2A3D2A5AF0363
:05177B008F80C2A522D1
:0516E500900276EFF019
:1016EA007DC07F011217D27DC07F021217D2E4F9A2
:1016FA00E924B8FD1217C9E924B8FD7F021217D2EE
:10170A007D407F021217D2E4900277F0900276E0D1
:10171A00FD7F0112174BE0FD7F0212174BA3E00475
:0C172A00F0E0C3944040E509E9B408C4B5
:011736002290
:10178000C2A27FE87E031218A0D2A21218A07D3F49
:101790007F011217D27DC07F011217D27FE87E032E
:1017A0001218A07D3F7F021217D27DC07F02121750
:1017B000D2E4FF1216E57DB81217C97DB87F021278
:0917C00017D27D407F020217D20E
:0B0D0C00900286EBF0A3EAF0A3E9F0F0
:100D1700E4A3F0A3F0A37420F07D10120003900267
:100D27008C1205CB900286E0FBA3E0FAA3E0F91250
:100D3700168D90028AEFF0C2937F03121942900238
:100D47008CE0FCA3E0FDA3E0FEA3E0FF7810120512
:100D5700B8E412194290028CE0FCA3E0FDA3E0FE88
:100D6700A3E0FF78081205B8E412194290028CE05C
:100D7700FCA3E0FDA3E0FEA3E0FFE412194290020A
:100D87008AE0B4022CE4900289F090028BE0FF9095
:100D97000289E0C39F5060121934900289E024AFA2
:100DA700F582E43401F583EFF0900289E004F080E6
:100DB700D990028AE06401703E900289F090028B1C
:100DC700E0C313FF900289E0C39F502B12193490A0
:100DD7000289E0FE25E024AFF582E43401F583EFD4
:100DE700F0EE25E024B0F582E43401F583E4F090D9
:090DF7000289E004F080C6D293E9
:010E000022CF
:0812B10090027DEFF0A3EDF0C7
:1012B900120D0C90027F7401F0A37401F0A374AFB6
:1012C900F090027DE0FFC3940490028550067401FA
:1012D900F0EF80097402F090027DE024FCC454F020
:1012E900900283F0E4900284F0900284E0FEC394BB
:1012F90002504AA3E090027E12188F900285E0FF07
:10130900900283E02440121898E4900282F090023F
:1013190085E090027F12173E7F0A7E001218A09086
:101329000280E475F00112053D900282E004F0E0CC
:0D133900C3941040D9900284E004F080AC11
:011346002284
:10160C00900276EFF0A3EDF0A3EBF0A3EAF0A3E9E0
:01161C00F0DD
:10161D00E4A3F0A3F0900278E0FBA3E0FAA3E0F9D5
:10162D0012045C605A90027BE0C3940A505112166A
:10163D008D90027CEFF0900276E0FFA3E0FDA3E039
:10164D00FBA3E0FAA3E0F91212B190027BE004F0E3
:10165D00900279E475F00112053D90027CE0B40230
:10166D000A900279E475F00112053D900276E004CE
:0F167D00F0E0D39407409EE4F0A3E004F08096E1
:01168C00223B
:0B09CB009002C1EBF0A3EAF0A3E9F0FA
:1009D600E49002C7F0A3F0A37448F07D1812000358
:1009E6009002CA1205CB9002C1E0FBA3E0FAA3E095
:1009F600F912168D9002C8EFF0C2937F03121942C6
:100A06009002CAE0FCA3E0FDA3E0FEA3E0FF78109D
:100A16001205B8E41219429002CAE0FCA3E0FDA355
:100A2600E0FEA3E0FF78081205B8E412194290022E
:100A3600CAE0FCA3E0FDA3E0FEA3E0FFE412194236
:100A46009002C8E0B40236E49002C7F09002C9E012
:100A5600FF9002C7E0C39F4003020AE112193490D7
:100A660002C4E0FBA3E0FAA3E0F9A3E0F5827583F4
:100A760000EF1204B49002C7E004F080CF9002C8E1
:100A8600E0640170569002C7F09002C9E0C313FFFC
:100A96009002C7E0C39F50431219349002C4E0FB92
:100AA600A3E0FAA3E0F9A3E0FE75F002A4F58285BF
:100AB600F083EF1204B49002C4E0FBA3E0FAA3E0D3
:100AC600F975F002EEA42401F582E435F0F583E42D
:0D0AD6001204B49002C7E004F080AED29389
:010AE30022F0
:081159009002A3EFF0A3EDF0FA
:10116100E94A6020C002C0019002A8E0F9A3E0FAB8
:10117100A3E09002C4C9F0A3EAF0A3E9F0D001D042
:10118100021209CB9002AB7401F0A37400F0A374B6
:1011910043F09002A3E0FFC394029002B1500674A1
:1011A10001F0EF80097402F09002A3E024FE75F0D3
:1011B10018A49002AFF0E49002B0F09002B0E0FE0B
:1011C100C394035051A3E0FF9002A4E075F003A47F
:1011D1001218939002B1E0FF9002AFE02440121880
:1011E10098E49002AEF09002B1E0FF9002AB1217CA
:1011F1003F7F0A7E001218A09002ACE475F0011244
:10120100053D9002AEE004F0E0C3941840D890028E
:06121100B0E004F080A52E
:0112170022B4
:1013DC0090030BEFF0A3EDF0A3EBF0A3EAF0A3E97D
:0113EC00F010
:1013ED00E4A3F0A3F090030DE0FBA3E0FAA3E0F972
:1013FD0012045C606A900310E0C3940A50611216E7
:10140D008D900311EFF090030BE0FFA3E0FD900230
:10141D00A87401F0A37400F0A37443F090030DE0E1
:10142D00FBA3E0FAA3E0F9121159900310E004F0C8
:10143D0090030EE475F00112053D900311E0B40226
:10144D000A90030EE475F00112053D90030BE004C4
:0F145D00F0E0D39404408EE4F0A3E004F0808626
:01146C00225D
:081098009002B2EFF0A3EDF0AD
:1010A000E94A6020C002C0019002B7E0F9A3E0FA6B
:1010B000A3E09002C4C9F0A3EAF0A3E9F0D001D004
:1010C000021209CB9002B7E0F9A3E0FAA3E0A3C9AA
:1010D000F0A3EAF0A3E9F09002B2E0FFC3944090DD
:1010E00002C0500A7401F09002BEEFF0800A740250
:1010F000F0EF24C09002BEF0E49002BFF09002BF77
:10110000E0FEC394035051A3E0FF9002B3E075F0FA
:1011100003A41218939002C0E0FF9002BEE02440A6
:10112000121898E49002BDF09002C0E0FF9002BA5D
:1011300012173F7F0A7E001218A09002BBE475F0E0
:101140000112053D9002BDE004F0E0C3941840D8C0
:081150009002BFE004F080A54D
:011158002274
:0E0BFB009002CEEFF0A3EBF0A3EAF0A3E9F036
:100C0900E4A3F0A3F0A3EBF0A3EAF0A3E9F09002C8
:100C1900D4E0FBA3E0FAA3E0F912045C6027121602
:100C29008D9002D3EFF09002D2E004F09002D5E467
:100C390075F00112053DBF02D59002D5E475F001AA
:100C490012053D80C99002D2E024FE600F1460189D
:100C5900240270249002D77427F0802D9002D77453
:100C69001DF0A3744AF080219002D77426F0A37472
:100C790040F0A37456F08011E49002D7F0A37422D7
:100C8900F0A37445F0A37467F0E49002D2F09002E7
:100C9900CFE0FBA3E0FAA3E0F912045C60649002E0
:100CA900D2E0C39404505B12168D9002D3EFF090FA
:100CB90002D2E024D7F582E43402F583E0FF900202
:100CC900CEE0FD9002B77401F0A37400F0A3744361
:100CD900F09002CFE0FBA3E0FAA3E0F9121098909C
:100CE90002D2E004F09002D0E475F00112053D90C3
:100CF90002D3E0B402989002D0E475F00112053DE8
:020D0900808CDC
:010D0B0022C5
:100769009002DEECF0A3EDF09002DBEBF0A3EAF0EF
:03077900A3E9F001
:10077C00E49002E0F0A3F0A37448F07D181200039B
:10078C009002E31205CB9002DBE0FBA3E0FAA3E0BE
:10079C00F912168D9002E1EFF0C2937F0312194209
:1007AC009002E3E0FCA3E0FDA3E0FEA3E0FF7810E1
:1007BC001205B8E41219429002E3E0FCA3E0FDA399
:1007CC00E0FEA3E0FF78081205B8E412194290028B
:1007DC00E3E0FCA3E0FDA3E0FEA3E0FFE41219427A
:1007EC009002E1E06402703D9002E0F09002E2E0E1
:1007FC00FF9002E0E0C39F40030208971219349067
:10080C0002E0E0FD9002DFE02DFD9002DEE034001E
:10081C00FC748B2DF58274003CF583EFF09002E0B4
:10082C00E004F080C79002E1E06401705E9002E0A9
:10083C00F09002E2E0C313FF9002E0E0C39F504B44
:10084C001219349002DEE0FCA3E0FDA3E0FE75F08B
:10085C0002A42DF582E5F03CF583E582248BF5822C
:10086C00E5833400F583EFF075F002EEA42DF582EC
:10087C00E5F03CF583E582248CF582E5833400F5C4
:0D088C0083E4F09002E0E004F080A6D29337
:01089900223C
:1005D700EF24FE700302067B1470030206AF2402A9
:1005E70060030207687B487AD89000D3E4F0A3DA67
:1005F700FC7A007B487C007D18AF03AE021204E84A
:10060700D3ED940BEC9400401874372BF5827400EB
:100617003AF583E0FF748B2BF58274003AF583EF8C
:10062700F00BBB00010AEB64904A70C97A007B901B
:100637007C007D18AF03AE021204E8C3ED940BEC07
:100647009400501874072BF58274003AF583E0FF85
:10065700748B2BF58274003AF583EFF00BBB000126
:100667000AEB64D84A70C9E4FB7A4890008BE4F03F
:10067700A3DAFC227A017B1F74FB2BF58274FF3A05
:10068700F583E0FF748B2BF58274003AF583EFF066
:10069700EB1B70011AEB64D74A70DD7B487A9090A8
:1006A70000D3E4F0A3DAFC227A007BD874432BF55D
:1006B7008274003AF583E0FF748B2BF58274003A5D
:1006C700F583EFF00BBB00010ABA01E0BB20DD7A2E
:1006D700007BD77C007D18AF03AE021204E8C3EDA0
:1006E700940BEC9400501A744F2BF58274003AF572
:1006F70083E0FF748B2BF58274003AF583EFF0806B
:100707000C748B2BF58274003AF583E4F0EB1B70C5
:10071700011AEB648F4A70BB7A007B8F7C007D18CF
:10072700AF03AE021204E8D3ED940BEC9400401A29
:10073700747F2BF58274003AF583E0FF748B2BF5F9
:100747008274003AF583EFF0800C748B2BF582747A
:10075700003AF583E4F0EB1B70011AEB64474A702B
:01076700BBD6
:01076800226E
:0E0EF2009002E7EFF0A3EBF0A3EAF0A3E9F023
:100F0000E49002ECF0A3F0A3EBF0A3EAF0A3E9F085
:100F1000A37448F0300267C2029002E8E0FBA3E04D
:100F2000FAA3E0F912045C604D9002ECE0C3940473
:100F3000504412168D9002EDEFF09002ECE075F047
:100F400048A4FDACF09002E8E0FBA3E0FAA3E0F9CE
:100F50001207699002ECE004F09002E9E475F001F8
:100F600012053D9002EDE0B402AF9002E9E475F0A5
:100F70000112053D80A39002ECE0FF1205D7E4903A
:100F800002EBF09002EBE0FFC39404503C9002F1BE
:100F9000E08FF0A4248BF9740035F0FA9002B77456
:100FA00001F0A3EAF0A3E9F09002EBE075F018A4D9
:100FB0002410FF9002E7E0FD7B007A007900121018
:090FC000989002EBE004F080BA05
:010FC9002205
:0B0E010090028FEBF0A3EAF0A3E9F0F1
:100E0C00E4A3F0A3F0A37420F07D10120003900271
:100E1C00951205CB90028FE0FBA3E0FAA3E0F91248
:100E2C00168D900293EFF0C2937F03121942900239
:100E3C0095E0FCA3E0FDA3E0FEA3E0FF7810120513
:100E4C00B8E4121942900295E0FCA3E0FDA3E0FE89
:100E5C00A3E0FF78081205B8E4121942900295E05D
:100E6C00FCA3E0FDA3E0FEA3E0FFE4121942900214
:100E7C0093E0B4022CE4900292F0900294E0FF9084
:100E8C000292E0C39F505C121934900292E024AF9E
:100E9C00F582E43401F583EFF0900292E004F080E7
:100EAC00D9900293E06401703A900292F09002940F
:100EBC00E0C313FF900292E0C39F502712193490A5
:100ECC000292E0FE24AFF582E43401F583EFF07476
:100EDC00BF2EF582E43401F583E4F0900292E00435
:050EEC00F080CAD29362
:010EF10022DE
:08121800900286EFF0A3EDF057
:10122000120E019002887401F0A37401F0A374AF50
:10123000F0900287E0FFC3940890028E500674017C
:10124000F0EF80097402F0900287E024F833333322
:1012500054F890028CF0E490028DF090028DE0FE44
:10126000C39402504BA3E090028612188F90028E16
:10127000E0FF90028CE02440121898E490028BF07A
:1012800090028EE0FF90028812173F7F0A7E0012C4
:1012900018A0900289E475F00112053D90028BE0E0
:1012A00004F0E0C3940840D890028DE004F080ABD5
:0112B000221B
:1015870090027FEFF0A3EDF0A3EBF0A3EAF0A3E95D
:01159700F063
:10159800E4A3F0A3F0900281E0FBA3E0FAA3E0F952
:1015A80012045C605E900284E0C3940A50551216DF
:1015B8008D900285EFF0900280E0FF90027FE0FDC1
:1015C800900281E0FBA3E0FAA3E0F912121890025E
:1015D80084E004F0900282E475F00112053D900267
:1015E80085E0B4020A900282E475F00112053D908C
:1015F800027FE004F0E0D3940F409AE4F0A3E00403
:03160800F08092DD
:01160B0022BC
:05146D009002FBEDF010
:10147200E4FBE014F00BA3EBF0A37402F0A3740FEF
:10148200F0EFC3940490030250067401F0EF80065B
:101492007402F0EF24FCC454F0900300F0E49003D3
:1014A20001F0900301E0FEC39402504CA3E0FF90D0
:1014B20002FB121890900302E0FF900300E0244028
:1014C200121898E49002FFF0900302E0FF9002FCF1
:1014D20012173F7F0A7E001218A09002FDE475F0F9
:1014E2000112053D9002FFE004F0E0C3941040D8E1
:0814F200900301E004F080AA60
:0114FA0022CF
:0F18E9009000407401F0A37402F0A3744FF0223A
:0F18F8009000407401F0A37401F0A374CFF022AC
:0F1907009000407401F0A37402F0A3742FF0223B
:0F1916009000407401F0A37401F0A374EFF0226D
:0F1925009000407401F0A37400F0A37400F0224E
:05134700900303EDF02E
:10134C00E014F0900040E0F9A3E0FAA3E09003046D
:10135C00C9F0A3EAF0A3E9F0EFC3940490030A5098
:10136C00067401F0EF80067402F0EF24FCC454F014
:10137C00900308F0E4900309F0900309E0FEC39495
:10138C0002504CA3E0FF90030312189090030AE064
:10139C00FF900308E02440121898E4900307F090A3
:1013AC00030AE0FF90030412173F7F0A7E00121815
:1013BC00A0900305E475F00112053D900307E004CD
:0F13CC00F0E0C3941040D8900309E004F080AA29
:0113DB0022EF
:08194D00E49001ABF0A3F022CD
:08089A009002F2EFF0A3EDF073
:1008A200E014F09001ABE0FF7007A3E070030209CF
:1008B200369002F47401F0A37400F0A37400F0EF18
:1008C200C394049002FA50097401F09001ABE080E5
:1008D200097402F09001ABE024FCC454F09002F8D9
:1008E200F0E49002F9F09002F9E0FEC39402504461
:1008F200A3E0FF9001AC1218909002FAE0FF900280
:10090200F8E02440121898E49002F7F01217377FAB
:100912000A7E001218A09002F5E475F00112053D5E
:100922009002F7E004F0E0C3941040E09002F9E096
:1009320004F080B29002F2E0FF9001ABF09002F37B
:10094200E09001ACF09002F47401F0A37400F0A303
:100952007420F0EFC394049002FA50097401F090ED
:1009620002F2E080097402F09002F2E024FCC45426
:10097200F09002F8F0E49002F9F09002F9E0FEC380
:1009820094025044A3E0FF9002F31218909002FAEE
:10099200E0FF9002F8E02440121898E49002F7F089
:1009A2001217377F0A7E001218A09002F5E475F044
:1009B2000112053D9002F7E004F0E0C3941040E01C
:0809C2009002F9E004F080B29C
:0109CA00220A
:08195500ED04FDD20302089A23
:05196400E4FF0216E59E
:1018D9000000000000000000004144B2E2CAD40048
:0C0BEE004103130041031200C101C100CB
:03196900DFFE227C
:1018B200AE07AF061EEF600C7FF51219697FF512B5
:0518C200196980EE220F
:1018C700121780121964759D03E4F5BD75BC80027B
:0218D700195D99
:10180700C204EF4488F5BC200408E5BCA2E49204B6
:1018170080F5EDAFBDB40A14EF75F004A4FFE5BE83
:1018270054037C002FFBEC35F0FA80047A00AB07F9
:0718370075BC00AF03AE0217
:01183E002287
:101869007D0AE4FF121807900313EFF0D2017F6499
:101879001218B27D087F01121807900312EFF0D2F7
:06188900007F640218B2AA
:100FCA0078767C027D017BFF7A1879D97E007F05CD
:100FDA00120436787B7C027D017BFF7A1879DE7EEB
:100FEA00007F04120436300165C201900313E0FB4E
:100FFA007C037DE8FF7E001204E8EF24309002763D
:10100A00F07C037DE8AF037E001204E87E007F6473
:10101A00CFCDCFCECCCE1204E8EF2430A3F090038C
:10102A0013E0FD75F06484E5F075F00A84243090CD
:10103A000278F0ED75F00A84E5F02430A3F0E4A319
:10104A00F07B017A0279767D027F0C1215873000D7
:10105A003CC200900312E0FD75F0648424309002D3
:10106A007BF0ED75F06484ADF0ED75F00A84243000
:10107A00A3F0ED75F00A84E5F02430A3F0E4A3F0C0
:0D108A007B017A02797B7D017F0D121587B5
:011097002236
:10183F00786F7C027D017BFF7A1879E27E007F074B
:10184F001204361218C77B017A02796FE4FDFF127A
:0A185F00160C121869120FCA80F867
:07195D0075CED075CDC0224C
:0B1942008FCFE5CD30E7FB75CDC02254
:0D193400E4F5CFE5CD30E7FBAFCF75CDC0BA
:011941002283
:030000000214FBEC
:0C14FB00787FE4F6D8FD758120021542D0
:10036600E709F608DFFA8046E709F208DFFA803E79
:1003760088828C83E709F0A3DFFA8032E309F60866
:10038600DFFA8078E309F208DFFA807088828C83CE
:10039600E309F0A3DFFA806489828A83E0A3F60882
:1003A600DFFA805889828A83E0A3F208DFFA804C5C
:1003B60080D280FA80C680D4806980F28033801033
:1003C60080A680EA809A80A880DA80E280CA80339C
:1003D60089828A83ECFAE493A3C8C582C8CCC58314
:1003E600CCF0A3C8C582C8CCC583CCDFE9DEE780E4
:1003F6000D89828A83E493A3F608DFF9ECFAA9F063
:10040600EDFB2289828A83ECFAE0A3C8C582C8CCB8
:10041600C583CCF0A3C8C582C8CCC583CCDFEADED1
:10042600E880DB89828A83E493A3F208DFF980CC33
:1004360088F0EF60010E4E60C388F0ED2402B4042C
:100446000050B9F582EB2402B4040050AF232345D3
:0604560082239003B6733F
:10045C00BB010689828A83E0225002E722BBFE029E
:09046C00E32289828A83E49322D1
:10047500BB010CE58229F582E5833AF583E022503C
:1004850006E92582F8E622BBFE06E92582F8E22286
:0D049500E58229F582E5833AF583E49322A0
:1004A200BB010689828A83F0225002F722BBFE0139
:0204B200F32233
:1004B400F8BB010DE58229F582E5833AF583E8F07E
:1004C400225006E92582C8F622BBFE05E92582C82A
:0204D400F22212
:1004D600EF8DF0A4A8F0CF8CF0A428CE8DF0A42E3A
:0204E600FE22F4
:1004E800BC000BBE0029EF8DF084FFADF022E4CCF8
:1004F800F875F008EF2FFFEE33FEEC33FCEE9DECC1
:10050800984005FCEE9DFE0FD5F0E9E4CEFD22ED06
:10051800F8F5F0EE8420D21CFEADF075F008EF2F50
:10052800FFED33FD4007985006D5F0F222C398FD41
:050538000FD5F0EA22DE
:10053D00C5F0F8A3E028F0C5F0F8E5821582700249
:06054D001583E038F022E6
:10055300A3F8E0C5F025F0F0E5821582700215835B
:06056300E0C838F0E822B8
:10056900E88FF0A4CC8BF0A42CFCE98EF0A42CFC31
:100579008AF0EDA42CFCEA8EF0A4CDA8F08BF0A4AF
:100589002DCC3825F0FDE98FF0A42CCD35F0FCEB0E
:100599008EF0A4FEA9F0EB8FF0A4CFC5F02ECD39D3
:0F05A900FEE43CFCEAA42DCE35F0FDE43CFC2240
:1005B800E8600FECC313FCED13FDEE13FEEF13FF21
:0305C800D8F12245
:0C05CB00ECF0A3EDF0A3EEF0A3EFF022A3
:1015070002183FE493A3F8E493A34003F68001F2A3
:1015170008DFF48029E493A3F85407240CC8C333E5
:10152700C4540F4420C8834004F456800146F6DFB4
:10153700E4800B0102040810204080900AE4E47E56
:10154700019360BCA3FF543F30E509541FFEE493A9
:10155700A360010ECF54C025E060A840B8E493A370
:10156700FAE493A3F8E493A3C8C582C8CAC583CA9B
:10157700F0A3C8C582C8CAC583CADFE9DEE780BE53
:010BFA0000FA
:00000001FF
