:09193B00CDA8D0C5B2E2CAD40067
:1017E900786F7C027D017BFF7A19793B7E007F0946
:1017F9001204791219091217931219547B017A02EA
:10180900796FE4FDFF1215EDE4F595759601C2C2F5
:10181900C2C4C2A0759A50438E0475D7E075D6FE2E
:10182900438E1075AF01D2AF7FD07E07120003B28D
:03183900C280F575
:10001B00D2A0E4F5AF8F9BE59A30E1FB539AFD75C7
:05002B00AF01C2A0229C
:0300430002188C14
:10188C00C0E0C083C082C0D075D008E59A30E0209B
:10189C00539AFED2C4900325E59BF0A3E4F0900389
:1018AC0025E0FF12001BA3E004F0E0C3946440EEBB
:1018BC00E59A30E103539AFDD0D0D082D083D0E0AA
:0118CC0032E9
:0A193100EF1F70011E144E70F72224
:10000300AD07AC06ED1DAE0470011C4E60097FE820
:080013007E0312193180ED2279
:100C5600602000000000000000000000000000000E
:100C6600000000000000000000000000000000007E
:100C760000000000602000200101010101010101C6
:100C86000101010101010101000000000000000056
:100C960000000000000000006020024F000000007D
:100CA600FCFCFFFFFFFFFCFC000000000000000052
:100CB600FFFFFFFFFFFFFFFF00000000602001CFE6
:100CC60000000000FC040707070704FC0000000002
:100CD60000000000FFFFFFFFFFFFFFFF0000000016
:100CE6006020022F00000000FC040707070704FC31
:100CF6000000000000000000FF808080808080FFF0
:100D060000000000602001EF00000000FC2447877F
:100D1600874724FC0000000000000000FF84828159
:100D2600818284FF000000006020020F80808080A6
:100D3600808080808080808090A0C080000000003D
:100D46000000000000000000040201004300400013
:0A0D560000004101AB004101AC00B8
:0A183C00FFE025E024B8FDEE2DFDCD
:10184600900288EFF0A3EDF07FC87E00121931C236
:10185600A5900288E0B4010DD2B77FC87E001219A8
:1018660031C2A1800BC2B77FC87E00121931D2A146
:101876007FC87E00121931C2A4C2A3D2A5900289E4
:06188600E0F580C2A5227E
:1016E100900306E0900300FFE0FBA3E0FAA3E0F91A
:0416F10012049FFD43
:1016F500900288EFF0A3EDF07FC87E00121931C289
:10170500A5900288E0B4010DD2B77FC87E001219FA
:1017150031C2A1800BC2B77FC87E00121931D2A198
:101725007FC87E00121931D2A4C2A3D2A590028926
:06173500E0F580C2A522D0
:05166E00900278EFF08E
:101673007DC07F011218467DC07F02121846E49098
:10168300027AF090027AE0FFC394085050EF24B836
:10169300FD7F011218467D407F0112184690027AA1
:1016A300E024B8FD7F021218467D407F02121846DF
:1016B300E4900279F0900278E0FD7F011216F59034
:1016C3000278E0FD7F021216F5900279E004F0E063
:0D16D300C3944040E090027AE004F080A64D
:0116E00022E7
:10179300C2A27FE87E03121931D2A27FE87E031230
:1017A30019317D3F7F011218467DC07F0112184613
:1017B3007FE87E031219317D3F7F021218467DC0F8
:1017C3007F02121846E4FF12166E7DB87F011218CD
:1017D300467D407F011218467DB87F021218467D70
:0617E300407F02021846DF
:0B0D6100900288EBF0A3EAF0A3E9F099
:100D6C00E4A3F0A3F0A37420F07D101200469002CF
:100D7C008E12060E900288E0FBA3E0FAA3E0F912B3
:100D8C00173B90028CEFF0C2927F0312192690024F
:100D9C008EE0FCA3E0FDA3E0FEA3E0FF78101205BB
:100DAC00FBE412192690028EE0FCA3E0FDA3E0FE0A
:100DBC00A3E0FF78081205FBE412192690028EE0DE
:100DCC00FCA3E0FDA3E0FEA3E0FFE41219269002D1
:100DDC008CE0B4022CE490028BF090028DE0FF903A
:100DEC00028BE0C39F506012191890028BE024AF65
:100DFC00F582E43401F583EFF090028BE004F0808F
:100E0C00D990028CE06401703E90028BF090028DC0
:100E1C00E0C313FF90028BE0C39F502B1219189064
:100E2C00028BE0FE25E024AFF582E43401F583EF7C
:100E3C00F0EE25E024B0F582E43401F583E4F09083
:090E4C00028BE004F080C6D29292
:010E5500227A
:0812650090027FEFF0A3EDF011
:10126D00120D619002817401F0A37401F0A374AFAB
:10127D00F090027FE0FFC394049002875006740142
:10128D00F0EF80097402F090027FE024FCC454F06A
:10129D00900285F0E4900286F0900286E0FEC39401
:1012AD00025059A3E090028012183C7F647E001218
:1012BD001931900287E0FF900285E02440FD12185D
:1012CD00467F647E00121931E4900284F09002870B
:1012DD00E09002811216E87F0A7E00121931900209
:1012ED0082E475F001120580900284E004F0E0C301
:0C12FD00941040D9900286E004F0809D1F
:0113090022C1
:1015ED00900278EFF0A3EDF0A3EBF0A3EAF0A3E9FE
:0115FD00F0FD
:1015FE00E4A3F0A3F090027AE0FBA3E0FAA3E0F9F3
:10160E0012049F605A90027DE0C3940A5051121743
:10161E003B90027EEFF0900278E0FFA3E0FDA3E0A6
:10162E00FBA3E0FAA3E0F912126590027DE004F04C
:10163E0090027BE475F00112058090027EE0B40208
:10164E000A90027BE475F001120580900278E004A6
:0F165E00F0E0D39407409EE4F0A3E004F0809600
:01166D00225A
:0B0A2C009002BAEBF0A3EAF0A3E9F09F
:100A3700E49002C0F0A3F0A37448F07D18120046BA
:100A47009002C312060E9002BAE0FBA3E0FAA3E0FD
:100A5700F912173B9002C1EFF0C2927F03121926D9
:100A67009002C3E0FCA3E0FDA3E0FEA3E0FF781043
:100A77001205FBE41219269002C3E0FCA3E0FDA3D4
:100A8700E0FEA3E0FF78081205FBE41219269002A6
:100A9700C3E0FCA3E0FDA3E0FEA3E0FFE4121926F8
:100AA7009002C1E0B40236E49002C0F09002C2E0C6
:100AB700FF9002C0E0C39F4003020B421219189037
:100AC70002BDE0FBA3E0FAA3E0F9A3E0F58275839A
:100AD70000EF1204F79002C0E004F080CF9002C14B
:100AE700E0640170569002C0F09002C2E0C313FFA9
:100AF7009002C0E0C39F50431219189002BDE0FB5B
:100B0700A3E0FAA3E0F9A3E0FE75F002A4F582855D
:100B1700F083EF1204F79002BDE0FBA3E0FAA3E035
:100B2700F975F002EEA42401F582E435F0F583E4CB
:0D0B37001204F79002C0E004F080AED292EC
:010B4400228E
:0810EF0090029CEFF0A3EDF06C
:1010F700E94A6020C002C0019002A1E0F9A3E0FA2A
:10110700A3E09002BDC9F0A3EAF0A3E9F0D001D0B3
:1011170002120A2C9002A47401F0A37400F0A374C5
:1011270043F090029CE0FFC394029002AA50067419
:1011370001F0EF80097402F090029CE024FE75F044
:1011470018A49002A8F0E49002A9F09002A9E0FE8A
:10115700C394035060A3E0FF90029DE075F003A4E1
:101167001218407F647E001219319002AAE0FF90A6
:1011770002A8E02440FD1218467F647E0012193150
:10118700E49002A7F09002AAE0FF9002A41216E9E9
:101197007F0A7E001219319002A5E475F00112054D
:1011A700809002A7E004F0E0C3941840D89002A909
:0511B700E004F0809649
:0111BC002210
:10144B00900317EFF0A3EDF0A3EBF0A3EAF0A3E901
:01145B00F0A0
:10145C00E4A3F0A3F0900319E0FBA3E0FAA3E0F9F6
:10146C0012049F606A90031CE0C3940A5061121727
:10147C003B90031DEFF0900317E0FFA3E0FD9002FB
:10148C00A17401F0A37400F0A37443F0900319E06D
:10149C00FBA3E0FAA3E0F91210EF90031CE004F0B8
:1014AC0090031AE475F00112058090031DE0B4025C
:1014BC000A90031AE475F001120580900317E004FA
:0F14CC00F0E0D39404408EE4F0A3E004F08086B7
:0114DB0022EE
:08101F009002ABEFF0A3EDF02D
:10102700E94A6020C002C0019002B0E0F9A3E0FAEB
:10103700A3E09002BDC9F0A3EAF0A3E9F0D001D084
:1010470002120A2C9002B0E0F9A3E0FAA3E0A3C9C8
:10105700F0A3EAF0A3E9F09002ABE0FFC39440905D
:1010670002B9500A7401F09002B7EFF0800A7402D7
:10107700F0EF24C09002B7F0E49002B8F09002B805
:10108700E0FEC394035060A3E0FF9002ACE075F06C
:1010970003A41218407F647E001219319002B9E050
:1010A700FF9002B7E02440FD1218467F647E0012CD
:1010B7001931E49002B6F09002B9E0FF9002B31242
:1010C70016E97F0A7E001219319002B4E475F00127
:1010D7001205809002B6E004F0E0C3941840D8905F
:0710E70002B8E004F080965E
:0110EE0022DF
:0E0B45009002C7EFF0A3EBF0A3EAF0A3E9F0F3
:100B5300E4A3F0A3F0A3EBF0A3EAF0A3E9F090027F
:100B6300CDE0FBA3E0FAA3E0F912049F602712177C
:100B73003B9002CCEFF09002CBE004F09002CEE485
:100B830075F001120580BF02D59002CEE475F00125
:100B930012058080C99002CBE024FE600F14601818
:100BA300240270249002D07427F0802D9002D07418
:100BB3001DF0A3744AF080219002D07426F0A37430
:100BC30040F0A37456F08011E49002D0F0A3742295
:100BD300F0A37445F0A37467F0E49002CBF09002A5
:100BE300C8E0FBA3E0FAA3E0F912049F606490025B
:100BF300CBE0C39404505B12173B9002CCEFF09010
:100C030002CBE024D0F582E43402F583E0FF9002C6
:100C1300C7E0FD9002B07401F0A37400F0A3744325
:100C2300F09002C8E0FBA3E0FAA3E0F912101F90D2
:100C330002CBE004F09002C9E475F0011205809044
:100C430002CCE0B402989002C9E475F00112058069
:020C5300808C93
:010C5500227C
:1008FB009002D7ECF0A3EDF09002D4EBF0A3EAF06A
:03090B00A3E9F06D
:10090E00E49002D9F0A3F0A37448F07D18120046CB
:10091E009002DC12060E9002D4E0FBA3E0FAA3E0F4
:10092E00F912173B9002DAEFF0C2927F03121926EA
:10093E009002DCE0FCA3E0FDA3E0FEA3E0FF781054
:10094E001205FBE41219269002DCE0FCA3E0FDA3E5
:10095E00E0FEA3E0FF78081205FBE41219269002D0
:10096E00DCE0FCA3E0FDA3E0FEA3E0FFE412192609
:10097E009002DAE06402703D9002D9F09002DBE062
:10098E00FF9002D9E0C39F4003020A291219189062
:10099E0002D9E0FD9002D8E02DFD9002D7E03400A0
:1009AE00FC748B2DF58274003CF583EFF09002D928
:1009BE00E004F080C79002DAE06401705E9002D924
:1009CE00F09002DBE0C313FF9002D9E0C39F504BBF
:1009DE001219189002D7E0FCA3E0FDA3E0FE75F01B
:1009EE0002A42DF582E5F03CF583E582248BF58299
:1009FE00E5833400F583EFF075F002EEA42DF58259
:100A0E00E5F03CF583E582248CF582E5833400F530
:0D0A1E0083E4F09002D9E004F080A6D292AB
:010A2B0022A8
:10061A00EF24FE70030206BE1470030206F22402DF
:10062A0060030207AB7B487AD89000D3E4F0A3DAE0
:10063A00FC7A007B487C007D18AF03AE0212052BC2
:10064A00D3ED940BEC9400401874372BF5827400A8
:10065A003AF583E0FF748B2BF58274003AF583EF49
:10066A00F00BBB00010AEB64904A70C97A007B90D8
:10067A007C007D18AF03AE0212052BC3ED940BEC80
:10068A009400501874072BF58274003AF583E0FF42
:10069A00748B2BF58274003AF583EFF00BBB0001E3
:1006AA000AEB64D84A70C9E4FB7A4890008BE4F0FC
:1006BA00A3DAFC227A017B1F74FB2BF58274FF3AC2
:1006CA00F583E0FF748B2BF58274003AF583EFF023
:1006DA00EB1B70011AEB64D74A70DD7B487A909065
:1006EA0000D3E4F0A3DAFC227A007BD874432BF51A
:1006FA008274003AF583E0FF748B2BF58274003A1A
:10070A00F583EFF00BBB00010ABA01E0BB20DD7AEA
:10071A00007BD77C007D18AF03AE0212052BC3ED18
:10072A00940BEC9400501A744F2BF58274003AF52E
:10073A0083E0FF748B2BF58274003AF583EFF08027
:10074A000C748B2BF58274003AF583E4F0EB1B7082
:10075A00011AEB648F4A70BB7A007B8F7C007D188C
:10076A00AF03AE0212052BD3ED940BEC9400401AA2
:10077A00747F2BF58274003AF583E0FF748B2BF5B6
:10078A008274003AF583EFF0800C748B2BF5827437
:10079A00003AF583E4F0EB1B70011AEB64474A70E8
:0107AA00BB93
:0107AB00222B
:0E0F47009002E0EFF0A3EBF0A3EAF0A3E9F0D4
:100F5500E49002E5F0A3F0A3EBF0A3EAF0A3E9F037
:100F6500A37448F0300167C2019002E1E0FBA3E001
:100F7500FAA3E0F912049F604D9002E5E0C39404E2
:100F8500504412173B9002E6EFF09002E5E075F051
:100F950048A4FDACF09002E1E0FBA3E0FAA3E0F980
:100FA5001208FB9002E5E004F09002E2E475F0011E
:100FB5001205809002E6E0B402AF9002E2E475F01B
:100FC5000112058080A39002E5E0FF12061AE49065
:100FD50002E4F09002E4E0FFC39404503C9002EA7E
:100FE500E08FF0A4248BF9740035F0FA9002B07408
:100FF50001F0A3EAF0A3E9F09002E4E075F018A48B
:101005002410FF9002E0E0FD7B007A0079001210C9
:091015001F9002E4E004F080BA2F
:01101E0022AF
:0B0E56009002EBEBF0A3EAF0A3E9F040
:100E6100E4A3F0A3F0A37420F07D101200469002D9
:100E7100F112060E9002EBE0FBA3E0FAA3E0F912F7
:100E8100173B9002EFEFF0C2927F031219269002F6
:100E9100F1E0FCA3E0FDA3E0FEA3E0FF7810120562
:100EA100FBE41219269002F1E0FCA3E0FDA3E0FEB1
:100EB100A3E0FF78081205FBE41219269002F1E085
:100EC100FCA3E0FDA3E0FEA3E0FFE41219269002DB
:100ED100EFE0B4022CE49002EEF09002F0E0FF901B
:100EE10002EEE0C39F505C1219189002EEE024AFAD
:100EF100F582E43401F583EFF09002EEE004F08036
:100F0100D99002EFE06401703A9002EEF09002F0A5
:100F1100E0C313FF9002EEE0C39F5027121918900F
:100F210002EEE0FE24AFF582E43401F583EFF074C4
:100F3100BF2EF582E43401F583E4F09002EEE00483
:050F4100F080CAD2920D
:010F46002288
:0811BD009002F5EFF0A3EDF044
:1011C500120E569002F77401F0A37401F0A374AFE8
:1011D500F09002F6E0FFC394089002FD50067401FA
:1011E500F0EF80097402F09002F6E024F83333330F
:1011F50054F89002FBF0E49002FCF09002FCE0FE53
:10120500C39402505AA3E09002F512183C7F647E05
:10121500001219319002FDE0FF9002FBE02440FD31
:101225001218467F647E00121931E49002FAF0909C
:1012350002FDE0FF9002F71216E97F0A7E001219FF
:10124500319002F8E475F0011205809002FAE0048D
:0F125500F0E0C3940840D89002FCE004F0809CC5
:011264002267
:1015680090031EEFF0A3EDF0A3EBF0A3EAF0A3E9DC
:01157800F082
:10157900E4A3F0A3F0900320E0FBA3E0FAA3E0F9D1
:1015890012049F605E900323E0C3940A505512171A
:101599003B900324EFF090031FE0FF90031EE0FD52
:1015A900900320E0FBA3E0FAA3E0F91211BD900338
:1015B90023E004F0900321E475F001120580900303
:1015C90024E0B4020A900321E475F0011205809029
:1015D900031EE004F0E0D3940F409AE4F0A3E00482
:0315E900F08092FD
:0115EC0022DC
:0513AE00900307EDF0C3
:1013B300E4FBE014F00BA3EBF0A37402F0A3740FAF
:1013C300F0EFC3940490030E50067401F0EF80060F
:1013D3007402F0EF24FCC454F090030CF0E4900387
:1013E3000DF090030DE0FEC39402505BA3E0FF9069
:1013F300030712183D7F647E0012193190030EE03B
:10140300FF90030CE02440FD1218467F647E001217
:101413001931E490030BF090030EE0FF90030812E0
:1014230016E97F0A7E00121931900309E475F00171
:1014330012058090030BE004F0E0C3941040D890B1
:07144300030DE004F0809BA3
:01144A00227F
:0F0030009000407401F0A37402F0A3744FF0220B
:0F18CD009000407401F0A37401F0A374CFF022D7
:0F18DC009000407401F0A37402F0A3742FF02267
:0F18EB009000407401F0A37401F0A374EFF02299
:0F18FA009000407401F0A37400F0A37400F0227A
:05130A0090030FEDF05F
:10130F00E014F0900040E0F9A3E0FAA3E09003109E
:10131F00C9F0A3EAF0A3E9F0EFC3940490031650C9
:10132F00067401F0EF80067402F0EF24FCC454F051
:10133F00900314F0E4900315F0900315E0FEC394AE
:10134F0002505BA3E0FF90030F12183D7F647E00F5
:10135F00121931900316E0FF900314E02440FD12A0
:10136F0018467F647E00121931E4900313F0900346
:10137F0016E0FF9003101216E97F0A7E0012193152
:10138F00900311E475F001120580900313E004F04F
:0E139F00E0C3941040D8900315E004F0809B4A
:0113AD00221D
:08194400E49001ABF0A3F022D6
:0807AC009002FEEFF0A3EDF056
:1007B400E014F09001ABE0FF7007A3E070030208BF
:1007C400579003007401F0A37400F0A37400F0EFD9
:1007D400C3940490030650097401F09001ABE080C7
:1007E400097402F09001ABE024FCC454F0900304BB
:1007F400F0E4900305F0900305E0FEC39402505327
:10080400A3E0FF9001AC12183D7F647E0012193101
:10081400900306E0FF900304E02440FD1218467F95
:10082400647E00121931E4900303F01216E17F0A8A
:100834007E00121931900301E475F00112058090D5
:100844000303E004F0E0C3941040E0900305E004E7
:10085400F080A39002FEE0FF9001ABF09002FFE075
:100864009001ACF09003007401F0A37400F0A37441
:1008740020F0EFC3940490030650097401F0900231
:10088400FEE080097402F09002FEE024FCC454F0FF
:10089400900304F0E4900305F0900305E0FEC39494
:1008A400025053A3E0FF9002FF12183D7F647E00C4
:1008B400121931900306E0FF900304E02440FD1276
:1008C40018467F647E00121931E4900303F0121677
:1008D400E17F0A7E00121931900301E475F00112E0
:1008E4000580900303E004F0E0C3941040E090031B
:0608F40005E004F080A302
:0108FA0022DB
:08194C00ED04FDD2000207AC1E
:05195400E4FF02166E25
:0F190900E5A254F34408F5A275CED075CDC022E7
:0B1926008FCFE5CD30E7FB75CDC02270
:0D191800E4F5CFE5CD30E7FBAFCF75CDC0D6
:01192500229F
:0B173B00900292EBF0A3EAF0A3E9F0AB
:10174600900292E0FBA3E475F001120596A9F0FA67
:1017560012049FFFC3942050037F0022EFC394809E
:1017660050037F0122900292E0FBA3E475F0011280
:101776000596A9F0FA12049FFEEFB48106EEC39413
:0C178600395004EFB482037F04227F027C
:011792002234
:10004600900295EDF0900292EBF0A3EAF0A3E9F0AE
:1000560012049FFFC394804003020148EFC394201B
:100066005010900292E0FBA3E0FAA3E0F97420128C
:1000760004E5900292E0FBA3E0FAA3E0F912049FE4
:1000860024E0FFE434FFFEE4FCFD90029612060E27
:10009600900295E0B40812A3E0FCA3E0FDA3E0FE05
:1000A600A3E0FFE47B080202FF900295E0B40C1285
:1000B600A3E0FCA3E0FDA3E0FEA3E0FFE47B0C02CB
:1000C60002FF900295E0B41023E47F10FEFDFCA32E
:1000D600E0F8A3E0F9A3E0FAA3E0FB1205ACEF24F5
:1000E600CCFFEE347FFEED341A02032F900295E02A
:1000F600B41822E47F30FEFDFCA3E0F8A3E0F9A3E8
:10010600E0FAA3E0FB1205ACE42FFFEE34FFFEEDB0
:10011600341D02032F900295E06420600302039AC7
:100126007F40FEFDFCA3E0F8A3E0F9A3E0FAA3E01C
:10013600FB1205ACEF2450FFEE345AFEED341E02DE
:10014600032F900292E0FBA3E0FAA3E0F912049FCA
:10015600FF90029AF09000011204B890029BF0EF13
:10016600C394A1401090029AE0D394AB5007A3E049
:10017600C394A1502090029AE0FFC394A8500302B2
:10018600029EEFD394A9400302029EA3E0C394A16A
:10019600400302029E90029AE0FFC394A1402EEF14
:1001A600D394AB5028A3E0FBC394A1402090029ABD
:1001B600E0245FFFE434FFFE7C007D5E120519EB50
:1001C600245FFDEC34FFCD2FFFED3E802690029B91
:1001D600E0D3947F4003E014F090029AE0FF7E00A3
:1001E6007C007D60120519A3E02FFFEC3ECF240EA4
:1001F600CF34C4FEE4FD90029612060E900295E0FE
:10020600B40C15E47F18FEFDFCA3E0F8A3E0F9A307
:10021600E0FAA3E0FB0205AC900295E0B41022E4FC
:100226007F20FEFDFCA3E0F8A3E0F9A3E0FAA3E03B
:10023600FB1205ACEF24C0FFEE34F4FEED3405806E
:100246004F900295E0B41822E47F48FEFDFCA3E03F
:10025600F8A3E0F9A3E0FAA3E0FB1205ACEF24C093
:10026600FFEE34E5FEED340D8026900295E0B420D5
:1002760024E47F80FEFDFCA3E0F8A3E0F9A3E0FA06
:10028600A3E0FB1205ACE42FFFEE34DFFEED340EE7
:10029600FDE43CFC2202039490029AE0FFC394B072
:1002A6004035EFD394F7502FA3E0FBC394A140272A
:1002B60090029AE02450FFE434FFFE7C007D5E123B
:1002C6000519EB245FFDEC34FFCD2FFFED3EFEE478
:1002D600FD90029612060E900295E0B40C24A3E05F
:1002E600FCA3E0FDA3E0FEA3E02496FFEE3402FEAD
:1002F600E43DFDE43CFCE47B18FAF9F81205AC0297
:10030600038C900295E0B41026E47F20FEFDFCA34A
:10031600E0F8A3E0F9A3E0FAA3E0FB1205ACEF24B2
:1003260080FFEE3447FEED3406FDE43CFC8057903A
:100336000295E0B41826E47F48FEFDFCA3E0F8A38E
:10034600E0F9A3E0FAA3E0FB1205ACEF24F0FFEE20
:10035600349FFEED340EFDE43CFC802A900295E0CD
:10036600B4202BE47F80FEFDFCA3E0F8A3E0F9A314
:10037600E0FAA3E0FB1205ACE42FFFEE342AFEED13
:100386003410FDE43CFC90029612060E8006E4FF53
:10039600FEFDFC22900296E0FCA3E0FDA3E0FEA396
:0203A600E0FF76
:0103A8002232
:030000000214DC0B
:0C14DC00787FE4F6D8FD7581200215230E
:1003A900E709F608DFFA8046E709F208DFFA803E36
:1003B90088828C83E709F0A3DFFA8032E309F60823
:1003C900DFFA8078E309F208DFFA807088828C838B
:1003D900E309F0A3DFFA806489828A83E0A3F6083F
:1003E900DFFA805889828A83E0A3F208DFFA804C19
:1003F90080D280FA80C680D4806980F280338010F0
:1004090080A680EA809A80A880DA80E280CA803358
:1004190089828A83ECFAE493A3C8C582C8CCC583D0
:10042900CCF0A3C8C582C8CCC583CCDFE9DEE780A0
:100439000D89828A83E493A3F608DFF9ECFAA9F01F
:10044900EDFB2289828A83ECFAE0A3C8C582C8CC75
:10045900C583CCF0A3C8C582C8CCC583CCDFEADE8E
:10046900E880DB89828A83E493A3F208DFF980CCF0
:1004790088F0EF60010E4E60C388F0ED2402B404E9
:100489000050B9F582EB2402B4040050AF23234590
:0604990082239003F973B9
:10049F00BB010689828A83E0225002E722BBFE025B
:0904AF00E32289828A83E493228E
:1004B800BB010CE58229F582E5833AF583E02250F9
:1004C80006E92582F8E622BBFE06E92582F8E22243
:0D04D800E58229F582E5833AF583E493225D
:1004E500BB010689828A83F0225002F722BBFE01F6
:0204F500F322F0
:1004F700F8BB010DE58229F582E5833AF583E8F03B
:10050700225006E92582C8F622BBFE05E92582C8E6
:02051700F222CE
:10051900EF8DF0A4A8F0CF8CF0A428CE8DF0A42EF6
:02052900FE22B0
:10052B00BC000BBE0029EF8DF084FFADF022E4CCB4
:10053B00F875F008EF2FFFEE33FEEC33FCEE9DEC7D
:10054B00984005FCEE9DFE0FD5F0E9E4CEFD22EDC3
:10055B00F8F5F0EE8420D21CFEADF075F008EF2F0D
:10056B00FFED33FD4007985006D5F0F222C398FDFE
:05057B000FD5F0EA229B
:10058000C5F0F8A3E028F0C5F0F8E5821582700206
:060590001583E038F022A3
:10059600A3F8E0C5F025F0F0E58215827002158318
:0605A600E0C838F0E82275
:1005AC00E88FF0A4CC8BF0A42CFCE98EF0A42CFCEE
:1005BC008AF0EDA42CFCEA8EF0A4CDA8F08BF0A46C
:1005CC002DCC3825F0FDE98FF0A42CCD35F0FCEBCB
:1005DC008EF0A4FEA9F0EB8FF0A4CFC5F02ECD3990
:0F05EC00FEE43CFCEAA42DCE35F0FDE43CFC22FD
:1005FB00E8600FECC313FCED13FDEE13FEEF13FFDE
:03060B00D8F12201
:0C060E00ECF0A3EDF0A3EEF0A3EFF0225F
:1014E8000217E9E493A3F8E493A34003F68001F21A
:1014F80008DFF48029E493A3F85407240CC8C33305
:10150800C4540F4420C8834004F456800146F6DFD3
:10151800E4800B0102040810204080900C56E47E01
:10152800019360BCA3FF543F30E509541FFEE493C8
:10153800A360010ECF54C025E060A840B8E493A38F
:10154800FAE493A3F8E493A3C8C582C8CAC583CABA
:10155800F0A3C8C582C8CAC583CADFE9DEE780BE72
:010D60000092
:00000001FF
