:10000300602000000000000000000000000000006D
:1000130000000000000000000000000000000000DD
:100023000000000060200020010101010101010125
:1000330001010101010101010000000000000000B5
:100043000000000000000000602000C0000000006D
:10005300FCFCFFFFFFFFFCFC0000000000000000B1
:10006300FFFFFFFFFFFFFFFF0000000060200040D5
:1000730000000000FC040707070704FC0000000061
:1000830000000000FFFFFFFFFFFFFFFF0000000075
:10009300602000A000000000FC040707070704FC21
:1000A3000000000000000000FF808080808080FF4F
:1000B300000000006020006000000000FC2447876F
:1000C300874724FC0000000000000000FF848281B9
:1000D300818284FF00000000602000808080808097
:1000E300808080808080808090A0C080000000009D
:1000F30000000000000000000402010003100000E3
:0101030000FB
:0802FB00AB05AA077FC87E00D5
:10030300E4FDFCC3ED9FEC9E50070DBD00010C8086
:01031300F2F7
:0103140022C6
:0902A6007F011202AF7D407F01CF
:1002AF001202FBC2A5BA0109D2A0120303C2A18098
:1002BF0007C2A01202FFD2A1120303C2A4C2A3D28B
:0602CF00A58B80C2A522F0
:1002D5001202FBC2A5BA0109D2A0120303C2A18072
:1002E50007C2A01202FFD2A1120303D2A4C2A3D255
:0602F500A58B80C2A522CA
:02025E008F0807
:100260007DC07F011202AF7DC07F021202AFE4F9B0
:10027000E924B8FD1202A6E924B8FD7F021202AFFC
:100280007D407F021202AFE4F509AD087F01120242
:10029000D5AD087F021202D50509E509C394404097
:0502A000E909B908CBDB
:0102A5002236
:10021500C2A27FE87E03120303D2A21203037D3F2D
:100225007F011202AF7DC07F011202AF7FE87E031E
:100235001203037D3F7F021202AF7DC07F021202CF
:10024500AFE4FF12025E7DB81202A67DB87F0212EE
:0902550002AF7D407F020202AFFE
:0A0340007510017511007512C0223E
:0A034A0075100175110075124022B4
:0A0354007510017511007512A0224A
:0A035E007510017511007512602280
:0A03680075100175110075120022D6
:020191008D08D7
:10019300150885100985110A85120BEFC3940450C5
:1001A30006750F01EF8006750F02EF24FCC454F0AF
:1001B300F50DE4F50EE50825E024B8250EFDAF0F97
:1001C3001202AF7F647E00120303E50D2440FDAFEE
:1001D3000F1202AF7F647E00120303E4F50CAB0938
:1001E300AA0AA90B120315FDAF0F1202D57F0A7ECF
:1001F300001203037401250BF50BE4350AF50A0518
:100203000CE50CC3941040D6050EE50EC3940240D2
:01021300A446
:0102140022C7
:05037200E4FF02025E41
:10032E001202151203721203407D017F0112019118
:02033E0080FE3F
:03000000020105F5
:0C010500787FE4F6D8FD75811202014CF1
:10031500BB010689828A83E0225002E722BBFE02E6
:09032500E32289828A83E4932219
:1001110002032EE493A3F8E493A34003F68001F2D3
:1001210008DFF48029E493A3F85407240CC8C333EF
:10013100C4540F4420C8834004F456800146F6DFBE
:10014100E4800B0102040810204080900003E47E4B
:10015100019360BCA3FF543F30E509541FFEE493B3
:10016100A360010ECF54C025E060A840B8E493A37A
:10017100FAE493A3F8E493A3C8C582C8CAC583CAA5
:10018100F0A3C8C582C8CAC583CADFE9DEE780BE5D
:0101040000FA
:00000001FF
