:0B15B300900292EBF0A3EAF0A3E9F035
:1015BE00900292E0FBA3E475F001120553A9F0FA34
:1015CE0012045CFFC3942050037F0022EFC394806B
:1015DE0050037F0122900292E0FBA3E475F001120A
:1015EE000553A9F0FA12045CFEEFB48106EEC39423
:0C15FE00395004EFB482037F04227F0206
:01160A0022BD
:10000300900295EDF0900292EBF0A3EAF0A3E9F0F1
:1000130012045CFFC394804003020105EFC39420E4
:100023005010900292E0FBA3E0FAA3E0F9742012CF
:1000330004A2900292E0FBA3E0FAA3E0F912045CAD
:1000430024E0FFE434FFFEE4FCFD9002961205CBAE
:10005300900295E0B40812A3E0FCA3E0FDA3E0FE48
:10006300A3E0FFE47B080202BC900295E0B40C120B
:10007300A3E0FCA3E0FDA3E0FEA3E0FFE47B0C020E
:1000830002BC900295E0B41023E47F10FEFDFCA3B4
:10009300E0F8A3E0F9A3E0FAA3E0FB120569EF247B
:1000A300CCFFEE347FFEED341A0202EC900295E0B1
:1000B300B41822E47F30FEFDFCA3E0F8A3E0F9A32B
:1000C300E0FAA3E0FB120569E42FFFEE34FFFEED37
:1000D300341D0202EC900295E06420600302035792
:1000E3007F40FEFDFCA3E0F8A3E0F9A3E0FAA3E060
:1000F300FB120569EF2450FFEE345AFEED341E0265
:1001030002EC900292E0FBA3E0FAA3E0F912045C94
:10011300FF90029AF090000112047590029BF0EF99
:10012300C394A1401090029AE0D394AB5007A3E08C
:10013300C394A1502090029AE0FFC394A8500302F5
:10014300025BEFD394A9400302025BA3E0C394A133
:10015300400302025B90029AE0FFC394A1402EEF9A
:10016300D394AB5028A3E0FBC394A1402090029A00
:10017300E0245FFFE434FFFE7C007D5E1204D6EBD7
:10018300245FFDEC34FFCD2FFFED3E802690029BD4
:10019300E0D3947F4003E014F090029AE0FF7E00E6
:1001A3007C007D601204D6A3E02FFFEC3ECF240E2B
:1001B300CF34C4FEE4FD9002961205CB900295E085
:1001C300B40C15E47F18FEFDFCA3E0F8A3E0F9A34B
:1001D300E0FAA3E0FB020569900295E0B41022E483
:1001E3007F20FEFDFCA3E0F8A3E0F9A3E0FAA3E07F
:1001F300FB120569EF24C0FFEE34F4FEED340580F5
:100203004F900295E0B41822E47F48FEFDFCA3E082
:10021300F8A3E0F9A3E0FAA3E0FB120569EF24C019
:10022300FFEE34E5FEED340D8026900295E0B42018
:1002330024E47F80FEFDFCA3E0F8A3E0F9A3E0FA49
:10024300A3E0FB120569E42FFFEE34DFFEED340E6D
:10025300FDE43CFC2202035190029AE0FFC394B0F8
:100263004035EFD394F7502FA3E0FBC394A140276D
:1002730090029AE02450FFE434FFFE7C007D5E127E
:1002830004D6EB245FFDEC34FFCD2FFFED3EFEE4FF
:10029300FD9002961205CB900295E0B40C24A3E0E6
:1002A300FCA3E0FDA3E0FEA3E02496FFEE3402FEF0
:1002B300E43DFDE43CFCE47B18FAF9F8120569021D
:1002C3000349900295E0B41026E47F20FEFDFCA3D1
:1002D300E0F8A3E0F9A3E0FAA3E0FB120569EF2439
:1002E30080FFEE3447FEED3406FDE43CFC8057907E
:1002F3000295E0B41826E47F48FEFDFCA3E0F8A3D2
:10030300E0F9A3E0FAA3E0FB120569EF24F0FFEEA6
:10031300349FFEED340EFDE43CFC802A900295E010
:10032300B4202BE47F80FEFDFCA3E0F8A3E0F9A357
:10033300E0FAA3E0FB120569E42FFFEE342AFEED99
:100343003410FDE43CFC9002961205CB8006E4FFDA
:10035300FEFDFC22900296E0FCA3E0FDA3E0FEA3D9
:02036300E0FFB9
:010365002275
:100BF5006020000000000000000000000000000070
:100C050000000000000000000000000000000000DF
:100C15000000000060200020010101010101010127
:100C250001010101010101010000000000000000B7
:100C350000000000000000006020024F00000000DE
:100C4500FCFCFFFFFFFFFCFC0000000000000000B3
:100C5500FFFFFFFFFFFFFFFF00000000602001CF47
:100C650000000000FC040707070704FC0000000063
:100C750000000000FFFFFFFFFFFFFFFF0000000077
:100C85006020022F00000000FC040707070704FC92
:100C95000000000000000000FF808080808080FF51
:100CA50000000000602001EF00000000FC244787E1
:100CB500874724FC0000000000000000FF848281BB
:100CC500818284FF000000006020020F8080808008
:100CD500808080808080808090A0C080000000009F
:100CE5000000000000000000040201004300400075
:0A0CF50000004101AB004101AC001A
:10175700FFE025E024B8FDEE2DFD1216F87F647E2C
:011767000081
:10176800E4FDFCC3ED9FEC9E50070DBD00010C800D
:01177800F27E
:01177900224D
:0916EF007F011216F87D407F0115
:1016F800AB05AA077FC87E00121768C2A5EAB40125
:1017080009D2A0121768C2A1800BC2A07FC87E00B0
:10171800121768D2A1121768C2A4C2A3D2A5AF0338
:051728008F80C2A52224
:10165D00900306E0900300FFE0FBA3E0FAA3E0F99E
:04166D0012045CFD0A
:10167100AB05AA077FC87E00121768C2A5EAB401AC
:1016810009D2A0121768C2A1800BC2A07FC87E0038
:10169100121768D2A1121768D2A4C2A3D2A5AF03B0
:0516A1008F80C2A522AC
:05160B00900278EFF0F1
:101610007DC07F011216F87DC07F021216F8E4F932
:10162000E924B8FD1216EFE924B8FD7F021216F87E
:101630007D407F021216F8E4900279F0900278E083
:10164000FD7F01121671E0FD7F02121671A3E00406
:0C165000F0E0C3944040E509E9B408C490
:01165C00226B
:1016A600C2A27FE87E03121768D2A21217687D3F96
:1016B6007F011216F87DC07F011216F87FE87E03BF
:1016C6001217687D3F7F021216F87DC07F02121640
:1016D600F8E4FF12160B7DB81216EF7DB87F0212E2
:0916E60016F87D407F020216F89F
:0B0D0000900288EBF0A3EAF0A3E9F0FA
:100D0B00E4A3F0A3F0A37420F07D10120003900273
:100D1B008E1205CB900288E0FBA3E0FAA3E0F91258
:100D2B0015B390028CEFF0C2937F031217D390028E
:100D3B008EE0FCA3E0FDA3E0FEA3E0FF781012051C
:100D4B00B8E41217D390028EE0FCA3E0FDA3E0FE03
:100D5B00A3E0FF78081205B8E41217D390028EE0D7
:100D6B00FCA3E0FDA3E0FEA3E0FFE41217D3900287
:100D7B008CE0B4022CE490028BF090028DE0FF909B
:100D8B00028BE0C39F50601217C590028BE024AF1B
:100D9B00F582E43401F583EFF090028BE004F080F0
:100DAB00D990028CE06401703E90028BF090028D22
:100DBB00E0C313FF90028BE0C39F502B1217C5901B
:100DCB00028BE0FE25E024AFF582E43401F583EFDE
:100DDB00F0EE25E024B0F582E43401F583E4F090E5
:090DEB00028BE004F080C6D293F3
:010DF40022DC
:0811D70090027FEFF0A3EDF0A0
:1011DF00120D009002817401F0A37401F0A374AF9B
:1011EF00F090027FE0FFC3940490028750067401D1
:1011FF00F0EF80097402F090027FE024FCC454F0F9
:10120F00900285F0E4900286F0900286E0FEC3948F
:10121F0002504AA3E0900280121757900287E0FF16
:10122F00900285E02440121760E4900284F090024F
:10123F0087E09002811216647F0A7E001217689071
:10124F000282E475F00112053D900284E004F0E0A3
:0D125F00C3941040D9900286E004F080ACEA
:01126C00225F
:10153200900278EFF0A3EDF0A3EBF0A3EAF0A3E9B9
:01154200F0B8
:10154300E4A3F0A3F090027AE0FBA3E0FAA3E0F9AE
:1015530012045C605A90027DE0C3940A5051121544
:10156300B390027EEFF0900278E0FFA3E0FDA3E0EA
:10157300FBA3E0FAA3E0F91211D790027DE004F097
:1015830090027BE475F00112053D90027EE0B40207
:101593000A90027BE475F00112053D900278E004A5
:0F15A300F0E0D39407409EE4F0A3E004F08096BC
:0115B2002216
:0B09CB009002BAEBF0A3EAF0A3E9F001
:1009D600E49002C0F0A3F0A37448F07D181200035F
:1009E6009002C31205CB9002BAE0FBA3E0FAA3E0A3
:1009F600F91215B39002C1EFF0C2937F031217D319
:100A06009002C3E0FCA3E0FDA3E0FEA3E0FF7810A4
:100A16001205B8E41217D39002C3E0FCA3E0FDA3CD
:100A2600E0FEA3E0FF78081205B8E41217D390029F
:100A3600C3E0FCA3E0FDA3E0FEA3E0FFE41217D3AE
:100A46009002C1E0B40236E49002C0F09002C2E027
:100A5600FF9002C0E0C39F4003020AE11217C5904F
:100A660002BDE0FBA3E0FAA3E0F9A3E0F5827583FB
:100A760000EF1204B49002C0E004F080CF9002C1EF
:100A8600E0640170569002C0F09002C2E0C313FF0A
:100A96009002C0E0C39F50431217C59002BDE0FB11
:100AA600A3E0FAA3E0F9A3E0FE75F002A4F58285BF
:100AB600F083EF1204B49002BDE0FBA3E0FAA3E0DA
:100AC600F975F002EEA42401F582E435F0F583E42D
:0D0AD6001204B49002C0E004F080AED29390
:010AE30022F0
:08107F0090029CEFF0A3EDF0DC
:10108700E94A6020C002C0019002A1E0F9A3E0FA9A
:10109700A3E09002BDC9F0A3EAF0A3E9F0D001D024
:1010A700021209CB9002A47401F0A37400F0A37498
:1010B70043F090029CE0FFC394029002AA5006748A
:1010C70001F0EF80097402F090029CE024FE75F0B5
:1010D70018A49002A8F0E49002A9F09002A9E0FEFB
:1010E700C394035051A3E0FF90029DE075F003A461
:1010F70012175B9002AAE0FF9002A8E024401217A3
:1011070060E49002A7F09002AAE0FF9002A41216F2
:10111700657F0A7E001217689002A5E475F0011238
:10112700053D9002A7E004F0E0C3941840D8900270
:06113700A9E004F080A510
:01113D00228F
:10130200900317EFF0A3EDF0A3EBF0A3EAF0A3E94B
:01131200F0EA
:10131300E4A3F0A3F0900319E0FBA3E0FAA3E0F940
:1013230012045C606A90031CE0C3940A50611215B6
:10133300B390031DEFF0900317E0FFA3E0FD9002CD
:10134300A17401F0A37400F0A37443F0900319E0B7
:10135300FBA3E0FAA3E0F912107F90031CE004F072
:1013630090031AE475F00112053D90031DE0B402E9
:101373000A90031AE475F00112053D900317E00487
:0F138300F0E0D39404408EE4F0A3E004F0808601
:011392002238
:080FBE009002ABEFF0A3EDF08F
:100FC600E94A6020C002C0019002B0E0F9A3E0FA4D
:100FD600A3E09002BDC9F0A3EAF0A3E9F0D001D0E6
:100FE600021209CB9002B0E0F9A3E0FAA3E0A3C98C
:100FF600F0A3EAF0A3E9F09002ABE0FFC3944090BF
:1010060002B9500A7401F09002B7EFF0800A740238
:10101600F0EF24C09002B7F0E49002B8F09002B866
:10102600E0FEC394035051A3E0FF9002ACE075F0DC
:1010360003A412175B9002B9E0FF9002B7E02440C8
:10104600121760E49002B6F09002B9E0FF9002B386
:101056001216657F0A7E001217689002B4E475F0D6
:101066000112053D9002B6E004F0E0C3941840D8A2
:081076009002B8E004F080A52F
:01107E00224F
:0E0AE4009002C7EFF0A3EBF0A3EAF0A3E9F055
:100AF200E4A3F0A3F0A3EBF0A3EAF0A3E9F09002E1
:100B0200CDE0FBA3E0FAA3E0F912045C6027121522
:100B1200B39002CCEFF09002CBE004F09002CEE46E
:100B220075F00112053DBF02D59002CEE475F001C9
:100B320012053D80C99002CBE024FE600F146018BC
:100B4200240270249002D07427F0802D9002D07479
:100B52001DF0A3744AF080219002D07426F0A37491
:100B620040F0A37456F08011E49002D0F0A37422F6
:100B7200F0A37445F0A37467F0E49002CBF0900206
:100B8200C8E0FBA3E0FAA3E0F912045C60649002FF
:100B9200CBE0C39404505B1215B39002CCEFF090FB
:100BA20002CBE024D0F582E43402F583E0FF900228
:100BB200C7E0FD9002B07401F0A37400F0A3744387
:100BC200F09002C8E0FBA3E0FAA3E0F9120FBE9096
:100BD20002CBE004F09002C9E475F00112053D90E9
:100BE20002CCE0B402989002C9E475F00112053D0E
:020BF200808CF5
:010BF40022DE
:100769009002D7ECF0A3EDF09002D4EBF0A3EAF0FD
:03077900A3E9F001
:10077C00E49002D9F0A3F0A37448F07D18120003A2
:10078C009002DC1205CB9002D4E0FBA3E0FAA3E0CC
:10079C00F91215B39002DAEFF0C2937F031217D35C
:1007AC009002DCE0FCA3E0FDA3E0FEA3E0FF7810E8
:1007BC001205B8E41217D39002DCE0FCA3E0FDA311
:1007CC00E0FEA3E0FF78081205B8E41217D39002FC
:1007DC00DCE0FCA3E0FDA3E0FEA3E0FFE41217D3F2
:1007EC009002DAE06402703D9002D9F09002DBE0F6
:1007FC00FF9002D9E0C39F40030208971217C590DF
:10080C0002D9E0FD9002D8E02DFD9002D7E0340033
:10081C00FC748B2DF58274003CF583EFF09002D9BB
:10082C00E004F080C79002DAE06401705E9002D9B7
:10083C00F09002DBE0C313FF9002D9E0C39F504B52
:10084C001217C59002D7E0FCA3E0FDA3E0FE75F003
:10085C0002A42DF582E5F03CF583E582248BF5822C
:10086C00E5833400F583EFF075F002EEA42DF582EC
:10087C00E5F03CF583E582248CF582E5833400F5C4
:0D088C0083E4F09002D9E004F080A6D2933E
:01089900223C
:1005D700EF24FE700302067B1470030206AF2402A9
:1005E70060030207687B487AD89000D3E4F0A3DA67
:1005F700FC7A007B487C007D18AF03AE021204E84A
:10060700D3ED940BEC9400401874372BF5827400EB
:100617003AF583E0FF748B2BF58274003AF583EF8C
:10062700F00BBB00010AEB64904A70C97A007B901B
:100637007C007D18AF03AE021204E8C3ED940BEC07
:100647009400501874072BF58274003AF583E0FF85
:10065700748B2BF58274003AF583EFF00BBB000126
:100667000AEB64D84A70C9E4FB7A4890008BE4F03F
:10067700A3DAFC227A017B1F74FB2BF58274FF3A05
:10068700F583E0FF748B2BF58274003AF583EFF066
:10069700EB1B70011AEB64D74A70DD7B487A9090A8
:1006A70000D3E4F0A3DAFC227A007BD874432BF55D
:1006B7008274003AF583E0FF748B2BF58274003A5D
:1006C700F583EFF00BBB00010ABA01E0BB20DD7A2E
:1006D700007BD77C007D18AF03AE021204E8C3EDA0
:1006E700940BEC9400501A744F2BF58274003AF572
:1006F70083E0FF748B2BF58274003AF583EFF0806B
:100707000C748B2BF58274003AF583E4F0EB1B70C5
:10071700011AEB648F4A70BB7A007B8F7C007D18CF
:10072700AF03AE021204E8D3ED940BEC9400401A29
:10073700747F2BF58274003AF583E0FF748B2BF5F9
:100747008274003AF583EFF0800C748B2BF582747A
:10075700003AF583E4F0EB1B70011AEB64474A702B
:01076700BBD6
:01076800226E
:0E0EE6009002E0EFF0A3EBF0A3EAF0A3E9F036
:100EF400E49002E5F0A3F0A3EBF0A3EAF0A3E9F099
:100F0400A37448F0300167C2019002E1E0FBA3E062
:100F1400FAA3E0F912045C604D9002E5E0C3940486
:100F240050441215B39002E6EFF09002E5E075F03C
:100F340048A4FDACF09002E1E0FBA3E0FAA3E0F9E1
:100F44001207699002E5E004F09002E2E475F00112
:100F540012053D9002E6E0B402AF9002E2E475F0BF
:100F64000112053D80A39002E5E0FF1205D7E4904D
:100F740002E4F09002E4E0FFC39404503C9002EADF
:100F8400E08FF0A4248BF9740035F0FA9002B07469
:100F940001F0A3EAF0A3E9F09002E4E075F018A4EC
:100FA4002410FF9002E0E0FD7B007A007900120F2C
:090FB400BE9002E4E004F080BAF2
:010FBD002211
:0B0DF5009002EBEBF0A3EAF0A3E9F0A2
:100E0000E4A3F0A3F0A37420F07D1012000390027D
:100E1000F11205CB9002EBE0FBA3E0FAA3E0F9129C
:100E200015B39002EFEFF0C2937F031217D3900235
:100E3000F1E0FCA3E0FDA3E0FEA3E0FF78101205C3
:100E4000B8E41217D39002F1E0FCA3E0FDA3E0FEAA
:100E5000A3E0FF78081205B8E41217D39002F1E07E
:100E6000FCA3E0FDA3E0FEA3E0FFE41217D3900291
:100E7000EFE0B4022CE49002EEF09002F0E0FF907C
:100E800002EEE0C39F505C1217C59002EEE024AF63
:100E9000F582E43401F583EFF09002EEE004F08097
:100EA000D99002EFE06401703A9002EEF09002F007
:100EB000E0C313FF9002EEE0C39F50271217C590C6
:100EC00002EEE0FE24AFF582E43401F583EFF07426
:100ED000BF2EF582E43401F583E4F09002EEE004E5
:050EE000F080CAD2936E
:010EE50022EA
:08113E009002F5EFF0A3EDF0C3
:10114600120DF59002F77401F0A37401F0A374AFC9
:10115600F09002F6E0FFC394089002FD5006740179
:10116600F0EF80097402F09002F6E024F83333338E
:1011760054F89002FBF0E49002FCF09002FCE0FED2
:10118600C39402504BA3E09002F51217579002FD4C
:10119600E0FF9002FBE02440121760E49002FAF0B0
:1011A6009002FDE0FF9002F71216657F0A7E00129C
:1011B60017689002F8E475F00112053D9002FAE016
:1011C60004F0E0C3940840D89002FCE004F080AB41
:0111D60022F6
:1014AD0090031EEFF0A3EDF0A3EBF0A3EAF0A3E998
:0114BD00F03E
:1014BE00E4A3F0A3F0900320E0FBA3E0FAA3E0F98D
:1014CE0012045C605E900323E0C3940A505512151B
:1014DE00B3900324EFF090031FE0FF90031EE0FD96
:1014EE00900320E0FBA3E0FAA3E0F912113E900373
:1014FE0023E004F0900321E475F00112053D900302
:10150E0024E0B4020A900321E475F00112053D9027
:10151E00031EE004F0E0D3940F409AE4F0A3E0043D
:03152E00F08092B8
:011531002297
:05139300900307EDF0DE
:10139800E4FBE014F00BA3EBF0A37402F0A3740FCA
:1013A800F0EFC3940490030E50067401F0EF80062A
:1013B8007402F0EF24FCC454F090030CF0E49003A2
:1013C8000DF090030DE0FEC39402504CA3E0FF9093
:1013D800030712175890030EE0FF90030CE0244017
:1013E800121760E490030BF090030EE0FF900308DF
:1013F8001216657F0A7E00121768900309E475F0DB
:101408000112053D90030BE004F0E0C3941040D8AE
:0814180090030DE004F080AA2E
:0114200022A9
:0F177A009000407401F0A37402F0A3744FF022AA
:0F1789009000407401F0A37401F0A374CFF0221C
:0F1798009000407401F0A37402F0A3742FF022AC
:0F17A7009000407401F0A37401F0A374EFF022DE
:0F17B6009000407401F0A37400F0A37400F022BF
:05126D0090030FEDF0FD
:10127200E014F0900040E0F9A3E0FAA3E09003103C
:10128200C9F0A3EAF0A3E9F0EFC394049003165067
:10129200067401F0EF80067402F0EF24FCC454F0EF
:1012A200900314F0E4900315F0900315E0FEC3944C
:1012B20002504CA3E0FF90030F121758900316E060
:1012C200FF900314E02440121760E4900313F0909F
:1012D2000316E0FF9003101216657F0A7E001217B4
:1012E20068900311E475F00112053D900313E004C8
:0F12F200F0E0C3941040D8900315E004F080AAF8
:0113010022C9
:0817E700E49001ABF0A3F02235
:08089A009002FEEFF0A3EDF067
:1008A200E014F09001ABE0FF7007A3E070030209CF
:1008B200369003007401F0A37400F0A37400F0EF0B
:1008C200C3940490030650097401F09001ABE080D8
:1008D200097402F09001ABE024FCC454F0900304CC
:1008E200F0E4900305F0900305E0FEC39402504447
:1008F200A3E0FF9001AC121758900306E0FF9003AB
:1009020004E02440121760E4900303F012165D7FA6
:100912000A7E00121768900301E475F00112053D8A
:10092200900303E004F0E0C3941040E0900305E07C
:1009320004F080B29002FEE0FF9001ABF09002FF63
:10094200E09001ACF09003007401F0A37400F0A3F6
:100952007420F0EFC3940490030650097401F090E0
:1009620002FEE080097402F09002FEE024FCC4540E
:10097200F0900304F0E4900305F0900305E0FEC359
:1009820094025044A3E0FF9002FF1217589003060E
:10099200E0FF900304E02440121760E4900303F0A8
:1009A20012165D7F0A7E00121768900301E475F04B
:1009B2000112053D900303E004F0E0C3941040E00F
:0809C200900305E004F080B28F
:0109CA00220A
:0817EF00ED04FDD20002089A8E
:0517FE00E4FF02160BE0
:0917DE00C6C1C4BBB2E2CAD400CA
:0118030022C2
:10172D00786F7C027D017BFF7A1779DE7E007F0961
:10173D001204361217F71216A61217FE7B017A0243
:0A174D00796FE4FDFF12153280FEF3
:0717F70075CED075CDC022B4
:0B17D3008FCFE5CD30E7FB75CDC022C5
:0D17C500E4F5CFE5CD30E7FBAFCF75CDC02B
:0117D20022F4
:03000000021421C6
:0C142100787FE4F6D8FD75812002146885
:10036600E709F608DFFA8046E709F208DFFA803E79
:1003760088828C83E709F0A3DFFA8032E309F60866
:10038600DFFA8078E309F208DFFA807088828C83CE
:10039600E309F0A3DFFA806489828A83E0A3F60882
:1003A600DFFA805889828A83E0A3F208DFFA804C5C
:1003B60080D280FA80C680D4806980F28033801033
:1003C60080A680EA809A80A880DA80E280CA80339C
:1003D60089828A83ECFAE493A3C8C582C8CCC58314
:1003E600CCF0A3C8C582C8CCC583CCDFE9DEE780E4
:1003F6000D89828A83E493A3F608DFF9ECFAA9F063
:10040600EDFB2289828A83ECFAE0A3C8C582C8CCB8
:10041600C583CCF0A3C8C582C8CCC583CCDFEADED1
:10042600E880DB89828A83E493A3F208DFF980CC33
:1004360088F0EF60010E4E60C388F0ED2402B4042C
:100446000050B9F582EB2402B4040050AF232345D3
:0604560082239003B6733F
:10045C00BB010689828A83E0225002E722BBFE029E
:09046C00E32289828A83E49322D1
:10047500BB010CE58229F582E5833AF583E022503C
:1004850006E92582F8E622BBFE06E92582F8E22286
:0D049500E58229F582E5833AF583E49322A0
:1004A200BB010689828A83F0225002F722BBFE0139
:0204B200F32233
:1004B400F8BB010DE58229F582E5833AF583E8F07E
:1004C400225006E92582C8F622BBFE05E92582C82A
:0204D400F22212
:1004D600EF8DF0A4A8F0CF8CF0A428CE8DF0A42E3A
:0204E600FE22F4
:1004E800BC000BBE0029EF8DF084FFADF022E4CCF8
:1004F800F875F008EF2FFFEE33FEEC33FCEE9DECC1
:10050800984005FCEE9DFE0FD5F0E9E4CEFD22ED06
:10051800F8F5F0EE8420D21CFEADF075F008EF2F50
:10052800FFED33FD4007985006D5F0F222C398FD41
:050538000FD5F0EA22DE
:10053D00C5F0F8A3E028F0C5F0F8E5821582700249
:06054D001583E038F022E6
:10055300A3F8E0C5F025F0F0E5821582700215835B
:06056300E0C838F0E822B8
:10056900E88FF0A4CC8BF0A42CFCE98EF0A42CFC31
:100579008AF0EDA42CFCEA8EF0A4CDA8F08BF0A4AF
:100589002DCC3825F0FDE98FF0A42CCD35F0FCEB0E
:100599008EF0A4FEA9F0EB8FF0A4CFC5F02ECD39D3
:0F05A900FEE43CFCEAA42DCE35F0FDE43CFC2240
:1005B800E8600FECC313FCED13FDEE13FEEF13FF21
:0305C800D8F12245
:0C05CB00ECF0A3EDF0A3EEF0A3EFF022A3
:10142D0002172DE493A3F8E493A34003F68001F291
:10143D0008DFF48029E493A3F85407240CC8C333C0
:10144D00C4540F4420C8834004F456800146F6DF8F
:10145D00E4800B0102040810204080900BF5E47E1F
:10146D00019360BCA3FF543F30E509541FFEE49384
:10147D00A360010ECF54C025E060A840B8E493A34B
:10148D00FAE493A3F8E493A3C8C582C8CAC583CA76
:10149D00F0A3C8C582C8CAC583CADFE9DEE780BE2E
:010CFF0000F4
:00000001FF
