:10077400440279000000004102A500C101C1004407
:10078400027D000000004102A400410281004402F5
:100794007500010203440271372C21004102A300B9
:0807A4004102700041026F00E8
:011B6800225A
:101991007E01E4FD7C0174822EF582E43402F5833C
:1019A100E0D394024004EF4480FFECC39408500458
:1019B100EFC313FF0E0CECB409DC747D2DF582E44A
:0D19C1003402F583EFF0E4FF0DEDB404C730
:0119CE0022F6
:10195100E490036FF090036FE0FF7E002471F58245
:10196100E43402F583E0FD121A2590036FE0FF7E57
:1019710000121A3E90036FE02471F582E43402F5FF
:0F19810083EFF090036FE004F0E0C3940340C6DF
:011990002234
:10190A00E4900370F0900370E0FFC3940350377EB5
:10191A0000121A3E900370E0FE2471F582E434024C
:10192A00F583EFF074712EF582E43402F583E0B4A6
:10193A00FF0C74712EF582E43402F583E4F090030F
:06194A0070E004F080BF14
:011950002274
:0C1B3200300108121991121B68C2012238
:101AAD00758AD7758CFD3000069002A5E004F022F2
:1018BB0020014B30003D9002A5E0FFC3940F400A7E
:1018CB00EF941C5005E49002A4F09002A4E0248253
:1018DB00F582E43402F583EFF0E49002A5F0900278
:1018EB00A4E004F0E0B42116C200D201E4F0C2A9D6
:0F18FB00C28C22D200E49002A5F0D2A9D28C2296
:101A6D00538E7F5389F0438901758AD7758CFDC2DA
:061A7D008DD288D2A822E0
:0D1B2500E4F5C7F5C5F5C675C380F5C4220B
:101A3E0075C78375C5018FC4EEF5C375C65A75C6D5
:071A4E00A500AFC2121B2529
:011A5500226E
:101A250075C78375C5028FC4EEF5C3AF058FC27543
:091A3500C65A75C6A500021B2566
:101A830075C78375C5038FC4EEF5C375C65A75C68E
:051A9300A500021B2567
:091B4900BAECCDE2B2E2CAD4000C
:1007AC005002D63031323334353637383941424342
:0307BC004445466B
:03000B00021A0ACC
:101A0A00C0E0C0F0C083C082C0D075D008121AAD41
:0B1A1A00D0D0D082D083D0F0D0E032DA
:030003000219CF10
:1019CF00C0E0C0F0C083C082C0D075D000C000C0DE
:1019DF0001C002C003C004C005C006C0071218BB77
:1019EF00D007D006D005D004D003D002D001D0004C
:0B19FF00D0D0D082D083D0F0D0E032F6
:061B6200121A6DD2AF2241
:1016F40078A67C027D017BFF7A1B79497E007F09F5
:101704001204419002AF7430F0A3F0E4A3F0121B72
:10171400081218151200067B017A0279A6E4FDFF6F
:10172400121600121B62121B3290027FE0FFC45497
:101734000F24D6F582E43402F583E09002AFF0EF93
:10174400540F24D6F582E43402F583E09002B0F01D
:0F1754007B017A0279AF7D01E4FF12160080C796
:0B1A98007FF57E00121AA37FF57E0090
:0A1AA300EF1F70011E144E70F722B1
:101A5600AD07AC06ED1DAE0470011C4E6008121AEF
:071A660098121A9880EE228D
:0B17BD009002CCEBF0A3EAF0A3E9F0EF
:1017C8009002CCE0FBA3E475F00112055EA9F0FAE3
:1017D800120467FFC3942050037F0022EFC3948054
:1017E80050037F01229002CCE0FBA3E475F00112C4
:1017F800055EA9F0FA120467FEEFB48106EEC39401
:0C180800395004EFB482037F04227F02F9
:0118140022B1
:10000E009002CFEDF09002CCEBF0A3EAF0A3E9F072
:10001E00120467FFC394804003020110EFC39420C3
:10002E0050109002CCE0FBA3E0FAA3E0F97420128A
:10003E0004AD9002CCE0FBA3E0FAA3E0F912046752
:10004E0024E0FFE434FFFEE4FCFD9002D01205D65E
:10005E009002CFE0B40812A3E0FCA3E0FDA3E0FE03
:10006E00A3E0FFE47B080202C79002CFE0B40C12BB
:10007E00A3E0FCA3E0FDA3E0FEA3E0FFE47B0C0203
:10008E0002C79002CFE0B41023E47F10FEFDFCA364
:10009E00E0F8A3E0F9A3E0FAA3E0FB120574EF2465
:1000AE00CCFFEE347FFEED341A0202F79002CFE061
:1000BE00B41822E47F30FEFDFCA3E0F8A3E0F9A320
:1000CE00E0FAA3E0FB120574E42FFFEE34FFFEED21
:1000DE00341D0202F79002CFE06420600302036237
:1000EE007F40FEFDFCA3E0F8A3E0F9A3E0FAA3E055
:1000FE00FB120574EF2450FFEE345AFEED341E024F
:10010E0002F79002CCE0FBA3E0FAA3E0F912046739
:10011E00FF9002D4F09000011204809002D5F0EF0F
:10012E00C394A140109002D4E0D394AB5007A3E047
:10013E00C394A150209002D4E0FFC394A8500302B0
:10014E000266EFD394A94003020266A3E0C394A112
:10015E0040030202669002D4E0FFC394A1402EEF4A
:10016E00D394AB5028A3E0FBC394A140209002D4BB
:10017E00E0245FFFE434FFFE7C007D5E1204E1EBC1
:10018E00245FFDEC34FFCD2FFFED3E80269002D58F
:10019E00E0D3947F4003E014F09002D4E0FF7E00A1
:1001AE007C007D601204E1A3E02FFFEC3ECF240E15
:1001BE00CF34C4FEE4FD9002D01205D69002CFE0FB
:1001CE00B40C15E47F18FEFDFCA3E0F8A3E0F9A340
:1001DE00E0FAA3E0FB0205749002CFE0B41022E433
:1001EE007F20FEFDFCA3E0F8A3E0F9A3E0FAA3E074
:1001FE00FB120574EF24C0FFEE34F4FEED340580DF
:10020E004F9002CFE0B41822E47F48FEFDFCA3E03D
:10021E00F8A3E0F9A3E0FAA3E0FB120574EF24C003
:10022E00FFEE34E5FEED340D80269002CFE0B420D3
:10023E0024E47F80FEFDFCA3E0F8A3E0F9A3E0FA3E
:10024E00A3E0FB120574E42FFFEE34DFFEED340E57
:10025E00FDE43CFC2202035C9002D4E0FFC394B0A8
:10026E004035EFD394F7502FA3E0FBC394A1402762
:10027E009002D4E02450FFE434FFFE7C007D5E1239
:10028E0004E1EB245FFDEC34FFCD2FFFED3EFEE4E9
:10029E00FD9002D01205D69002CFE0B40C24A3E05C
:1002AE00FCA3E0FDA3E0FEA3E02496FFEE3402FEE5
:1002BE00E43DFDE43CFCE47B18FAF9F81205740207
:1002CE0003549002CFE0B41026E47F20FEFDFCA381
:1002DE00E0F8A3E0F9A3E0FAA3E0FB120574EF2423
:1002EE0080FFEE3447FEED3406FDE43CFC80579073
:1002FE0002CFE0B41826E47F48FEFDFCA3E0F8A38D
:10030E00E0F9A3E0FAA3E0FB120574EF24F0FFEE90
:10031E00349FFEED340EFDE43CFC802A9002CFE0CB
:10032E00B4202BE47F80FEFDFCA3E0F8A3E0F9A34C
:10033E00E0FAA3E0FB120574E42FFFEE342AFEED83
:10034E003410FDE43CFC9002D01205D68006E4FF8A
:10035E00FEFDFC229002D0E0FCA3E0FDA3E0FEA394
:02036E00E0FFAE
:01037000226A
:1007BF0060200000000000000000000000000000AA
:1007CF00000000000000000000000000000000001A
:1007DF000000000060200020010101010101010162
:1007EF0001010101010101010000000000000000F2
:1007FF0000000000000000006020024F0000000019
:10080F00FCFCFFFFFFFFFCFC0000000000000000ED
:10081F00FFFFFFFFFFFFFFFF00000000602001CF81
:10082F0000000000FC040707070704FC000000009D
:10083F0000000000FFFFFFFFFFFFFFFF00000000B1
:10084F006020022F00000000FC040707070704FCCC
:10085F000000000000000000FF808080808080FF8B
:10086F0000000000602001EF00000000FC2447871B
:10087F00874724FC0000000000000000FF848281F5
:10088F00818284FF000000006020020F8080808042
:10089F00808080808080808090A0C08000000000D9
:1008AF0000000000000000000402010043004000AF
:0A08BF0000004101AB004101AC0054
:0A186B00FFE025E024B8FDEE2DFD9E
:101875009002C2EFF0A3EDF07FC87E00121AA3C25A
:10188500A59002C2E0B4010DD2B77FC87E00121A3E
:10189500A3C2A1800BC2B77FC87E00121AA3D2A132
:1018A5007FC87E00121AA3C2A4C2A3D2A59002C308
:0618B500E0F580C2A5224F
:10176300900350E090034AFFE0FBA3E0FAA3E0F903
:04177300120467FDF8
:101777009002C2EFF0A3EDF07FC87E00121AA3C259
:10178700A59002C2E0B4010DD2B77FC87E00121A3D
:10179700A3C2A1800BC2B77FC87E00121AA3D2A131
:1017A7007FC87E00121AA3D2A4C2A3D2A59002C3F7
:0617B700E0F580C2A5224E
:051681009002B2EFF041
:101686007DC07F011218757DC07F02121875E49027
:1016960002B4F09002B4E0FFC394085050EF24B8AF
:1016A600FD7F011218757D407F011218759002B4F6
:1016B600E024B8FD7F021218757D407F021218756E
:1016C600E49002B3F09002B2E0FD7F01121777902A
:1016D60002B2E0FD7F021217779002B3E004F0E059
:0D16E600C3944040E09002B4E004F080A600
:0116F30022D4
:10181500C2A27FE87E03121AA3D2A27FE87E03123A
:101825001AA37D3F7F011218757DC07F01121875BF
:101835007FE87E03121AA37D3F7F021218757DC0D3
:101845007F02121875E4FF1216817DB87F01121808
:10185500757D407F011218757DB87F021218757D60
:06186500407F020218752D
:0B0D74009002C2EBF0A3EAF0A3E9F04C
:100D7F00E4A3F0A3F0A37420F07D1012000E9002F4
:100D8F00C81205D69002C2E0FBA3E0FAA3E0F91265
:100D9F0017BD9002C6EFF0C2927F03121B3E900266
:100DAF00C8E0FCA3E0FDA3E0FEA3E0FF781012056E
:100DBF00C3E4121B3E9002C8E0FCA3E0FDA3E0FEDB
:100DCF00A3E0FF78081205C3E4121B3E9002C8E0AF
:100DDF00FCA3E0FDA3E0FEA3E0FFE4121B3E9002A4
:100DEF00C6E0B4022CE49002C5F09002C7E0FF9079
:100DFF0002C5E0C39F5060121B179002C5E024AFDD
:100E0F00F582E43401F583EFF09002C5E004F08041
:100E1F00D99002C6E06401703E9002C5F09002C7FF
:100E2F00E0C313FF9002C5E0C39F502B121B179016
:100E3F0002C5E0FE25E024AFF582E43401F583EF2F
:100E4F00F0EE25E024B0F582E43401F583E4F09070
:090E5F0002C5E004F080C6D29245
:010E68002267
:081278009002B9EFF0A3EDF0C4
:10128000120D749002BB7401F0A37401F0A374AF4B
:10129000F09002B9E0FFC394049002C150067401BB
:1012A000F0EF80097402F09002B9E024FCC454F01D
:1012B0009002BFF0E49002C0F09002C0E0FEC39440
:1012C000025059A3E09002BA12186B7F647E00129C
:1012D0001AA39002C1E0FF9002BFE02440FD121863
:1012E000757F647E00121AA3E49002BEF09002C1E2
:1012F000E09002BB12176A7F0A7E00121AA39002C6
:10130000BCE475F0011205489002BEE004F0E0C3B1
:0C131000941040D99002C0E004F0809DD1
:01131C0022AE
:101600009002B2EFF0A3EDF0A3EBF0A3EAF0A3E9B0
:01161000F0E9
:10161100E4A3F0A3F09002B4E0FBA3E0FAA3E0F9A5
:10162100120467605A9002B7E0C3940A505112172E
:10163100BD9002B8EFF09002B2E0FFA3E0FDA3E09D
:10164100FBA3E0FAA3E0F91212789002B7E004F0EC
:101651009002B5E475F0011205489002B8E0B402B9
:101661000A9002B5E475F0011205489002B2E00457
:0F167100F0E0D39407409EE4F0A3E004F08096ED
:011680002247
:0B0B4A00900304EBF0A3EAF0A3E9F035
:100B5500E490030AF0A3F0A37448F07D1812000E88
:100B650090030D1205D6900304E0FBA3E0FAA3E081
:100B7500F91217BD90030BEFF0C2927F03121B3ED3
:100B850090030DE0FCA3E0FDA3E0FEA3E0FF7810D9
:100B95001205C3E4121B3E90030DE0FCA3E0FDA388
:100BA500E0FEA3E0FF78081205C3E4121B3E9003A4
:100BB5000DE0FCA3E0FDA3E0FEA3E0FFE4121B3E75
:100BC50090030BE0B40236E490030AF090030CE0C6
:100BD500FF90030AE0C39F4003020C60121B1790AD
:100BE5000307E0FBA3E0FAA3E0F9A3E0F582758330
:100BF50000EF1204BF90030AE004F080CF90030BCE
:100C0500E06401705690030AF090030CE0C313FFF3
:100C150090030AE0C39F5043121B17900307E0FBA4
:100C2500A3E0FAA3E0F9A3E0FE75F002A4F582853E
:100C3500F083EF1204BF900307E0FBA3E0FAA3E003
:100C4500F975F002EEA42401F582E435F0F583E4AC
:0D0C55001204BF90030AE004F080AED292BA
:010C6200226F
:081102009002E6EFF0A3EDF00E
:10110A00E94A6020C002C0019002EBE0F9A3E0FACC
:10111A00A3E0900307C9F0A3EAF0A3E9F0D001D055
:10112A0002120B4A9002EE7401F0A37400F0A37449
:10113A0043F09002E6E0FFC394029002F450067472
:10114A0001F0EF80097402F09002E6E024FE75F0E7
:10115A0018A49002F2F0E49002F3F09002F3E0FE99
:10116A00C394035060A3E0FF9002E7E075F003A484
:10117A0012186F7F647E00121AA39002F4E0FF90A7
:10118A0002F2E02440FD1218757F647E00121AA351
:10119A00E49002F1F09002F4E0FF9002EE12176B75
:1011AA007F0A7E00121AA39002EFE475F00112057D
:1011BA00489002F1E004F0E0C3941840D89002F39A
:0511CA00E004F0809636
:0111CF0022FD
:10145E00900361EFF0A3EDF0A3EBF0A3EAF0A3E9A4
:01146E00F08D
:10146F00E4A3F0A3F0900363E0FBA3E0FAA3E0F999
:10147F00120467606A900366E0C3940A5061121702
:10148F00BD900367EFF0900361E0FFA3E0FD9002D2
:10149F00EB7401F0A37400F0A37443F0900363E0C6
:1014AF00FBA3E0FAA3E0F9121102900366E004F047
:1014BF00900364E475F001120548900367E0B402ED
:1014CF000A900364E475F001120548900361E0048B
:0F14DF00F0E0D39404408EE4F0A3E004F08086A4
:0114EE0022DB
:081032009002F5EFF0A3EDF0D0
:10103A00E94A6020C002C0019002FAE0F9A3E0FA8E
:10104A00A3E0900307C9F0A3EAF0A3E9F0D001D026
:10105A0002120B4A9002FAE0F9A3E0FAA3E0A3C94C
:10106A00F0A3EAF0A3E9F09002F5E0FFC394409000
:10107A000303500A7401F0900301EFF0800A74022E
:10108A00F0EF24C0900301F0E4900302F090030211
:10109A00E0FEC394035060A3E0FF9002F6E075F00F
:1010AA0003A412186F7F647E00121AA3900303E050
:1010BA00FF900301E02440FD1218757F647E001240
:1010CA001AA3E4900300F0900303E0FF9002FD12DC
:1010DA00176B7F0A7E00121AA39002FEE475F001D4
:1010EA00120548900300E004F0E0C3941840D89039
:0710FA000302E004F0809600
:0111010022CB
:0E0C6300900311EFF0A3EBF0A3EAF0A3E9F089
:100C7100E4A3F0A3F0A3EBF0A3EAF0A3E9F090035F
:100C810017E0FBA3E0FAA3E0F9120467602712174B
:100C9100BD900316EFF0900315E004F0900318E403
:100CA10075F001120548BF02D5900318E475F001F3
:100CB10012054880C9900315E024FE600F146018E6
:100CC1002402702490031A7427F0802D90031A7463
:100CD1001DF0A3744AF0802190031A7426F0A374C6
:100CE10040F0A37456F08011E490031AF0A374222B
:100CF100F0A37445F0A37467F0E4900315F090033A
:100D010012E0FBA3E0FAA3E0F91204676064900328
:100D110015E0C39404505B1217BD900316EFF090D9
:100D21000315E0241AF582E43403F583E0FF900310
:100D310011E0FD9002FA7401F0A37400F0A3744372
:100D4100F0900312E0FBA3E0FAA3E0F91210329055
:100D51000315E004F0900313E475F00112054890C7
:100D61000316E0B40298900313E475F001120548EC
:020D7100808C74
:010D7300225D
:100A1900900321ECF0A3EDF090031EEBF0A3EAF0B4
:030A2900A3E9F04E
:100A2C00E4900323F0A3F0A37448F07D1812000E99
:100A3C009003261205D690031EE0FBA3E0FAA3E078
:100A4C00F91217BD900324EFF0C2927F03121B3EE4
:100A5C00900326E0FCA3E0FDA3E0FEA3E0FF7810EA
:100A6C001205C3E4121B3E900326E0FCA3E0FDA399
:100A7C00E0FEA3E0FF78081205C3E4121B3E9003CE
:100A8C0026E0FCA3E0FDA3E0FEA3E0FFE4121B3E86
:100A9C00900324E06402703D900323F0900325E062
:100AAC00FF900323E0C39F4003020B47121B1790D8
:100ABC000323E0FD900322E02DFD900321E03400A0
:100ACC00FC748B2DF58274003CF583EFF0900323BE
:100ADC00E004F080C7900324E06401705E9003236F
:100AEC00F0900325E0C313FF900323E0C39F504B0A
:100AFC00121B17900321E0FCA3E0FDA3E0FE75F0B0
:100B0C0002A42DF582E5F03CF583E582248BF58279
:100B1C00E5833400F583EFF075F002EEA42DF58239
:100B2C00E5F03CF583E582248CF582E5833400F511
:0D0B3C0083E4F0900323E004F080A6D29241
:010B49002289
:1005E200EF24FE70030206861470030206BA240288
:1005F20060030207737B487AD89000D3E4F0A3DA51
:10060200FC7A007B487C007D18AF03AE021204F333
:10061200D3ED940BEC9400401874372BF5827400E0
:100622003AF583E0FF748B2BF58274003AF583EF81
:10063200F00BBB00010AEB64904A70C97A007B9010
:100642007C007D18AF03AE021204F3C3ED940BECF1
:100652009400501874072BF58274003AF583E0FF7A
:10066200748B2BF58274003AF583EFF00BBB00011B
:100672000AEB64D84A70C9E4FB7A4890008BE4F034
:10068200A3DAFC227A017B1F74FB2BF58274FF3AFA
:10069200F583E0FF748B2BF58274003AF583EFF05B
:1006A200EB1B70011AEB64D74A70DD7B487A90909D
:1006B20000D3E4F0A3DAFC227A007BD874432BF552
:1006C2008274003AF583E0FF748B2BF58274003A52
:1006D200F583EFF00BBB00010ABA01E0BB20DD7A23
:1006E200007BD77C007D18AF03AE021204F3C3ED8A
:1006F200940BEC9400501A744F2BF58274003AF567
:1007020083E0FF748B2BF58274003AF583EFF0805F
:100712000C748B2BF58274003AF583E4F0EB1B70BA
:10072200011AEB648F4A70BB7A007B8F7C007D18C4
:10073200AF03AE021204F3D3ED940BEC9400401A13
:10074200747F2BF58274003AF583E0FF748B2BF5EE
:100752008274003AF583EFF0800C748B2BF582746F
:10076200003AF583E4F0EB1B70011AEB64474A7020
:01077200BBCB
:010773002263
:0E0F5A0090032AEFF0A3EBF0A3EAF0A3E9F076
:100F6800E490032FF0A3F0A3EBF0A3EAF0A3E9F0D9
:100F7800A37448F0300367C20390032BE0FBA3E09F
:100F8800FAA3E0F9120467604D90032FE0C39404BC
:100F980050441217BD900330EFF090032FE075F026
:100FA80048A4FDACF090032BE0FBA3E0FAA3E0F922
:100FB800120A1990032FE004F090032CE475F00155
:100FC800120548900330E0B402AF90032CE475F0AA
:100FD8000112054880A390032FE0FF1205E2E49078
:100FE800032EF090032EE0FFC39404503C9003348A
:100FF800E08FF0A4248BF9740035F0FA9002FA74AB
:1010080001F0A3EAF0A3E9F090032EE075F018A42C
:101018002410FF90032AE0FD7B007A00790012106B
:091028003290032EE004F080BABE
:01103100229C
:0B0E6900900335EBF0A3EAF0A3E9F0E2
:100E7400E4A3F0A3F0A37420F07D1012000E9003FD
:100E84003B1205D6900335E0FBA3E0FAA3E0F91288
:100E940017BD900339EFF0C2927F03121B3E9003FB
:100EA4003BE0FCA3E0FDA3E0FEA3E0FF7810120505
:100EB400C3E4121B3E90033BE0FCA3E0FDA3E0FE71
:100EC400A3E0FF78081205C3E4121B3E90033BE045
:100ED400FCA3E0FDA3E0FEA3E0FFE4121B3E9003AD
:100EE40039E0B4022CE4900338F090033AE0FF9028
:100EF4000338E0C39F505C121B17900338E024AF03
:100F0400F582E43401F583EFF0900338E004F080D7
:100F1400D9900339E06401703A900338F090033AB1
:100F2400E0C313FF900338E0C39F5027121B1790B0
:100F34000338E0FE24AFF582E43401F583EFF07466
:100F4400BF2EF582E43401F583E4F0900338E00425
:050F5400F080CAD292FA
:010F59002275
:0811D00090033FEFF0A3EDF0E6
:1011D800120E699003417401F0A37401F0A374AF77
:1011E800F0900340E0FFC394089003475006740151
:1011F800F0EF80097402F0900340E024F8333333B1
:1012080054F8900345F0E4900346F0900346E0FE5E
:10121800C39402505AA3E090033F12186B7F647E78
:1012280000121AA3900347E0FF900345E02440FD15
:101238001218757F647E00121AA3E4900344F0909C
:101248000347E0FF90034112176B7F0A7E00121AD2
:10125800A3900342E475F001120548900344E004AA
:0F126800F0E0C3940840D8900346E004F0809C67
:011277002254
:10157B00900368EFF0A3EDF0A3EBF0A3EAF0A3E97F
:01158B00F06F
:10158C00E4A3F0A3F090036AE0FBA3E0FAA3E0F974
:10159C00120467605E90036DE0C3940A50551217F5
:1015AC00BD90036EEFF0900369E0FF900368E0FDDF
:1015BC0090036AE0FBA3E0FAA3E0F91211D09003C8
:1015CC006DE004F090036BE475F001120548900394
:1015DC006EE0B4020A90036BE475F00112054890BA
:1015EC000368E004F0E0D3940F409AE4F0A3E00425
:0315FC00F08092EA
:0115FF0022C9
:0513C100900351EDF066
:1013C600E4FBE014F00BA3EBF0A37402F0A3740F9C
:1013D600F0EFC3940490035850067401F0EF8006B2
:1013E6007402F0EF24FCC454F0900356F0E490032A
:1013F60057F0900357E0FEC39402505BA3E0FF90C2
:10140600035112186C7F647E00121AA3900358E0F1
:10141600FF900356E02440FD1218757F647E00128B
:101426001AA3E4900355F0900358E0FF900352127C
:10143600176B7F0A7E00121AA3900353E475F0011E
:10144600120548900355E004F0E0C3941040D8908C
:071456000357E004F0809B46
:01145D00226C
:0F1ABD009000407401F0A37402F0A3744FF02264
:0F1ACC009000407401F0A37401F0A374CFF022D6
:0F1ADB009000407401F0A37402F0A3742FF02266
:0F1AEA009000407401F0A37401F0A374EFF02298
:0F1AF9009000407401F0A37400F0A37400F02279
:05131D00900359EDF002
:10132200E014F0900040E0F9A3E0FAA3E090035A41
:10133200C9F0A3EAF0A3E9F0EFC39404900360506C
:10134200067401F0EF80067402F0EF24FCC454F03E
:1013520090035EF0E490035FF090035FE0FEC394BD
:1013620002505BA3E0FF90035912186C7F647E0069
:10137200121AA3900360E0FF90035EE02440FD1286
:1013820018757F647E00121AA3E490035DF0900347
:1013920060E0FF90035A12176B7F0A7E00121AA3B5
:1013A20090035BE475F00112054890035DE004F0E0
:0E13B200E0C3941040D890035FE004F0809BED
:0113C000220A
:081B5200E49001ABF0A3F022C6
:0808CA00900348EFF0A3EDF0EC
:1008D200E014F09001ABE0FF7007A3E0700302099F
:1008E2007590034A7401F0A37400F0A37400F0EF52
:1008F200C3940490035050097401F09001ABE0805E
:10090200097402F09001ABE024FCC454F090034E51
:10091200F0E490034FF090034FE0FEC39402505373
:10092200A3E0FF9001AC12186C7F647E00121AA340
:10093200900350E0FF90034EE02440FD1218757FB3
:10094200647E00121AA3E490034DF01217637F0A2B
:100952007E00121AA390034BE475F0011205489031
:10096200034DE004F0E0C3941040E090034FE00434
:10097200F080A3900348E0FF9001ABF0900349E0C0
:100982009001ACF090034A7401F0A37400F0A374D8
:1009920020F0EFC3940490035050097401F09003C7
:1009A20048E080097402F0900348E024FCC454F04B
:1009B20090034EF0E490034FF090034FE0FEC39497
:1009C200025053A3E0FF90034912186C7F647E002B
:1009D200121AA3900350E0FF90034EE02440FD1250
:1009E20018757F647E00121AA3E490034DF012176B
:1009F200637F0A7E00121AA390034BE475F0011282
:100A0200054890034DE004F0E0C3941040E09003E9
:060A12004FE004F080A398
:010A180022BB
:081B5A00ED04FDD2020208CAED
:05000600E4FF02168179
:0F1B0800E5A254F34408F5A275CED075CDC022E6
:0B1B3E008FCFE5CD30E7FB75CDC02256
:0D1B1700E4F5CFE5CD30E7FBAFCF75CDC0D5
:011B2400229E
:030000000214EFF8
:0C14EF00787FE4F6D8FD758120021536E8
:10037100E709F608DFFA8046E709F208DFFA803E6E
:1003810088828C83E709F0A3DFFA8032E309F6085B
:10039100DFFA8078E309F208DFFA807088828C83C3
:1003A100E309F0A3DFFA806489828A83E0A3F60877
:1003B100DFFA805889828A83E0A3F208DFFA804C51
:1003C10080D280FA80C680D4806980F28033801028
:1003D10080A680EA809A80A880DA80E280CA803391
:1003E10089828A83ECFAE493A3C8C582C8CCC58309
:1003F100CCF0A3C8C582C8CCC583CCDFE9DEE780D9
:100401000D89828A83E493A3F608DFF9ECFAA9F057
:10041100EDFB2289828A83ECFAE0A3C8C582C8CCAD
:10042100C583CCF0A3C8C582C8CCC583CCDFEADEC6
:10043100E880DB89828A83E493A3F208DFF980CC28
:1004410088F0EF60010E4E60C388F0ED2402B40421
:100451000050B9F582EB2402B4040050AF232345C8
:0604610082239003C17329
:10046700BB010689828A83E0225002E722BBFE0293
:09047700E32289828A83E49322C6
:10048000BB010CE58229F582E5833AF583E0225031
:1004900006E92582F8E622BBFE06E92582F8E2227B
:0D04A000E58229F582E5833AF583E4932295
:1004AD00BB010689828A83F0225002F722BBFE012E
:0204BD00F32228
:1004BF00F8BB010DE58229F582E5833AF583E8F073
:1004CF00225006E92582C8F622BBFE05E92582C81F
:0204DF00F22207
:1004E100EF8DF0A4A8F0CF8CF0A428CE8DF0A42E2F
:0204F100FE22E9
:1004F300BC000BBE0029EF8DF084FFADF022E4CCED
:10050300F875F008EF2FFFEE33FEEC33FCEE9DECB5
:10051300984005FCEE9DFE0FD5F0E9E4CEFD22EDFB
:10052300F8F5F0EE8420D21CFEADF075F008EF2F45
:10053300FFED33FD4007985006D5F0F222C398FD36
:050543000FD5F0EA22D3
:10054800C5F0F8A3E028F0C5F0F8E582158270023E
:060558001583E038F022DB
:10055E00A3F8E0C5F025F0F0E58215827002158350
:06056E00E0C838F0E822AD
:10057400E88FF0A4CC8BF0A42CFCE98EF0A42CFC26
:100584008AF0EDA42CFCEA8EF0A4CDA8F08BF0A4A4
:100594002DCC3825F0FDE98FF0A42CCD35F0FCEB03
:1005A4008EF0A4FEA9F0EB8FF0A4CFC5F02ECD39C8
:0F05B400FEE43CFCEAA42DCE35F0FDE43CFC2235
:1005C300E8600FECC313FCED13FDEE13FEEF13FF16
:0305D300D8F1223A
:0C05D600ECF0A3EDF0A3EEF0A3EFF02298
:1014FB000216F4E493A3F8E493A34003F68001F2FD
:10150B0008DFF48029E493A3F85407240CC8C333F1
:10151B00C4540F4420C8834004F456800146F6DFC0
:10152B00E4800B0102040810204080900774E47ED5
:10153B00019360BCA3FF543F30E509541FFEE493B5
:10154B00A360010ECF54C025E060A840B8E493A37C
:10155B00FAE493A3F8E493A3C8C582C8CAC583CAA7
:10156B00F0A3C8C582C8CAC583CADFE9DEE780BE5F
:0108C900002E
:00000001FF
