:0D17D700E4F5C7F5C5F5C675C380F5C4225D
:10174A0075C78375C5018FC48EC375C65A75C6A57C
:06175A0000AFC21217D718
:011760002266
:1017610075C78375C5028FC48EC38DC275C65A7580
:06177100C6A5000217D717
:10000E0075C78375C5038FC48EC375C65A75C6A5CD
:04001E00000217D7EE
:10101E00B5D8D6B7C9E8D6C300B5C6BCDCC9E8D6C4
:10102E00C300BAECCDE2C9E8D6C300B2C9BCAFBCAE
:10103E00E4B8F400CFC2BEAEA3BA00B3E4B5E7A3E2
:10104E00BA00B3E4C2FAA3BA00B5C6BCDC00C9E864
:10105E00D6C30000000000000000000000000000E9
:10106E000000000000000000000000000000000072
:0B107E00000000000000000000000067
:10004600016E00016801017500016C000165000187
:1000560066000171FF017000016F00016900027BFB
:10006600000002730000C107C104C105C100C10937
:10007600C10DC10CC10646018B00000000000060E6
:10008600C60065000000000000000000000000003F
:10009600000000000000000000000000000000005A
:1000A600000000000000000000000000000000004A
:1000B600000000000000000000000000000000003A
:1000C600000000000000000000000000000000002A
:1000D600000000000000000000000000000000001A
:1000E600000000000000000000000000000000000A
:1000F60000000000000000000000000000000000FA
:1001060000000000000000000000000000000000E9
:1001160000000000000000000000000000000000D9
:1001260000000000000000000000000000000000C9
:1001360000000000000000000000000000000000B9
:10014600000000000000000000016D004C017FFF70
:10015600101EFF1027FF1030FF10396190020800B3
:100166000000000000000000000000000000000089
:100176000000000000000000000000000000000079
:100186000000000000000000000000000000000069
:100196000000000000000000000000000000000059
:1001A6000000000000000000000000000000000049
:1001B6000000000000000000000000000000000039
:1001C6000000000000000000000000000000000029
:1001D6000000000000000000000000000000000019
:1001E6000000000000000000000000000000000009
:1001F60000000000000000000000000000000000F9
:1002060000000000000000000000000000000000E8
:1002160000000000000000000000000000000000D8
:1002260000000000000000000000000000000000C8
:1002360000000000000000000000000000000000B8
:1002460000000000000000000000000000000000A8
:100256000000000000000000000000000000000098
:100266000000000000000000000000000000000088
:100276000000000000000000000000000000000078
:100286000000000000000000000000000000000068
:100296000000000000000000000000000000000058
:1002A6000000000000000000000000000000000048
:1002B6000000000000000000000000000000000038
:1002C6000000000000000000000000000000000028
:1002D6000000000000000000000000000000000018
:1002E6000000000000000000000000000000000107
:1002F6006705016314017700440191000000004482
:10030600019F0000000044019500000000017200FA
:05031600C108017A009E
:1015F200EF24FFFFE434FFFE7C007D141207988F76
:1016020071EF139294EFC313139295EF1313543F98
:0C161200139296EF131313541F139297BA
:01161E0022A9
:10171800D2B78F9BE59A30E1FB539AFD8D9BE59AF2
:0917280030E1FB539AFDC2B72227
:10167400B2B3D2B7EFC4540F4DF59BE59A30E1FBFA
:10168400539AFDEF540F4DF59BE59A30E1FB539AC5
:04169400FDC2B722BA
:10178B00B2B3D2B78F9BE59A30E1FB539AFDC2B748
:01179B00222B
:0300400002178B19
:1011FD00E5796403604EE568D39563502FC2B3E57E
:10120D006A8563F0A42568F56BC28CE4F5AFAF6B0E
:10121D001215F2AD6B7F8012171875AF01200D06F8
:10122D00758AD7758CFDE4F576D28C22056AE56A50
:10123D00B57703E4F56AD20CE4F579756801D2B39C
:05124D00D2B4D28C2296
:0500060005680211FD78
:03004300020E4C5E
:100E4C00C0E0C0F0C083C082C0D075D000C000C06C
:070E5C0004C005C006C00739
:100E6300E59A30E03E539AFEAF9BE5796401703317
:100E7300C2B4EF54F064506013E570C3940A500792
:100E830005701211FD801C7570008014756F00EFE2
:100E9300540FFF7400256BF582E43400F583EFF003
:0D0EA300120006E59A30E105539AFDC2B732
:100EB000D007D006D005D004D000D0D0D082D083C7
:050EC000D0F0D0E0328B
:101698009003C0E09001A3F07F019003C1E0FEEF4A
:1016A800D39E500F74A32FF582E43401F583E4F040
:0316B8000F80E7B9
:0116BB00220C
:0D17E400E59954E0FFBF8003D38001C322CC
:0D17F100E59954E0FFBFA003D38001C3229F
:0D17FE00E59954E0FFBFC003D38001C32272
:0D180B00E59954E0FFBFE003D38001C32244
:1012A70020030DD2B67599803099FDC299C2B62236
:1012B700C203D2B69001A3E0F5993099FDC299C255
:1012C700B67F019003C1E0FEEFD39E501DB290D2CE
:1012D700B674A32FF582E43401F583E04450F59901
:0E12E7003099FDC299C2B60F80D9D203D290C1
:0112F50022D6
:09185E00D2B78579757579032272
:0C181800857579E579B401031211FD22F9
:100B0500E4FF0F242BF582E43401F583E0540FC490
:100B150054F0FA0F742B2401F582E43401F583E0D7
:100B2500540F2AFAE4FEE4FBAD070F742B2DF58272
:100B3500E43401F583E0540FC454F0FDEE75F0087C
:100B4500A42467F582E43401F583E5822BF582E47C
:100B55003583F583EDF0AD070F742B2DF582E43465
:100B650001F583E0540FFDEE75F008A42467F582C6
:100B7500E43401F583E5822BF582E43583F583E0E2
:100B85002DF00BBB08A20EBE039C12185EAF02121D
:100B950015F2AD027FC0121718E4FEE4FBEE75F006
:100BA50008A42467F582E43401F583E5822BF582F8
:100BB500E43583F583E0FF7D601216740BBB08DD19
:070BC5000EBE03D702181851
:1010EB007F007E0212000EE4F5109003C2E0FFE5D4
:1010FB0010C39F5046E4F511E51075F020A42400B1
:10110B00FFE5F03403FE7C00EF2511FFEC3EFEE51E
:10111B001075F021A42465F582E43400F583E58293
:10112B002511F582E43583F583E0FD121761051176
:0B113B00E511C3942040C1051080AFF7
:011146002286
:06186E0012151D0210EB33
:0718670085797575790422F3
:0C182400857579E579B401031211FD22ED
:10134400E4FDFCF510F511C28CF5AFC2AC7F65125B
:1013540015F27FF01200407F0112178B7F031217E2
:101364008B7F0512178BE4FCFD74082DF582740243
:101374003CF583E0FF12178B0DBD00010CBC01E9A5
:0C138400BD90E6D2B3D28C75AF01D2ACA4
:01139000223A
:100BCC007F029003C2E56DF00F74082402F582E4F5
:100BDC003402F583E0540FC454F0FE0F7408240360
:100BEC00F582E43402F583E0540F2EFEE4FD90030D
:100BFC00C2E0FCEDC39C5063E4FCAB070F74082B04
:100C0C00F582E43402F583E0540FC454F0FBED7527
:100C1C00F021A42465F582E43400F583E5822CF5FB
:100C2C0082E43583F583EBF0AB070F74082BF58268
:100C3C00E43402F583E0540FFBED75F021A4246538
:100C4C00F582E43400F583E5822CF582E43583F5F6
:100C5C0083E02BF00CBC20A20D80939003C3EEF02C
:100C6C009003C5E07005D21312139112186E12186E
:070C7C006712134402182463
:03002300020813BD
:10081300C0E0C0F0C083C082C0D075D000C000C0AB
:1008230002C003C004C005C006C007209803020924
:1008330095C2981217E4500675780502099A1217A3
:10084300F15020E599541FFF9003C0E0B5071475DC
:100853007808C28CC2AC1212A7757800D28CD2ACC5
:1008630002099A1217FE5017E599541FFF9003C00F
:10087300E0B5070B757809B2A7756C0002099A12E7
:10088300180B5014E599541FFF9003C0E0B50708F7
:1008930075780BB2A702099AE578B4050EE599B409
:1008A300010675780602099A020941E578B4060E35
:1008B300E599B4030675780702099A020941E578B8
:1008C300B40716E599B4050F757804757B00757C3C
:1008D30000756D0002099A8065E57864047051B271
:1008E30091057CE57CAE7B7002057B142408F582C0
:1008F30074023EF583E599F0E57C6402457B700D57
:10090300900208E0C45400FFA3E02FF56DE56D7578
:10091300F020A42402FFE435F0FEEF25E0FFEE33E0
:10092300FEC3E57C9FE57B9E406DD291D205806737
:10093300E57864097033E59954F06460600575786F
:10094300008054AF6C056C742B2FF582E43401F5F1
:1009530083E599F0E56CC39432403CB2A7C28C7531
:10096300AF00C2AC120B05801BE578640B7028C284
:100973008CF5AFC2AC859969AF691215F2AD697F89
:10098300E0121718757800D2B3D28C75AF01D2ACD0
:100993008005309902C299D007D006D005D004D083
:1009A30003D002D000D0D0D082D083D0F0D0E032B8
:10161F009003C0E075F06484E5F0F0E0FE75F00A29
:10162F00842430F510EE75F00A84E5F02430F511BE
:0B163F00E4F512FB7A0079100211A202
:07114700E0FF7B01751403BA
:06114E008B118A128913C7
:10115400E4FEEEC395145013AB11AA12A9138E82A8
:1011640075830074301207760E80E7EF601F75F008
:101174000A84E5F02430AB11AA12A9131E8E8275DD
:101184008300120776EF75F00A84FF80DEAB11AAA4
:0D11940012A913851482758300E4120776FA
:0111A100222B
:100EC5002010757BFF7A1079427D01E4FF1211A293
:100ED5007BFF7A1079497D02E4FF1211A27BFF7A2C
:100EE5001079507D03E4FF1211A290018C7A0179EB
:100EF500911211477D017F041211A290018D7A0193
:100F0500799F1211477D027F041211A290018EE094
:100F1500FF7B017A01799575140312114E7D037FCC
:100F2500041211A27BFF7A1079577D047F051211F7
:090F3500A27D047F0712161F22A1
:0809B3008B108A1189128D13CB
:1009BB00E4F515F516F517F518F519F51A78987C71
:1009CB00037D017BFF7A107961FE7F2812070AE411
:1009DB00F514E514C395134003020ADFE5187064A0
:1009EB00AB10AA11A912851482F583120749FF30A7
:1009FB00E752E519AE1630E0290516E51575F00A34
:100A0B00A42498F582E43403F583E5822EF582E481
:100A1B003583F5837420F00517051AE4F5191514C1
:100A2B00805E0516E51575F00AA42498F582E4346A
:100A3B0003F583E5822EF582E43583F583EFF075BC
:100A4B001801803CE51870020519AB10AA11A91208
:100A5B00851482758300120749FFAE160516E5153E
:100A6B0075F00AA42498F582E43403F583E5822E0D
:100A7B00F582E43583F583EFF00517E4F518051AD5
:100A8B00E51AB5131CE51575F00AA42498F582E454
:100A9B003403F583E5822516F582E43583F583E48B
:100AAB00F0E517B40422E51575F00AA42498F58235
:100ABB00E43403F583E5822516F582E43583F5836B
:100ACB00E4F00515F516F517E515C3940450050567
:100ADB00140209DDE4F514E51475F00AA42498F961
:100AEB00740335F0FA7B01E51404FDE4FF1211A247
:090AFB000514E514C3940440DE67
:010B040022CE
:1013910020104812179C9003C2E0FFD3940040270D
:1013A100301305E4F564800A0564E5648FF08485F3
:1013B100F064E56475F021A42465F9740035F0FA50
:1013C1007B017D201209B37BFF7A1079577D047F61
:0C13D100051211A27D047F0712161F22D6
:1016FA00300E1AC20ED21012179C7BFF7A10795C38
:0E170A007D017F031211A21217AC753201226D
:030003000214E202
:1014E200C0E0C0F0C083C082C0D075D000C000C0D0
:1014F20001C002C003C004C005C006C00712158E99
:10150200D007D006D005D004D003D002D001D0003D
:0B151200D0D0D082D083D0F0D0E032E7
:03000B00020C8361
:100C8300C0E0C0F0C083C082C0D075D0081218483D
:100C9300AF720572EFD394535003020D1D757200AA
:100CA30020071E056E9003C3E075F014A4FFC3E58F
:100CB3006E9FE5F06480F87480984005756E00D2ED
:100CC30007E5796401702B05769003C4E0657670BF
:100CD30049056FE56FD3940440137400256BF582C7
:100CE300E43400F5837405F0120006802D1211FD23
:100CF3008028E57970240574E57470020573E5674F
:100D030075F002A4FFC3E5749FE57395F0400B757E
:100D13007300757400D204756801D0D0D082D0837B
:050D2300D0F0D0E03229
:1012F600C2B6D2B7438901758AD7758CFDD2A9D2F9
:101306008C759850438920758DFD758BFDD28E5353
:101316008EF7759A50759CDC438E04438E1075AF1C
:101326000130B504D2128002C21212108975B710AC
:0E13360075B810D2ACD288D2A8D2AFC20222B3
:0E17BB009003C1E08563F084F577E4F56A22BF
:10125200E4F5109003C2E0FFE510C39F5046E4F5A9
:1012620011E51075F020A42400FFE5F03403FE7CA4
:1012720000EF2511FFEC3EFE12174AE51075F02132
:10128200A42465F582E43400F583E5822511F58214
:10129200E43583F583EFF00511E511C3942040C1D5
:0412A200051080AF04
:0112A6002225
:061874001213DD02125206
:100D28007F01748B2FF582E43401F583E0FE74991A
:100D38002FF582E43401F583EEF00FBF04E4E4906C
:100D48000190F090018FF090018EF090018DF0905D
:100D5800018CF090018BF07F019003C1E0FEEFD38E
:100D68009E502874002FF582E43400F583E0FE7469
:100D7800A32FF582E43401F583EEF0748B2EF5820F
:100D8800E43401F583E004F00F80CE90018BEFF09E
:100D9800A3E0FF90019AE0B5071B90018DE0FF905A
:100DA800019BE0B5070F90018EE0FF90019CE0B534
:070DB8000703C20822D20864
:010DBF002211
:1014270030083B75790AC28CE4F5AF7F791215F263
:101437007F801200409003C0E0FF12178B90018C51
:10144700E0FF12178BA3E0FF12178BA3E0FF121721
:0F1457008B7FFF12004075AF01D28CE4F5792234
:100FB2001212F61218741217BB1216989003C5E09B
:100FC2007007D213121391800312179C75C13FD27E
:100FD20003D201D20BD20A30040CC204C20B7579BF
:100FE200011211FDD20B300C08C20C120D28121482
:100FF20027300508C205E4F578120BCC9003C5E052
:10100200700C30070CC207C2131213918003120E28
:0C101200C51216FA12183C75C13F80B3DD
:08031B00C192017D00017E008A
:10177700301210C2A0D2A1D2A27580FFE58020E767
:04178700FBC2A222DD
:1016BC0030121B121777C2A0C2A1D2A28F807F0555
:0F16CC007E00121854C2A27F057E00121854220D
:1016DB0030121B121777D2A0C2A1D2A28F807F0526
:0F16EB007E00121854C2A27F057E0012185422EE
:1011A2008F1B8B1C8A1D891E30124FED24FE60108E
:1011B2001460131460162403701AE51B2480801037
:1011C200E51B2490800AE51B24888004E51B2498F3
:1011D200FF1216BCAB1CAA1DA91E120730FFD39426
:1011E2000040171216DB7401251EF51EE4351DF5AD
:0B11F2001D7F327E0012185480DA22AC
:1010890030125E7F287E00121731D2A37F017E00C5
:10109900121731C2A47F017E00121731D2A47F0A30
:1010A9007E001217317F301216BC7F327E00121873
:1010B900547F301216BC7F147E001218547F0C1214
:1010C90016BC7F327E001218547F011216BC7F0FA6
:1010D9007E001217317F061216BC7F327E0012186D
:0210E90054228F
:1014A5008F118B12301235ED24FE60101460131469
:1014B50060162403701AE51124808010E51124902C
:1014C500800AE51124888004E5112498FF1216BCD2
:0D14D500AF121216DB7F327E001218542277
:100F3E008F108D1130126CE57D7004E57E602FE50B
:100F4E007E24FE60101460131460162403701AE5DC
:100F5E007D24808010E57D2490800AE57D248880A4
:100F6E0004E57D2498FF1216BC7F201216DB851037
:100F7E007D85117EE51124FE601014601314601639
:100F8E002403701AE51024808010E5102490800A46
:100F9E00E51024888004E5102498FF1216BC7F1EED
:040FAE001216DB221A
:0C183000301208ED04FDD213120F3E220E
:10179C0030120C7F011216BC7F0F7E001217312203
:0A185400EF1F70011E144E70F72202
:10173100AD07AF051DEF60107FF57E001218547FD5
:09174100F57E0012185480EA2222
:10146600B5D8D6B7C9E8D6C300B3E4B5E7CEBBC195
:10147600BF00CFFBCFA2C1BF00C7D0BBBBCAB1BCA8
:10148600E400D1B2BCECB3ACCAB100B5F7CAD40023
:0F149600C9E8D6C300C9E8D6C3CDEAB1CF21005B
:100323000324000000072B0000000000000001561A
:1003330000C110C111C10FC10E01550001320046A9
:1003430003CC0001020304054603C00000000000C3
:10035300004603C60064000A01000C571466146FBC
:0E0363001478147F14881491015400012300B3
:0F17AC00D20D758AD7758CFDC28DD2A9D28C2231
:0E17C900300D0AC20D758AD7758CFDD28C22A8
:101558008F1012179C7BFF7A1479967D017F0312F6
:1015680011A2E51025E02457F8E6FE08E6AA06F9D8
:101578007BFF7D027F021211A23013097B1A7D02C4
:061588007F011214A522F0
:10164A00E5242430F52B752C20E5252430F52D755D
:10165A002E20E5262430F52F753020E4F531FB7A6B
:0A166A0000792B7D037F030211A21B
:10037200E5291207ED055A0705E00803B80905B09B
:100382000C051C15059D1605C21805EF1C04AB4093
:10039200060D4204E044045A4503AE46062A4A06C4
:1003A2001C5205FE5A05D15E00000639E532600393
:1003B200020639D20E22E532B40109753202E4F5A1
:1003C20054020570E53264027042753203F523D29D
:1003D20013AF5412155874C02554F582E43403F552
:1003E20083E0FF75F06484F524EF75F06484E5F032
:1003F20075F00A84F52574C02554F582E43403F5BA
:1004020083E075F00A8485F026020636E53264033D
:100412007002807AE53264046003020639E55464AE
:10042200067003020639E52575F00AA4FFE5247576
:10043200F064A42F2526FF74C02554F582E434030A
:10044200F583EFF012151D7BFF7A14799B7D047FF3
:10045200021211A275320522E53264026005E5320C
:10046200B4010CE4F5321217C912179CC21022E52E
:1004720032B40306753202020570E532B404067521
:100482003202020570E532640560030206397532F4
:1004920004C213AF541215587B1A7D037F02121443
:1004A200A512164AE4F5238067E532B40214E55436
:1004B2002401FFE433FE7C007D061207988D54026E
:1004C2000570E53264046003020639E5232401FF66
:1004D200E433FE7C007D031207988D238032E532DF
:1004E200B40213E5542405FFE433FE7C007D0612BA
:1004F20007988D548078E53264046003020639E57A
:10050200232402FFE433FE7C007D031207988D232F
:10051200E5232403FF7D03021830E532B40213E51C
:10052200542401FFE433FE7C007D061207988D54AB
:10053200803CE5326404600302063974242523F802
:10054200E62401FFE433FE7C007D0A12079874243E
:100552002523F8A605020636E532B40218E554242E
:1005620005FFE433FE7C007D061207988D54D213FA
:10057200AF54021558E5326404600302063974244C
:100582002523F8E62409FFE433FE7C007D0A1207E6
:100592009874242523F8A605020636E53264046021
:1005A2000302063974242523F8E4F6020636E532FE
:1005B2006404600302063974242523F876018074EA
:1005C200E5326404707174242523F876028065E5AF
:1005D200326404706274242523F876038056E5326F
:1005E2006404705374242523F876048047E532644A
:1005F20004704474242523F876058038E5326404B7
:10060200703574242523F876068029E53264047057
:100612002674242523F87607801AE532B404187468
:10062200242523F87608800CE532B4040A742425C4
:0806320023F8760912164A2292
:1015C3007E01E4FD7C0174332EF8E6D394024003DC
:1015D300430780ECC394085004EFC313FF0E0CBC05
:0E15E30009E474272DF8A607E4FF0DBD04D619
:0115F10022D7
:10151D00E4FFFE12000EE4F510AF107E0074C0253E
:10152D0010F582E43403F583E0FD121761AF107EF0
:10153D000012174A74C02510F582E43403F583EFC9
:0A154D00F00510E510C3940640CF2E
:011557002271
:1013DD00E4F510AF107E0012174A74C02510F58287
:1013ED00E43403F583EFF074C02510F582E4340383
:1013FD00F583E0B4FF1A74C62510F582E43403F5C5
:10140D0083E0FF74C02510F582E43403F583EFF01B
:09141D000510E510C3940640BA65
:0114260022A3
:0C183C003011081215C3120372C21122F1
:0C184800758AD7758CFD300F0205562202
:10158E00201131300F29E556C3940F4009E55694CA
:10159E001C5003E4F55574332555F8A656E4F5565C
:1015AE000555E555B4210DC20FD211E4F55522D2E1
:0515BE000FE4F55622C8
:10002600538E7F5389F0438901758AD7758CFDC23B
:0A0036008DD2A9D28CD288D2A82264
:03000000020DC02E
:0C0DC000787FE4F6D8FD75817E020E07F6
:10063A00E709F608DFFA8046E709F208DFFA803EA2
:10064A0088828C83E709F0A3DFFA8032E309F6088F
:10065A00DFFA8078E309F208DFFA807088828C83F7
:10066A00E309F0A3DFFA806489828A83E0A3F608AB
:10067A00DFFA805889828A83E0A3F208DFFA804C85
:10068A0080D280FA80C680D4806980F2803380105C
:10069A0080A680EA809A80A880DA80E280CA8033C5
:1006AA0089828A83ECFAE493A3C8C582C8CCC5833D
:1006BA00CCF0A3C8C582C8CCC583CCDFE9DEE7800D
:1006CA000D89828A83E493A3F608DFF9ECFAA9F08C
:1006DA00EDFB2289828A83ECFAE0A3C8C582C8CCE2
:1006EA00C583CCF0A3C8C582C8CCC583CCDFEADEFB
:1006FA00E880DB89828A83E493A3F208DFF980CC5D
:10070A0088F0EF60010E4E60C388F0ED2402B40455
:10071A000050B9F582EB2402B4040050AF232345FC
:06072A00822390068A7391
:10073000BB010689828A83E0225002E722BBFE02C7
:09074000E32289828A83E49322FA
:10074900BB010CE58229F582E5833AF583E0225065
:1007590006E92582F8E622BBFE06E92582F8E222AF
:0D076900E58229F582E5833AF583E49322C9
:10077600F8BB010DE58229F582E5833AF583E8F0B9
:10078600225006E92582C8F622BBFE05E92582C865
:02079600F2224D
:10079800BC000BBE0029EF8DF084FFADF022E4CC45
:1007A800F875F008EF2FFFEE33FEEC33FCEE9DEC0E
:1007B800984005FCEE9DFE0FD5F0E9E4CEFD22ED54
:1007C800F8F5F0EE8420D21CFEADF075F008EF2F9E
:1007D800FFED33FD4007985006D5F0F222C398FD8F
:0507E8000FD5F0EA222C
:1007ED00D083D082F8E4937012740193700DA3A39B
:1007FD0093F8740193F5828883E4737402936860AF
:06080D00EFA3A3A380DFAE
:100DCC00020FB2E493A3F8E493A34003F68001F27C
:100DDC0008DFF48029E493A3F85407240CC8C33328
:100DEC00C4540F4420C8834004F456800146F6DFF7
:100DFC00E4800B0102040810204080900046E47E41
:100E0C00019360BCA3FF543F30E509541FFEE493EB
:100E1C00A360010ECF54C025E060A840B8E493A3B2
:100E2C00FAE493A3F8E493A3C8C582C8CAC583CADD
:100E3C00F0A3C8C582C8CAC583CADFE9DEE780BE95
:01037100008B
:00000001FF
