:0B1ACE009002EAEBF0A3EAF0A3E9F0BD
:101AD9009002EAE0FBA3E475F0011208B2A9F0FA5A
:101AE9001207BBFFC3942050037F0022EFC39480E9
:101AF90050037F01229002EAE0FBA3E475F0011292
:101B090008B2A9F0FA1207BBFEEFB48106EEC3943E
:0C1B1900395004EFB482037F04227F02E5
:011B2500229D
:10000E009002EDEDF09002EAEBF0A3EAF0A3E9F036
:10001E001207BBFFC394804003020110EFC394206C
:10002E0050109002EAE0FBA3E0FAA3E0F97420126C
:10003E0008019002EAE0FBA3E0FAA3E0F91207BB85
:10004E0024E0FFE434FFFEE4FCFD9002EE12092AE8
:10005E009002EDE0B40812A3E0FCA3E0FDA3E0FEE5
:10006E00A3E0FFE47B080202C79002EDE0B40C129D
:10007E00A3E0FCA3E0FDA3E0FEA3E0FFE47B0C0203
:10008E0002C79002EDE0B41023E47F10FEFDFCA346
:10009E00E0F8A3E0F9A3E0FAA3E0FB1208C8EF240E
:1000AE00CCFFEE347FFEED341A0202F79002EDE043
:1000BE00B41822E47F30FEFDFCA3E0F8A3E0F9A320
:1000CE00E0FAA3E0FB1208C8E42FFFEE34FFFEEDCA
:1000DE00341D0202F79002EDE06420600302036219
:1000EE007F40FEFDFCA3E0F8A3E0F9A3E0FAA3E055
:1000FE00FB1208C8EF2450FFEE345AFEED341E02F8
:10010E0002F79002EAE0FBA3E0FAA3E0F91207BBC4
:10011E00FF9002F2F09000011207D49002F3F0EF7C
:10012E00C394A140109002F2E0D394AB5007A3E029
:10013E00C394A150209002F2E0FFC394A850030292
:10014E000266EFD394A94003020266A3E0C394A112
:10015E0040030202669002F2E0FFC394A1402EEF2C
:10016E00D394AB5028A3E0FBC394A140209002F29D
:10017E00E0245FFFE434FFFE7C007D5E120835EB69
:10018E00245FFDEC34FFCD2FFFED3E80269002F371
:10019E00E0D3947F4003E014F09002F2E0FF7E0083
:1001AE007C007D60120835A3E02FFFEC3ECF240EBD
:1001BE00CF34C4FEE4FD9002EE12092A9002EDE067
:1001CE00B40C15E47F18FEFDFCA3E0F8A3E0F9A340
:1001DE00E0FAA3E0FB0208C89002EDE0B41022E4BE
:1001EE007F20FEFDFCA3E0F8A3E0F9A3E0FAA3E074
:1001FE00FB1208C8EF24C0FFEE34F4FEED34058088
:10020E004F9002EDE0B41822E47F48FEFDFCA3E01F
:10021E00F8A3E0F9A3E0FAA3E0FB1208C8EF24C0AC
:10022E00FFEE34E5FEED340D80269002EDE0B420B5
:10023E0024E47F80FEFDFCA3E0F8A3E0F9A3E0FA3E
:10024E00A3E0FB1208C8E42FFFEE34DFFEED340E00
:10025E00FDE43CFC2202035C9002F2E0FFC394B08A
:10026E004035EFD394F7502FA3E0FBC394A1402762
:10027E009002F2E02450FFE434FFFE7C007D5E121B
:10028E000835EB245FFDEC34FFCD2FFFED3EFEE491
:10029E00FD9002EE12092A9002EDE0B40C24A3E0C8
:1002AE00FCA3E0FDA3E0FEA3E02496FFEE3402FEE5
:1002BE00E43DFDE43CFCE47B18FAF9F81208C802B0
:1002CE0003549002EDE0B41026E47F20FEFDFCA363
:1002DE00E0F8A3E0F9A3E0FAA3E0FB1208C8EF24CC
:1002EE0080FFEE3447FEED3406FDE43CFC80579073
:1002FE0002EDE0B41826E47F48FEFDFCA3E0F8A36F
:10030E00E0F9A3E0FAA3E0FB1208C8EF24F0FFEE39
:10031E00349FFEED340EFDE43CFC802A9002EDE0AD
:10032E00B4202BE47F80FEFDFCA3E0F8A3E0F9A34C
:10033E00E0FAA3E0FB1208C8E42FFFEE342AFEED2C
:10034E003410FDE43CFC9002EE12092A8006E4FF14
:10035E00FEFDFC229002EEE0FCA3E0FDA3E0FEA376
:02036E00E0FFAE
:01037000226A
:0D1F6C00E4F5C7F5C5F5C675C380F5C422C0
:101E730075C78375C5018FC4EEF5C375C65A75C69C
:071E8300A500AFC2121F6CA5
:011E8A002235
:101E5A0075C78375C5028FC4EEF5C3AF058FC2750A
:091E6A00C65A75C6A500021F6CE2
:101EB80075C78375C5038FC4EEF5C375C65A75C655
:051EC800A500021F6CE3
:100AEE00C183602000000000000000000000000034
:100AFE0000000000000000000000000000000000E8
:100B0E000000000000006020002001010101010131
:100B1E0001010101010101010101000000000000BD
:100B2E00000000000000000000006020024F0000E6
:100B3E000000FCFCFFFFFFFFFCFC000000000000BB
:100B4E000000FFFFFFFFFFFFFFFF0000000060201F
:100B5E0001CF00000000FC040707070704FC00009B
:100B6E00000000000000FFFFFFFFFFFFFFFF00007F
:100B7E0000006020022F00000000FC04070707079A
:100B8E0004FC0000000000000000FF8080808080D8
:100B9E0080FF00000000602001EF00000000FC2438
:100BAE004787874724FC0000000000000000FF84F8
:100BBE008281818284FF000000006020020F80800D
:100BCE008080808080808080808090A0C0800000A7
:100BDE0000000000000000000000040201004300BD
:0C0BEE00400000004101AB004101AC00E0
:0A1BD000FFE025E024B8FDEE2DFD36
:101BDA009002E0EFF0A3EDF07FC87E00121ED8C29B
:101BEA00A59002E0E0B4010DD2B77FC87E00121EB4
:101BFA00D8C2A1800BC2B77FC87E00121ED8D2A15C
:101C0A007FC87E00121ED8C2A4C2A3D2A59002E148
:061C1A00E0F580C2A522E6
:101A74009002D7E09002D1FFE0FBA3E0FAA3E0F9E3
:041A84001207BBFD8D
:101A88009002E0EFF0A3EDF07FC87E00121ED8C2EE
:101A9800A59002E0E0B4010DD2B77FC87E00121E07
:101AA800D8C2A1800BC2B77FC87E00121ED8D2A1AF
:101AB8007FC87E00121ED8D2A4C2A3D2A59002E18C
:061AC800E0F580C2A5223A
:051A01009002D0EFF09F
:101A06007DC07F01121BDA7DC07F02121BDAE490D3
:101A160002D2F09002D2E0FFC394085050EF24B8EF
:101A2600FD7F01121BDA7D407F01121BDA9002D284
:101A3600E024B8FD7F02121BDA7D407F02121BDA1A
:101A4600E49002D1F09002D0E0FD7F01121A889056
:101A560002D0E0FD7F02121A889002D1E004F0E085
:0D1A6600C3944040E09002D2E004F080A65E
:011A73002250
:101B2600C2A27FE87E03121ED8D2A27FE87E0312ED
:101B36001ED87D3F7F01121BDA7DC07F01121BDAA2
:101B46007FE87E03121ED87D3F7F02121BDA7DC01E
:101B56007F02121BDAE4FF121A017DB87F01121B05
:101B6600DA7D407F01121BDA7DB87F02121BDA7D17
:061B7600407F02021BDAB1
:0B10F4009002E0EBF0A3EAF0A3E9F0AB
:1010FF00E4A3F0A3F0A37420F07D1012000E900271
:10110F00E612092A9002E0E0FBA3E0FAA3E0F9124D
:10111F001ACE9002E4EFF0C2927F03121F85900265
:10112F00E6E0FCA3E0FDA3E0FEA3E0FF78101209C8
:10113F0017E4121F859002E6E0FCA3E0FDA3E0FE9A
:10114F00A3E0FF7808120917E4121F859002E6E06A
:10115F00FCA3E0FDA3E0FEA3E0FFE4121F859002D5
:10116F00E4E0B4022CE49002E3F09002E5E0FF909B
:10117F0002E3E0C39F5060121F5E9002E3E024AFD2
:10118F00F582E43401F583EFF09002E3E004F080A0
:10119F00D99002E4E06401703E9002E3F09002E522
:1011AF00E0C313FF9002E3E0C39F502B121F5E902A
:1011BF0002E3E0FE25E024AFF582E43401F583EF8E
:1011CF00F0EE25E024B0F582E43401F583E4F090ED
:0911DF0002E3E004F080C6D292A4
:0111E80022E4
:0815F8009002D7EFF0A3EDF023
:101600001210F49002D97401F0A37401F0A374AF26
:10161000F09002D7E0FFC394049002DF50067401FB
:10162000F0EF80097402F09002D7E024FCC454F07B
:101630009002DDF0E49002DEF09002DEE0FEC39462
:10164000025059A3E09002D8121BD07F647E001292
:101650001ED89002DFE0FF9002DDE02440FD121B67
:10166000DA7F647E00121ED8E49002DCF09002DF84
:10167000E09002D9121A7B7F0A7E00121ED89002D7
:10168000DAE475F00112089C9002DCE004F0E0C39B
:0C169000941040D99002DEE004F0809D30
:01169C00222B
:101980009002D0EFF0A3EDF0A3EBF0A3EAF0A3E90F
:01199000F066
:10199100E4A3F0A3F09002D2E0FBA3E0FAA3E0F904
:1019A1001207BB605A9002D5E0C3940A5051121A33
:1019B100CE9002D6EFF09002D0E0FFA3E0FDA3E0CD
:1019C100FBA3E0FAA3E0F91215F89002D5E004F0C8
:1019D1009002D3E475F00112089C9002D6E0B402A3
:1019E1000A9002D3E475F00112089C9002D0E00441
:0F19F100F0E0D39407409EE4F0A3E004F080966A
:011A000022C3
:0B0ECA00900312EBF0A3EAF0A3E9F0A4
:100ED500E4900318F0A3F0A37448F07D1812000EF7
:100EE50090031B12092A900312E0FBA3E0FAA3E08A
:100EF500F9121ACE900319EFF0C2927F03121F85E3
:100F050090031BE0FCA3E0FDA3E0FEA3E0FF781047
:100F1500120917E4121F8590031BE0FCA3E0FDA353
:100F2500E0FEA3E0FF7808120917E4121F8590037D
:100F35001BE0FCA3E0FDA3E0FEA3E0FFE4121F8598
:100F4500900319E0B40236E4900318F090031AE018
:100F5500FF900318E0C39F4003020FE0121F5E904D
:100F65000315E0FBA3E0FAA3E0F9A3E0F58275839E
:100F750000EF120813900318E004F080CF900319D6
:100F8500E064017056900318F090031AE0C313FF54
:100F9500900318E0C39F5043121F5E900315E0FBBA
:100FA500A3E0FAA3E0F9A3E0FE75F002A4F58285BB
:100FB500F083EF120813900315E0FBA3E0FAA3E01A
:100FC500F975F002EEA42401F582E435F0F583E429
:0D0FD500120813900318E004F080AED292D1
:010FE20022EC
:081482009002F4EFF0A3EDF07D
:10148A00E94A6020C002C0019002F9E0F9A3E0FA3B
:10149A00A3E0900315C9F0A3EAF0A3E9F0D001D0C4
:1014AA0002120ECA9002FC7401F0A37400F0A37435
:1014BA0043F09002F4E0FFC39402900302500674D2
:1014CA0001F0EF80097402F09002F4E024FE75F056
:1014DA0018A4900300F0E4900301F0900301E0FEE9
:1014EA00C394035060A3E0FF9002F5E075F003A4F3
:1014FA00121BD47F647E00121ED8900302E0FF9074
:10150A000300E02440FD121BDA7F647E00121ED81D
:10151A00E49002FFF0900302E0FF9002FC121A7CB2
:10152A007F0A7E00121ED89002FDE475F0011208AF
:10153A009C9002FFE004F0E0C3941840D8900301A5
:05154A00E004F08096B2
:01154F002279
:1017DE0090035EEFF0A3EDF0A3EBF0A3EAF0A3E924
:0117EE00F00A
:1017EF00E4A3F0A3F0900360E0FBA3E0FAA3E0F919
:1017FF001207BB606A900363E0C3940A5061121A28
:10180F00CE900364EFF090035EE0FFA3E0FD900243
:10181F00F97401F0A37400F0A37443F0900360E037
:10182F00FBA3E0FAA3E0F9121482900363E004F043
:10183F00900361E475F00112089C900364E0B40218
:10184F000A900361E475F00112089C90035EE004B6
:0F185F00F0E0D39404408EE4F0A3E004F0808620
:01186E002257
:0813B200900303EFF0A3EDF03E
:1013BA00E94A6020C002C001900308E0F9A3E0FAFC
:1013CA00A3E0900315C9F0A3EAF0A3E9F0D001D095
:1013DA0002120ECA900308E0F9A3E0FAA3E0A3C937
:1013EA00F0A3EAF0A3E9F0900303E0FFC39440906E
:1013FA000311500A7401F090030FEFF0800A74028F
:10140A00F0EF24C090030FF0E4900310F090031063
:10141A00E0FEC394035060A3E0FF900304E075F07C
:10142A0003A4121BD47F647E00121ED8900311E01D
:10143A00FF90030FE02440FD121BDA7F647E001246
:10144A001ED8E490030EF0900311E0FF90030B12F4
:10145A001A7C7F0A7E00121ED890030CE475F001F4
:10146A0012089C90030EE004F0E0C3941840D89050
:07147A000310E004F080966E
:011481002248
:0E0FE30090031FEFF0A3EBF0A3EAF0A3E9F0F8
:100FF100E4A3F0A3F0A3EBF0A3EAF0A3E9F09003DC
:1010010025E0FBA3E0FAA3E0F91207BB6027121A5F
:10101100CE900324EFF0900323E004F0900326E444
:1010210075F00112089CBF02D5900326E475F0010A
:1010310012089C80C9900323E024FE600F146018FD
:10104100240270249003287427F0802D90032874C3
:101051001DF0A3744AF080219003287426F0A37434
:1010610040F0A37456F08011E4900328F0A3742299
:10107100F0A37445F0A37467F0E4900323F09003A8
:1010810020E0FBA3E0FAA3E0F91207BB6064900340
:1010910023E0C39404505B121ACE900324EFF09026
:1010A1000323E02428F582E43403F583E0FF900371
:1010B1001FE0FD9003087401F0A37400F0A37443D2
:1010C100F0900320E0FBA3E0FAA3E0F91213B29041
:1010D1000323E004F0900321E475F00112089C90D1
:1010E1000324E0B40298900321E475F00112089CF6
:0210F100808CF1
:0110F30022DA
:100D990090032FECF0A3EDF090032CEBF0A3EAF015
:030DA900A3E9F0CB
:100DAC00E4900331F0A3F0A37448F07D1812000E08
:100DBC0090033412092A90032CE0FBA3E0FAA3E081
:100DCC00F9121ACE900332EFF0C2927F03121F85F4
:100DDC00900334E0FCA3E0FDA3E0FEA3E0FF781059
:100DEC00120917E4121F85900334E0FCA3E0FDA365
:100DFC00E0FEA3E0FF7808120917E4121F859003A8
:100E0C0034E0FCA3E0FDA3E0FEA3E0FFE4121F85A9
:100E1C00900332E06402703D900331F0900333E0B4
:100E2C00FF900331E0C39F4003020EC7121F5E9078
:100E3C000331E0FD900330E02DFD90032FE03400F2
:100E4C00FC748B2DF58274003CF583EFF09003312C
:100E5C00E004F080C7900332E06401705E900331CF
:100E6C00F0900333E0C313FF900331E0C39F504B6A
:100E7C00121F5E90032FE0FCA3E0FDA3E0FE75F0D3
:100E8C0002A42DF582E5F03CF583E582248BF582F6
:100E9C00E5833400F583EFF075F002EEA42DF582B6
:100EAC00E5F03CF583E582248CF582E5833400F58E
:0D0EBC0083E4F0900331E004F080A6D292B0
:010EC9002206
:10095C00EF24FE7003020A00147003020A3424020E
:10096C006003020AED7B487AD89000D3E4F0A3DA56
:10097C00FC7A007B487C007D18AF03AE021208475E
:10098C00D3ED940BEC9400401874372BF582740063
:10099C003AF583E0FF748B2BF58274003AF583EF04
:1009AC00F00BBB00010AEB64904A70C97A007B9093
:1009BC007C007D18AF03AE02120847C3ED940BEC1C
:1009CC009400501874072BF58274003AF583E0FFFD
:1009DC00748B2BF58274003AF583EFF00BBB00019E
:1009EC000AEB64D84A70C9E4FB7A4890008BE4F0B7
:1009FC00A3DAFC227A017B1F74FB2BF58274FF3A7D
:100A0C00F583E0FF748B2BF58274003AF583EFF0DD
:100A1C00EB1B70011AEB64D74A70DD7B487A90901F
:100A2C0000D3E4F0A3DAFC227A007BD874432BF5D4
:100A3C008274003AF583E0FF748B2BF58274003AD4
:100A4C00F583EFF00BBB00010ABA01E0BB20DD7AA5
:100A5C00007BD77C007D18AF03AE02120847C3EDB4
:100A6C00940BEC9400501A744F2BF58274003AF5E9
:100A7C0083E0FF748B2BF58274003AF583EFF080E2
:100A8C000C748B2BF58274003AF583E4F0EB1B703D
:100A9C00011AEB648F4A70BB7A007B8F7C007D1847
:100AAC00AF03AE02120847D3ED940BEC9400401A3E
:100ABC00747F2BF58274003AF583E0FF748B2BF571
:100ACC008274003AF583EFF0800C748B2BF58274F2
:100ADC00003AF583E4F0EB1B70011AEB64474A70A3
:010AEC00BB4E
:010AED0022E6
:0E12DA00900338EFF0A3EBF0A3EAF0A3E9F0E5
:1012E800E490033DF0A3F0A3EBF0A3EAF0A3E9F048
:1012F800A37448F0300367C203900339E0FBA3E00E
:10130800FAA3E0F91207BB604D90033DE0C39404D3
:101318005044121ACE90033EEFF090033DE075F072
:1013280048A4FDACF0900339E0FBA3E0FAA3E0F990
:10133800120D9990033DE004F090033AE475F00132
:1013480012089C90033EE0B402AF90033AE475F0B3
:101358000112089C80A390033DE0FF12095CE49011
:10136800033CF090033CE0FFC39404503C900342DC
:10137800E08FF0A4248BF9740035F0FA9003087418
:1013880001F0A3EAF0A3E9F090033CE075F018A49B
:101398002410FF900338E0FD7B007A0079001213D7
:0913A800B290033CE004F080BAAD
:0113B1002219
:0B11E900900343EBF0A3EAF0A3E9F051
:1011F400E4A3F0A3F0A37420F07D1012000E90037A
:101204004912092A900343E0FBA3E0FAA3E0F91290
:101214001ACE900347EFF0C2927F03121F8590030A
:1012240049E0FCA3E0FDA3E0FEA3E0FF781012096F
:1012340017E4121F85900349E0FCA3E0FDA3E0FE40
:10124400A3E0FF7808120917E4121F85900349E010
:10125400FCA3E0FDA3E0FEA3E0FFE4121F859003DE
:1012640047E0B4022CE4900346F0900348E0FF907A
:101274000346E0C39F505C121F5E900346E024AF18
:10128400F582E43401F583EFF0900346E004F08046
:10129400D9900347E06401703A900346F090034804
:1012A400E0C313FF900346E0C39F5027121F5E90D4
:1012B4000346E0FE24AFF582E43401F583EFF074D5
:1012C400BF2EF582E43401F583E4F0900346E00494
:0512D400F080CAD29277
:0112D90022F2
:0815500090034DEFF0A3EDF054
:101558001211E990034F7401F0A37401F0A374AF62
:10156800F090034EE0FFC3940890035550067401B1
:10157800F0EF80097402F090034EE024F83333331F
:1015880054F8900353F0E4900354F0900354E0FEB1
:10159800C39402505AA3E090034D121BD07F647E7F
:1015A80000121ED8900355E0FF900353E02440FD3D
:1015B800121BDA7F647E00121ED8E4900352F0906A
:1015C8000355E0FF90034F121A7C7F0A7E00121E1B
:1015D800D8900350E475F00112089C900352E0047F
:0F15E800F0E0C3940840D8900354E004F0809CD6
:0115F70022D1
:1018FB00900365EFF0A3EDF0A3EBF0A3EAF0A3E9FF
:01190B00F0EB
:10190C00E4A3F0A3F0900367E0FBA3E0FAA3E0F9F3
:10191C001207BB605E90036AE0C3940A5055121A1A
:10192C00CE90036BEFF0900366E0FF900365E0FD53
:10193C00900367E0FBA3E0FAA3E0F91215509003C3
:10194C006AE004F0900368E475F00112089C9003BF
:10195C006BE0B4020A900368E475F00112089C90E5
:10196C000365E004F0E0D3940F409AE4F0A3E004A4
:03197C00F0809266
:01197F002245
:051741009002D0EDF064
:10174600E4FBE014F00BA3EBF0A37402F0A3740F18
:10175600F0EFC394049002D750067401F0EF8006B0
:101766007402F0EF24FCC454F09002D5F0E4900229
:10177600D6F09002D6E0FEC39402505BA3E0FF9041
:1017860002D0121BD17F647E00121ED89002D7E0D1
:10179600FF9002D5E02440FD121BDA7F647E001222
:1017A6001ED8E49002D4F09002D7E0FF9002D11246
:1017B6001A7C7F0A7E00121ED89002D2E475F001D0
:1017C60012089C9002D4E004F0E0C3941040D89034
:0717D60002D6E004F0809B45
:0117DD0022E9
:0F1F04009000407401F0A37402F0A3744FF02218
:0F1F13009000407401F0A37401F0A374CFF0228A
:0F1F22009000407401F0A37402F0A3742FF0221A
:0F1F31009000407401F0A37401F0A374EFF0224C
:0F1F40009000407401F0A37400F0A37400F0222D
:05169D00900356EDF082
:1016A200E014F0900040E0F9A3E0FAA3E0900357C1
:1016B200C9F0A3EAF0A3E9F0EFC3940490035D50EC
:1016C200067401F0EF80067402F0EF24FCC454F0BB
:1016D20090035BF0E490035CF090035CE0FEC39443
:1016E20002505BA3E0FF900356121BD17F647E0081
:1016F200121ED890035DE0FF90035BE02440FD12D0
:101702001BDA7F647E00121ED8E490035AF0900325
:101712005DE0FF900357121A7C7F0A7E00121ED8EA
:10172200900358E475F00112089C90035AE004F00B
:0E173200E0C3941040D890035CE004F0809B6C
:011740002286
:081F9000E49001ABF0A3F02284
:080C4A009002CFEFF0A3EDF0E2
:100C5200E014F09001ABE0FF7007A3E07003020C18
:100C6200F59002D17401F0A37400F0A37400F0EFC8
:100C7200C394049002D750097401F09001ABE08054
:100C8200097402F09001ABE024FCC454F09002D548
:100C9200F0E49002D6F09002D6E0FEC394025053E4
:100CA200A3E0FF9001AC121BD17F647E00121ED81C
:100CB2009002D7E0FF9002D5E02440FD121BDA7FBC
:100CC200647E00121ED8E49002D4F0121A747F0AD5
:100CD2007E00121ED89002D2E475F00112089C9098
:100CE20002D4E004F0E0C3941040E09002D6E004A5
:100CF200F080A39002CFE0FF9001ABF09002D0E031
:100D02009001ACF09002D17401F0A37400F0A374CE
:100D120020F0EFC394049002D750097401F09002BE
:100D2200CFE080097402F09002CFE024FCC454F0BA
:100D32009002D5F0E49002D6F09002D6E0FEC39481
:100D4200025053A3E0FF9002D0121BD17F647E00B9
:100D5200121ED89002D7E0FF9002D5E02440FD1287
:100D62001BDA7F647E00121ED8E49002D4F0121ABD
:100D7200747F0A7E00121ED89002D2E475F001122E
:100D8200089C9002D4E004F0E0C3941040E090028A
:060D9200D6E004F080A38E
:010D98002238
:081F9800ED04FDD204020C4A25
:05000600E4FF021A01F5
:101EA200CEF7B0B2D6D8D7B000CEBCC4CFB9E2B567
:061EB200E7BFC6BCBC0046
:03000B00021E25AD
:101E2500C0E0C0F0C083C082C0D075D008121EF4D7
:0B1E3500D0D0D082D083D0F0D0E032BB
:03000300021D815A
:101D8100C0E0C0F0C083C082C0D075D000C000C028
:101D910001C002C003C004C005C006C007121CB6C2
:101DA100D007D006D005D004D003D002D001D00096
:0B1DB100D0D0D082D083D0F0D0E03240
:101EE200121F4F121B26120006121E40121C6FD226
:021EF200AF221D
:101DBC0078B97C027D017BFF7A1E79A27E007F09B7
:101DCC0012079578C27C027D017BFF7A1E79AB7E6F
:101DDC00007F0D120795121EE27B017A0279B97D04
:0B1DEC00017F01121980121F7980FB9B
:0B1ECD007FF57E00121ED87FF57E001E
:0A1ED800EF1F70011E144E70F72278
:101E8B00AD07AC06ED1DAE0470011C4E6008121EB2
:071E9B00CD121ECD80EE22E6
:0F1F4F00E5A254F34408F5A275CED075CDC0229B
:0B1F85008FCFE5CD30E7FB75CDC0220B
:0D1F5E00E4F5CFE5CD30E7FBAFCF75CDC08A
:011F6B002253
:101C2000B5D8D6B7C9E8D6C300C1C1B6C8E3D0D6C7
:101C3000B500B3E4C2FAE3D0D6B500B5F7CAD40014
:101C4000C9E8D6C300C9E8D6C3CDEAB1CF21003F69
:101C5000065B4F666D7D077F6F777C395E7971BF5C
:0F1C600086DBCFE6EDFD87FFEFF7FCB9DEF9F18C
:100BFA0044026F030C30C043027C000000440283AD
:100C0A00000000004102B8FF4102AB00C101C1026D
:100C1A00C1004102AA004102870044027800010291
:100C2A0003440274000000004C02ACFF1C20FF1CAD
:0F0C3A0029FF1C32FF1C3B4102A900410273003D
:101B7C009002CFEFF0120006900277E0600C7BFF32
:101B8C007A1C793BE4FDFF1219807BFF7A1C7940AB
:101B9C00E4FD7F031219809002CFE075F003A424BA
:101BAC00ACF582E43402F583E0FBA3E0FAA3E0F9A0
:101BBC007D017F021219803004097B1A7D027F019E
:041BCC001217412289
:101DF70090027CE02430900283F090027DE0243052
:101E0700900284F090027EE02430900285F0E4A3F3
:0E1E1700F07B017A0279837D027F030219803D
:10037100900281E0120936056D07062B0803C509B5
:1003810005D40C05241505B81605F11806471C04FB
:10039100DB4006794204FC44047D4503AF4606AACE
:1003A1004A06925206605A060E5E000006C490028A
:1003B10087E060030206C404F0E49002A9F0D204CD
:1003C100FF020580900287E06401704E7402F0E440
:1003D100900273F09002A9E0FFD204121B7C9002FC
:1003E100A9E0FF2474F582E43402F583E0FE75F0A0
:1003F100648490027CF0EE75F06484E5F075F00A97
:1004010084A3F074742FF582E43402F583E075F06F
:100411000A8490027EE5F00206C0900287E0640241
:1004210070030204BC900287E0640360030206C407
:100431009002A9E0FFB40408E4900287F0C201220F
:1004410090027DE075F00AA4FE90027CE075F064F4
:10045100A42EFE90027EE02EFE74742FF582E43409
:1004610002F583EEF0121CFD7BFF7A1C79457D03BA
:100471007F021219809002877404F022900287E0B3
:10048100B40105E4F0020006900287E0B4020D74A5
:1004910001F09002A9E0FFD204020580900287E0FA
:1004A100B4030D7401F09002A9E0FFD204020580AB
:1004B100900287E0640460030206C47403F09002B2
:1004C100A9E0FFC204121B7C7B1A7D037F02121775
:1004D10041121DF7E49002738040900287E06403AB
:1004E10060030206C4900273E02401FFE433FE7C42
:1004F100007D03120847AF05EF801F900287E0647B
:100501000360030206C4900273E02402FFE433FE99
:100511007C007D03120847AF05EFF02403FF7D0344
:10052100021F98900287E0B4010D9002A9E00454E3
:1005310003FFF0C2048048900287E0640360030275
:1005410006C4900273E0FB247CF582E43402F58357
:10055100E02401FFE433FE7C007D0A120847747C2D
:100561002BF582E43402F583ED0206C0900287E0A8
:10057100B4010F9002A9E024035403FFF0C2040266
:100581001B7C900287E0640360030206C49002733F
:10059100E0FB247CF582E43402F583E02409FFE4E6
:1005A10033FE7C007D0A120847747C2BF582E4340B
:1005B10002F583ED0206C0900287E0640360030246
:1005C10006C4900273E0247CF582E43402F583E4EE
:1005D1000206C0900287E0640360030206C4900231
:1005E10073E0247CF582E43402F58374010206C0D1
:1005F100900287E0640360030206C4900273E02462
:100601007CF582E43402F58374020206C09002870D
:10061100E0640360030206C4900273E0247CF58267
:10062100E43402F58374030206C0900287E0640398
:1006310060030206C4900273E0247CF582E4340274
:10064100F58374048079900287E0640370759002E9
:1006510073E0247CF582E43402F5837405806090B4
:100661000287E06403705C900273E0247CF582E40D
:100671003402F58374068047900287E06403704377
:10068100900273E0247CF582E43402F583740780E0
:100691002E900287E0B4032B900273E0247CF58254
:1006A100E43402F58374088016900287E0B40313E2
:1006B100900273E0247CF582E43402F5837409F03E
:0406C100121DF722ED
:101D43007E01E4FD7C0174882EF582E43402F58380
:101D5300E0D394024004EF4480FFECC394085004A2
:101D6300EFC313FF0E0CECB409DC747F2DF582E492
:0D1D73003402F583EFF0E4FF0DEDB404C77A
:011D80002240
:101CFD00E4FFFE121EB8E49002CFF09002CFE0FF99
:101D0D007E002474F582E43402F583E0FD121E5A40
:101D1D009002CFE0FF7E00121E739002CFE024747C
:101D2D00F582E43402F583EFF09002CFE004F0E0A9
:051D3D00C3940340C641
:011D4200227E
:101C6F00E49002CFF09002CFE0FFC3940350377E91
:101C7F0000121E739002CFE0FE2474F582E434024A
:101C8F00F583EFF074742EF582E43402F583E0B43B
:101C9F00FF0C74742EF582E43402F583E4F09002A5
:061CAF00CFE004F080BF4D
:011CB500220C
:0C1F7900300208121D43120371C2022244
:101EF400758AD7758CFD3000069002ABE004F022A1
:101CB6002002433000399002ABE0FFC3940F400A84
:101CC600EF941C5005E49002AAF09002AAE0248842
:101CD600F582E43402F583EFF0E49002ABF0900273
:101CE600AAE004F0E0B4210EC200D202E4F022D24F
:071CF60000E49002ABF022B4
:101E4000538E7F5389F0438901758AD7758CFDC203
:0A1E50008DD2A9D28CD288D2A8222C
:0300000002186F74
:0C186F00787FE4F6D8FD7581200218B6E1
:1006C500E709F608DFFA8046E709F208DFFA803E17
:1006D50088828C83E709F0A3DFFA8032E309F60804
:1006E500DFFA8078E309F208DFFA807088828C836C
:1006F500E309F0A3DFFA806489828A83E0A3F60820
:10070500DFFA805889828A83E0A3F208DFFA804CF9
:1007150080D280FA80C680D4806980F280338010D0
:1007250080A680EA809A80A880DA80E280CA803339
:1007350089828A83ECFAE493A3C8C582C8CCC583B1
:10074500CCF0A3C8C582C8CCC583CCDFE9DEE78081
:100755000D89828A83E493A3F608DFF9ECFAA9F000
:10076500EDFB2289828A83ECFAE0A3C8C582C8CC56
:10077500C583CCF0A3C8C582C8CCC583CCDFEADE6F
:10078500E880DB89828A83E493A3F208DFF980CCD1
:1007950088F0EF60010E4E60C388F0ED2402B404CA
:1007A5000050B9F582EB2402B4040050AF23234571
:0607B5008223900715737A
:1007BB00BB010689828A83E0225002E722BBFE023C
:0907CB00E32289828A83E493226F
:1007D400BB010CE58229F582E5833AF583E02250DA
:1007E40006E92582F8E622BBFE06E92582F8E22224
:0D07F400E58229F582E5833AF583E493223E
:10080100BB010689828A83F0225002F722BBFE01D6
:02081100F322D0
:10081300F8BB010DE58229F582E5833AF583E8F01B
:10082300225006E92582C8F622BBFE05E92582C8C7
:02083300F222AF
:10083500EF8DF0A4A8F0CF8CF0A428CE8DF0A42ED7
:02084500FE2291
:10084700BC000BBE0029EF8DF084FFADF022E4CC95
:10085700F875F008EF2FFFEE33FEEC33FCEE9DEC5E
:10086700984005FCEE9DFE0FD5F0E9E4CEFD22EDA4
:10087700F8F5F0EE8420D21CFEADF075F008EF2FEE
:10088700FFED33FD4007985006D5F0F222C398FDDF
:050897000FD5F0EA227C
:10089C00C5F0F8A3E028F0C5F0F8E58215827002E7
:0608AC001583E038F02284
:1008B200A3F8E0C5F025F0F0E582158270021583F9
:0608C200E0C838F0E82256
:1008C800E88FF0A4CC8BF0A42CFCE98EF0A42CFCCF
:1008D8008AF0EDA42CFCEA8EF0A4CDA8F08BF0A44D
:1008E8002DCC3825F0FDE98FF0A42CCD35F0FCEBAC
:1008F8008EF0A4FEA9F0EB8FF0A4CFC5F02ECD3971
:0F090800FEE43CFCEAA42DCE35F0FDE43CFC22DD
:10091700E8600FECC313FCED13FDEE13FEEF13FFBE
:03092700D8F122E2
:0C092A00ECF0A3EDF0A3EEF0A3EFF02240
:10093600D083D082F8E4937012740193700DA3A350
:1009460093F8740193F5828883E473740293686064
:06095600EFA3A3A380DF64
:10187B00021DBCE493A3F8E493A34003F68001F2AA
:10188B0008DFF48029E493A3F85407240CC8C3336E
:10189B00C4540F4420C8834004F456800146F6DF3D
:1018AB00E4800B0102040810204080900AEEE47ED5
:1018BB00019360BCA3FF543F30E509541FFEE49332
:1018CB00A360010ECF54C025E060A840B8E493A3F9
:1018DB00FAE493A3F8E493A3C8C582C8CAC583CA24
:1018EB00F0A3C8C582C8CAC583CADFE9DEE780BEDC
:010C490000AA
:00000001FF
