:0B24340090038BEBF0A3EAF0A3E9F0AB
:10243F0090038BE0FBA3E475F001120962A9F0FA97
:10244F0012086BFFC3942050037F0022EFC39480C8
:10245F0050037F012290038BE0FBA3E475F0011280
:10246F000962A9F0FA12086BFEEFB48106EEC3946D
:0C247F00395004EFB482037F04227F0276
:01248B00222E
:1004120090038EEDF090038BEBF0A3EAF0A3E9F0EA
:1004220012086BFFC394804003020514EFC39420AB
:10043200501090038BE0FBA3E0FAA3E0F9742012C2
:1004420008B190038BE0FBA3E0FAA3E0F912086B7A
:1004520024E0FFE434FFFEE4FCFD90038F1209DA8E
:1004620090038EE0B40812A3E0FCA3E0FDA3E0FE3B
:10047200A3E0FFE47B080206CB90038EE0B40C12EB
:10048200A3E0FCA3E0FDA3E0FEA3E0FFE47B0C02FB
:1004920006CB90038EE0B41023E47F10FEFDFCA394
:1004A200E0F8A3E0F9A3E0FAA3E0FB120978EF2455
:1004B200CCFFEE347FFEED341A0206FB90038EE091
:1004C200B41822E47F30FEFDFCA3E0F8A3E0F9A318
:1004D200E0FAA3E0FB120978E42FFFEE34FFFEED11
:1004E200341D0206FB90038EE0642060030207665F
:1004F2007F40FEFDFCA3E0F8A3E0F9A3E0FAA3E04D
:10050200FB120978EF2450FFEE345AFEED341E023E
:1005120006FB90038BE0FBA3E0FAA3E0F912086B61
:10052200FF900393F0900001120884900394F0EF7F
:10053200C394A14010900393E0D394AB5007A3E07F
:10054200C394A15020900393E0FFC394A8500302E8
:10055200066AEFD394A9400302066AA3E0C394A1FA
:10056200400302066A900393E0FFC394A1402EEF7A
:10057200D394AB5028A3E0FBC394A14020900393F3
:10058200E0245FFFE434FFFE7C007D5E1208E5EBB1
:10059200245FFDEC34FFCD2FFFED3E8026900394C7
:1005A200E0D3947F4003E014F0900393E0FF7E00D9
:1005B2007C007D601208E5A3E02FFFEC3ECF240E05
:1005C200CF34C4FEE4FD90038F1209DA90038EE06B
:1005D200B40C15E47F18FEFDFCA3E0F8A3E0F9A338
:1005E200E0FAA3E0FB02097890038EE0B41022E463
:1005F2007F20FEFDFCA3E0F8A3E0F9A3E0FAA3E06C
:10060200FB120978EF24C0FFEE34F4FEED340580CE
:100612004F90038EE0B41822E47F48FEFDFCA3E075
:10062200F8A3E0F9A3E0FAA3E0FB120978EF24C0F3
:10063200FFEE34E5FEED340D802690038EE0B4200B
:1006420024E47F80FEFDFCA3E0F8A3E0F9A3E0FA36
:10065200A3E0FB120978E42FFFEE34DFFEED340E47
:10066200FDE43CFC22020760900393E0FFC394B0D8
:100672004035EFD394F7502FA3E0FBC394A140275A
:10068200900393E02450FFE434FFFE7C007D5E1271
:1006920008E5EB245FFDEC34FFCD2FFFED3EFEE4D9
:1006A200FD90038F1209DA90038EE0B40C24A3E0CC
:1006B200FCA3E0FDA3E0FEA3E02496FFEE3402FEDD
:1006C200E43DFDE43CFCE47B18FAF9F812097802F7
:1006D200075890038EE0B41026E47F20FEFDFCA3B1
:1006E200E0F8A3E0F9A3E0FAA3E0FB120978EF2413
:1006F20080FFEE3447FEED3406FDE43CFC8057906B
:10070200038EE0B41826E47F48FEFDFCA3E0F8A3C4
:10071200E0F9A3E0FAA3E0FB120978EF24F0FFEE80
:10072200349FFEED340EFDE43CFC802A90038EE003
:10073200B4202BE47F80FEFDFCA3E0F8A3E0F9A344
:10074200E0FAA3E0FB120978E42FFFEE342AFEED73
:100752003410FDE43CFC90038F1209DA8006E4FFBA
:10076200FEFDFC2290038FE0FCA3E0FDA3E0FEA3CC
:02077200E0FFA6
:010774002262
:0D2AB700E4F5C7F5C5F5C675C380F5C4226A
:1029BA0075C78375C5018FC4EEF5C375C65A75C64A
:0729CA00A500AFC2122AB7FD
:0129D10022E3
:1029880075C78375C5028FC4EEF5C3AF058FC275D1
:09299800C65A75C6A500022AB753
:1029E90075C78375C5038FC4EEF5C375C65A75C619
:0529F900A500022AB751
:100A0C00C18F60200000000000000000000000000A
:100A1C0000000000000000000000000000000000CA
:100A2C000000000000006020002001010101010114
:100A3C0001010101010101010101000000000000A0
:100A4C00000000000000000000006020024F0000C9
:100A5C000000FCFCFFFFFFFFFCFC0000000000009E
:100A6C000000FFFFFFFFFFFFFFFF00000000602002
:100A7C0001CF00000000FC040707070704FC00007E
:100A8C00000000000000FFFFFFFFFFFFFFFF000062
:100A9C0000006020022F00000000FC04070707077D
:100AAC0004FC0000000000000000FF8080808080BB
:100ABC0080FF00000000602001EF00000000FC241B
:100ACC004787874724FC0000000000000000FF84DB
:100ADC008281818284FF000000006020020F8080F0
:100AEC008080808080808080808090A0C08000008A
:100AFC0000000000000000000000040201004300A0
:0C0B0C00400000004101AB004101AC00C2
:0A25DF00FFE025E024B8FDEE2DFD1D
:1025E90090037EEFF0A3EDF07FC87E00122A09C2A6
:1025F900A590037EE0B4010DC2B77FC87E00122A00
:1026090009D2A1800BD2B77FC87E00122A09C2A1C4
:102619007FC87E00122A09C2A4C2A3D2A590037F53
:06262900E0F580C2A522CD
:1023DA00900367E0900361FFE0FBA3E0FAA3E0F952
:0423EA0012086BFD6D
:1023EE0090037EEFF0A3EDF07FC87E00122A09C2A3
:1023FE00A590037EE0B4010DC2B77FC87E00122AFD
:10240E0009D2A1800BD2B77FC87E00122A09C2A1C1
:10241E007FC87E00122A09D2A4C2A3D2A590037F40
:06242E00E0F580C2A522CA
:0521D700900364EFF02D
:1021DC007DC07F011225E97DC07F021225E9E490C4
:1021EC000366F0900366E0FFC394085050EF24B8E8
:1021FC00FD7F011225E97D407F011225E9900366E0
:10220C00E024B8FD7F021225E97D407F021225E90A
:10221C00E4900365F0900364E0FD7F011223EE90DF
:10222C000364E0FD7F021223EE900365E004F0E00E
:0D223C00C3944040E0900366E004F080A6EB
:012249002272
:10248C00C2A27FE87E03122A09D2A27FE87E031241
:10249C002A097D3F7F011225E97DC07F011225E9C4
:1024AC007FE87E03122A097D3F7F021225E97DC059
:1024BC007F021225E9E4FF1221D77DB87F01122596
:1024CC00E97D407F011225E97DB87F021225E97D67
:0624DC00407F020225E929
:0B155A00900374EBF0A3EAF0A3E9F0AB
:10156500E4A3F0A3F0A37420F07D101204129003FD
:101575007A1209DA900374E0FBA3E0FAA3E0F9120A
:101585002434900378EFF0C2927F03122ADC900393
:101595007AE0FCA3E0FDA3E0FEA3E0FF78101209CA
:1015A500C7E4122ADC90037AE0FCA3E0FDA3E0FE89
:1015B500A3E0FF78081209C7E4122ADC90037AE059
:1015C500FCA3E0FDA3E0FEA3E0FFE4122ADC900308
:1015D50078E0B4022CE4900377F0900379E0FF9073
:1015E5000377E0C39F5060122A9B900377E024AFF6
:1015F500F582E43401F583EFF0900377E004F080A1
:10160500D9900378E06401703E900377F0900379F8
:10161500E0C313FF900377E0C39F502B122A9B90E2
:101625000377E0FE25E024AFF582E43401F583EF8E
:10163500F0EE25E024B0F582E43401F583E4F09082
:091645000377E004F080C6D292A4
:01164E002279
:081B480090036BEFF0A3EDF038
:101B500012155A90036D7401F0A37401F0A374AFD1
:101B6000F090036BE0FFC39404900373500674017C
:101B7000F0EF80097402F090036BE024FCC454F091
:101B8000900371F0E4900372F0900372E0FEC3944E
:101B9000025059A3E090036C1225DF7F647E00128F
:101BA0002A09900373E0FF900371E02440FD1225A1
:101BB000E97F647E00122A09E4900370F0900373B9
:101BC000E090036D1223E17F0A7E00122A09900340
:101BD0006EE475F00112094C900370E004F0E0C36C
:0C1BE000941040D9900372E004F0809D46
:011BEC0022D6
:101F6400900364EFF0A3EDF0A3EBF0A3EAF0A3E990
:011F7400F07C
:101F7500E4A3F0A3F0900366E0FBA3E0FAA3E0F985
:101F850012086B605A900369E0C3940A50511224F9
:101F95003490036AEFF0900364E0FFA3E0FDA3E053
:101FA500FBA3E0FAA3E0F9121B48900369E004F0F3
:101FB500900367E475F00112094C90036AE0B402DE
:101FC5000A900367E475F00112094C900364E0047C
:0F1FD500F0E0D39407409EE4F0A3E004F0809680
:011FE40022DA
:0B12200090037EEBF0A3EAF0A3E9F0DE
:10122B00E4900384F0A3F0A37448F07D1812041229
:10123B009003871209DA90037EE0FBA3E0FAA3E0A8
:10124B00F9122434900385EFF0C2927F03122ADC4B
:10125B00900387E0FCA3E0FDA3E0FEA3E0FF781082
:10126B001209C7E4122ADC900387E0FCA3E0FDA37C
:10127B00E0FEA3E0FF78081209C7E4122ADC900312
:10128B0087E0FCA3E0FDA3E0FEA3E0FFE4122ADC71
:10129B00900385E0B40236E4900384F0900386E07B
:1012AB00FF900384E0C39F4003021336122A9B90E6
:1012BB000381E0FBA3E0FAA3E0F9A3E0F5827583D9
:1012CB0000EF1208C3900384E004F080CF900385F5
:1012DB00E064017056900384F0900386E0C313FF23
:1012EB00900384E0C39F5043122A9B900381E0FB41
:1012FB00A3E0FAA3E0F9A3E0FE75F002A4F5828562
:10130B00F083EF1208C3900381E0FBA3E0FAA3E0A4
:10131B00F975F002EEA42401F582E435F0F583E4CF
:0D132B001208C3900384E004F080AED2925B
:011338002292
:0819D200900395EFF0A3EDF086
:1019DA00E94A6020C002C00190039AE0F9A3E0FA44
:1019EA00A3E0900381C9F0A3EAF0A3E9F0D001D003
:1019FA000212122090039D7401F0A37400F0A374E4
:101A0A0043F0900395E0FFC394029003A350067439
:101A1A0001F0EF80097402F0900395E024FE75F05E
:101A2A0018A49003A1F0E49003A2F09003A2E0FEB0
:101A3A00C394035060A3E0FF900396E075F003A4FB
:101A4A001225E37F647E00122A099003A3E0FF9027
:101A5A0003A1E02440FD1225E97F647E00122A09D1
:101A6A00E49003A0F09003A3E0FF90039D1223E209
:101A7A007F0A7E00122A0990039EE475F00112097A
:101A8A004C9003A0E004F0E0C3941840D89003A25D
:051A9A00E004F080965D
:011A9F002224
:101DC2009003B1EFF0A3EDF0A3EBF0A3EAF0A3E9E7
:011DD200F020
:101DD300E4A3F0A3F09003B3E0FBA3E0FAA3E0F9DC
:101DE30012086B606A9003B6E0C3940A5061122430
:101DF300349003B7EFF09003B1E0FFA3E0FD90034D
:101E03009A7401F0A37400F0A37443F09003B3E059
:101E1300FBA3E0FAA3E0F91219D29003B6E004F0B1
:101E23009003B4E475F00112094C9003B7E0B402D7
:101E33000A9003B4E475F00112094C9003B1E00475
:0F1E4300F0E0D39404408EE4F0A3E004F0808636
:011E5200226D
:0819020090036FEFF0A3EDF07C
:10190A00E94A6020C002C001900374E0F9A3E0FA3A
:10191A00A3E0900381C9F0A3EAF0A3E9F0D001D0D3
:10192A0002121220900374E0F9A3E0FAA3E0A3C91B
:10193A00F0A3EAF0A3E9F090036FE0FFC3944090AC
:10194A00037D500A7401F090037BEFF0800A740261
:10195A00F0EF24C090037BF0E490037CF090037CCA
:10196A00E0FEC394035060A3E0FF900370E075F0BB
:10197A0003A41225E37F647E00122A0990037DE006
:10198A00FF90037BE02440FD1225E97F647E00126C
:10199A002A09E490037AF090037DE0FF900377121E
:1019AA0023E27F0A7E00122A09900378E475F00187
:1019BA0012094C90037AE004F0E0C3941840D890DE
:0719CA00037CE004F08096AD
:0119D10022F3
:0E1339009003A4EFF0A3EBF0A3EAF0A3E9F019
:10134700E4A3F0A3F0A3EBF0A3EAF0A3E9F0900382
:10135700AAE0FBA3E0FAA3E0F912086B60271224C6
:10136700349003A9EFF09003A8E004F09003ABE4F6
:1013770075F00112094CBF02D59003ABE475F0017B
:1013870012094C80C99003A8E024FE600F1460186E
:10139700240270249003AD7427F0802D9003AD7460
:1013A7001DF0A3744AF080219003AD7426F0A37456
:1013B70040F0A37456F08011E49003ADF0A37422BB
:1013C700F0A37445F0A37467F0E49003A8F09003CA
:1013D700A5E0FBA3E0FAA3E0F912086B60649003B1
:1013E700A8E0C39404505B1224349003A9EFF09053
:1013F70003A8E024ADF582E43403F583E0FF90030E
:10140700A4E0FD9003747401F0A37400F0A3744387
:10141700F09003A5E0FBA3E0FAA3E0F9121902900C
:1014270003A8E004F09003A6E475F00112094C90BC
:1014370003A9E0B402989003A6E475F00112094CE1
:02144700808C97
:011449002280
:1010EF00900372ECF0A3EDF090036FEBF0A3EAF036
:0310FF00A3E9F072
:10110200E4900374F0A3F0A37448F07D1812041263
:101112009003771209DA90036FE0FBA3E0FAA3E0F1
:10112200F9122434900375EFF0C2927F03122ADC85
:10113200900377E0FCA3E0FDA3E0FEA3E0FF7810BC
:101142001209C7E4122ADC900377E0FCA3E0FDA3B6
:10115200E0FEA3E0FF78081209C7E4122ADC90033C
:1011620077E0FCA3E0FDA3E0FEA3E0FFE4122ADCAB
:10117200900375E06402703D900374F0900376E092
:10118200FF900374E0C39F400302121D122A9B903A
:101192000374E0FD900373E02DFD900372E03400D0
:1011A200FC748B2DF58274003CF583EFF090037490
:1011B200E004F080C7900375E06401705E900374F0
:1011C200F0900376E0C313FF900374E0C39F504B8B
:1011D200122A9B900372E0FCA3E0FDA3E0FE75F0EF
:1011E20002A42DF582E5F03CF583E582248BF5829D
:1011F200E5833400F583EFF075F002EEA42DF5825D
:10120200E5F03CF583E582248CF582E5833400F534
:0D12120083E4F0900374E004F080A6D29213
:01121F0022AC
:100E0E00EF24FE7003020EB2147003020EE62402EB
:100E1E006003020F9F7B487AD89000D3E4F0A3DAE8
:100E2E00FC7A007B487C007D18AF03AE021208F7F7
:100E3E00D3ED940BEC9400401874372BF5827400AC
:100E4E003AF583E0FF748B2BF58274003AF583EF4D
:100E5E00F00BBB00010AEB64904A70C97A007B90DC
:100E6E007C007D18AF03AE021208F7C3ED940BECB5
:100E7E009400501874072BF58274003AF583E0FF46
:100E8E00748B2BF58274003AF583EFF00BBB0001E7
:100E9E000AEB64D84A70C9E4FB7A4890008BE4F000
:100EAE00A3DAFC227A017B1F74FB2BF58274FF3AC6
:100EBE00F583E0FF748B2BF58274003AF583EFF027
:100ECE00EB1B70011AEB64D74A70DD7B487A909069
:100EDE0000D3E4F0A3DAFC227A007BD874432BF51E
:100EEE008274003AF583E0FF748B2BF58274003A1E
:100EFE00F583EFF00BBB00010ABA01E0BB20DD7AEF
:100F0E00007BD77C007D18AF03AE021208F7C3ED4D
:100F1E00940BEC9400501A744F2BF58274003AF532
:100F2E0083E0FF748B2BF58274003AF583EFF0802B
:100F3E000C748B2BF58274003AF583E4F0EB1B7086
:100F4E00011AEB648F4A70BB7A007B8F7C007D1890
:100F5E00AF03AE021208F7D3ED940BEC9400401AD7
:100F6E00747F2BF58274003AF583E0FF748B2BF5BA
:100F7E008274003AF583EFF0800C748B2BF582743B
:100F8E00003AF583E4F0EB1B70011AEB64474A70EC
:010F9E00BB97
:010F9F00222F
:0E182A00900364EFF0A3EBF0A3EAF0A3E9F063
:10183800E4900369F0A3F0A3EBF0A3EAF0A3E9F0C6
:10184800A37448F0300F67C20F900365E0FBA3E074
:10185800FAA3E0F912086B604D900369E0C39404A1
:10186800504412243490036AEFF0900369E075F055
:1018780048A4FDACF0900365E0FBA3E0FAA3E0F90F
:101888001210EF900369E004F0900366E475F0012C
:1018980012094C90036AE0B402AF900366E475F055
:1018A8000112094C80A3900369E0FF120E0EE49028
:1018B8000368F0900368E0FFC39404503C90036E03
:1018C800E08FF0A4248BF9740035F0FA9003747457
:1018D80001F0A3EAF0A3E9F0900368E075F018A41A
:1018E8002410FF900364E0FD7B007A007900121950
:0918F80002900368E004F080BADC
:0119010022C3
:0B164F00900378EBF0A3EAF0A3E9F0B1
:10165A00E4A3F0A3F0A37420F07D10120412900307
:10166A007E1209DA900378E0FBA3E0FAA3E0F9120C
:10167A00243490037CEFF0C2927F03122ADC900399
:10168A007EE0FCA3E0FDA3E0FEA3E0FF78101209D0
:10169A00C7E4122ADC90037EE0FCA3E0FDA3E0FE8F
:1016AA00A3E0FF78081209C7E4122ADC90037EE05F
:1016BA00FCA3E0FDA3E0FEA3E0FFE4122ADC900312
:1016CA007CE0B4022CE490037BF090037DE0FF9071
:1016DA00037BE0C39F505C122A9B90037BE024AFFC
:1016EA00F582E43401F583EFF090037BE004F080A7
:1016FA00D990037CE06401703A90037BF090037DFB
:10170A00E0C313FF90037BE0C39F5027122A9B90EC
:10171A00037BE0FE24AFF582E43401F583EFF07435
:10172A00BF2EF582E43401F583E4F090037BE004F4
:05173A00F080CAD2920C
:01173F002287
:081AA00090036FEFF0A3EDF0DD
:101AA80012164F9003717401F0A37401F0A374AF80
:101AB800F0900370E0FFC394089003775006740118
:101AC800F0EF80097402F0900370E024F8333333A8
:101AD80054F8900375F0E4900376F0900376E0FEF6
:101AE800C39402505AA3E090036F1225DF7F647EEF
:101AF80000122A09900377E0FF900375E02440FD67
:101B08001225E97F647E00122A09E4900374F0909C
:101B18000377E0FF9003711223E27F0A7E00122A06
:101B280009900372E475F00112094C900374E00403
:0F1B3800F0E0C3940840D8900376E004F0809C5E
:011B4700227B
:101EDF00900368EFF0A3EDF0A3EBF0A3EAF0A3E912
:011EEF00F002
:101EF000E4A3F0A3F090036AE0FBA3E0FAA3E0F907
:101F000012086B605E90036DE0C3940A5055122472
:101F10003490036EEFF0900369E0FF900368E0FDFA
:101F200090036AE0FBA3E0FAA3E0F9121AA0900381
:101F30006DE004F090036BE475F00112094C90031E
:101F40006EE0B4020A90036BE475F00112094C9044
:101F50000368E004F0E0D3940F409AE4F0A3E004B7
:031F6000F080927C
:011F6300225B
:051C9100900360EDF07E
:101C9600E4FBE014F00BA3EBF0A37402F0A3740FC3
:101CA600F0EFC3940490036750067401F0EF8006CA
:101CB6007402F0EF24FCC454F0900365F0E4900342
:101CC60066F0900366E0FEC39402505BA3E0FF90CB
:101CD60003601225E07F647E00122A09900367E004
:101CE600FF900365E02440FD1225E97F647E001223
:101CF6002A09E4900364F0900367E0FF9003611201
:101D060023E27F0A7E00122A09900362E475F0013D
:101D160012094C900364E004F0E0C3941040D8909C
:071D26000366E004F0809B5E
:011D2D002293
:0F2A23009000407401F0A37402F0A3744FF022EE
:0F2A32009000407401F0A37401F0A374CFF02260
:0F2A41009000407401F0A37402F0A3742FF022F0
:0F2A50009000407401F0A37401F0A374EFF02222
:0F2A5F009000407401F0A37400F0A37400F02203
:051BED0090035FEDF024
:101BF200E014F0900040E0F9A3E0FAA3E090036063
:101C0200C9F0A3EAF0A3E9F0EFC39404900366508D
:101C1200067401F0EF80067402F0EF24FCC454F065
:101C2200900364F0E4900365F0900365E0FEC394D2
:101C320002505BA3E0FF90035F1225E07F647E0009
:101C4200122A09900366E0FF900364E02440FD122B
:101C520025E97F647E00122A09E4900363F0900371
:101C620066E0FF9003601223E27F0A7E00122A09D7
:101C7200900361E475F00112094C900363E004F0F3
:0E1C8200E0C3941040D8900365E004F0809B0E
:011C90002231
:082AE700E49001ABF0A3F02222
:080FA00090035FEFF0A3EDF0F8
:100FA800E014F09001ABE0FF7007A3E070030210BB
:100FB8004B9003617401F0A37400F0A37400F0EF88
:100FC800C3940490036750097401F09001ABE0806A
:100FD800097402F09001ABE024FCC454F09003655E
:100FE800F0E4900366F0900366E0FEC39402505369
:100FF800A3E0FF9001AC1225E07F647E00122A096D
:10100800900367E0FF900365E02440FD1225E97F27
:10101800647E00122A09E4900364F01223DA7F0A3E
:101028007E00122A09900362E475F00112094C90BF
:101038000364E004F0E0C3941040E0900366E00429
:10104800F080A390035FE0FF9001ABF0900360E0B5
:101058009001ACF09003617401F0A37400F0A374E4
:1010680020F0EFC3940490036750097401F09003D3
:101078005FE080097402F090035FE024FCC454F040
:10108800900365F0E4900366F0900366E0FEC39475
:10109800025053A3E0FF9003601225E07F647E00B6
:1010A800122A09900367E0FF900365E02440FD12CF
:1010B80025E97F647E00122A09E4900364F0122374
:1010C800DA7F0A7E00122A09900362E475F00112A1
:1010D800094C900364E004F0E0C3941040E09003EE
:0610E80066E004F080A3A5
:0110EE0022DF
:082AEF00ED04FDD210020FA05E
:05000600E4FF0221D718
:10237E00D0D5C3FBA3BA00B2BFC3C5A3BA00B9A4DC
:10238E00D6D6A3BA00BCECB2E2D7B4CCAC00BFF345
:10239E00B5C6C8A1D7DF00BFF3B5C6B3E4B5E70035
:1023AE00BFF3B5C6B3E4C2FA00B7A2C9FAB9CAD52B
:1023BE00CF00C9E8D6C300BFAAC3C5002020003194
:0C23CE00003000000000000000000000D3
:100B1800490272FF237EFF2385FF238C5B02DE00E0
:100B280000000000000000000000000000000000BD
:100B3800000000000000000000004F02CDFF2393DA
:100B4800FF239CFF23A5FF23AEFF23B741029B0091
:100B5800410270004102990041029A004102F900E5
:100B6800410300004102840042027C000042030667
:100B780000004203080000C100C10AC104C101C14C
:100B880003C107C108C102420302000046027E00F9
:100B98000000000000C109C106C105410301004170
:100BA80002CC004202DC00004202FD00004202FBCF
:020BB80000003B
:04262F00AB05AA0746
:1026330090030BE0FF7E007C037DE81208F7AF05F3
:10264300EFF0E0FE75F06484243090035FF0EE75E4
:10265300F06484E5F075F00A842430A3F0EF75F09C
:102663000A84E5F02430A3F0E4A3F0AF02AE03AD97
:0A267300067B017A03795F021EDF87
:10206400E4900360F0A3F0A3F0A3F0200D6E12003F
:1020740006900310E0D39400404AE490035FF0908C
:10208400035FE0FD75F003A42472F582E43402F5E5
:1020940083E0FBA3E0FAA3E0F9E4FF121F649003DA
:1020A4005FE075F009A424DEF9740235F0FA7B01CF
:1020B400E0FD7F03121F6490035FE004F0E0C3942B
:1020C4000340BC227B017A0279DEE4FF12182A7BEA
:0C20D400017A0279E77D02E4FF121F642C
:0120E00022DD
:10290800200D219002FAE0B4010630100312206471
:10291800900310E0D394004004E4FD80027D027F20
:052928000D12262F2214
:1020E100E4FF300A77C20A90030004F0D20FE4FE45
:1020F100E4FDAC070F749C2CF582E43402F583E017
:10210100C454F0FCEE75F009A424DEF582E4340237
:10211100F583E5822DF582E43583F583ECF0AC0798
:102121000F749C2CF582E43402F583E0540FFCEE2D
:1021310075F009A424DEF582E43402F583E5822DED
:10214100F582E43583F583E02CF00DEDB408A30EA0
:0C215100EEB4039C121FE5D21012290806
:01215D00225F
:0F2A6E00D2A08F9BE59A30E1FB539AFDC2A022C4
:0300430002144A5A
:10144A00C0E0C083C082C0D075D008E59A20E0030E
:10145A0002153E539AFEE59B548060402480600347
:10146A00021551AF9BEF2480602924A06016242026
:10147A006003021551300D0302155190029974034D
:10148A00F0021551300D030215519002997405F0BE
:10149A000215519002997404F0021551900299E0D4
:1014AA0014606324FD603514601E24026003021573
:1014BA005190030BE0B59B0EB2C49002997401F0EF
:1014CA00A3E4F0021551803590030BE0B59B0BB2F3
:1014DA00C4D202900299E4F0806D802190030BE05F
:1014EA00B59B1AB2C49002997402F0C2C290029BD0
:1014FA00E04450FF122A6ED2C2D2C4804A900299A6
:10150A00E4F0D2C48041E59B54F0646070399002E3
:10151A009AE0FF04F0749C2FF582E43402F583E527
:10152A009BF090029AE06430701DD2C4900299F048
:10153A00D20A8013E59A30E10E539AFD900299E09F
:10154A00B40202E4F0C2A0D0D0D082D083D0E0327C
:04224A00AB07AA062E
:0F224E0020100C7F0590027E7420F0A3DFFC228D
:10225D007C007D3CAF03AE021208F7900360EDF0F9
:10226D00AE02AF037C007D3C1208F7A3EFF0E0FD5A
:10227D0075F00A84243090027EF0ED75F00A84E545
:10228D00F02430A3F0A3742DF0900360E0FD75F001
:10229D000A842430900281F0ED75F00A84E5F02473
:0322AD0030A3F06B
:0122B000220B
:10287B00E490035FF0200D2E90029BE0FF6402605A
:10288B0004EFB4030C900308E0FEA3E0FFD210802A
:10289B0005C210E4FFFE12224A7B017A02797E7D8B
:0628AB00037F0B121EDF8B
:0128B1002204
:0C2AC400E4900306F0A3F0A3F0A3F022BE
:10231800E4F5C975CA2075B11075B260F595759662
:1023280001C2A0538E7F5389F0438901758AD775FE
:102338008CFDC28DD2A9D28C759A50438E0475D764
:10234800E075D6FE438E1012248C759D18E4F5BDF9
:1023580075BC80F5B875B50175AF01D288D2A8D221
:10236800AF122A7D7F1490028574FFF0A3DFFCC2B0
:0623780000D2A7022B03B6
:10174000785F7C037D017BFF7A2379D17E007F0562
:1017500012084578647C037D017BFF7A2379D67E6D
:10176000007F04120845300D0302182930047BC2A3
:101770000490027CE0FAA3E0FB7C037DE8FFAE026C
:101780001208F7EF243090035FF07C037DE8AF038D
:10179000AE021208F77E007F64CFCDCFCECCCE1242
:1017A00008F7EF2430A3F090027CA3E07C007D6476
:1017B000FFAE021208F77E007F0ACFCDCFCECCCE8F
:1017C0001208F7EF2430900361F07C007D0AAF032C
:1017D000AE021208F7ED2430A3F0E4A3F07B017A07
:1017E00003795F7D027F0C121EDF30013CC2019045
:1017F0000270E0FD75F064842430900364F0ED75B0
:10180000F06484ADF0ED75F00A842430A3F0ED753A
:10181000F00A84E5F02430A3F0E4A3F07B017A031E
:0918200079647D017F0D121EDFC9
:01182900229C
:1024E200200D5290029BE0146012146014146016C6
:1024F20014601824047017122A5F8012122A418075
:102502000D122A328008122A238003122A507D04D7
:10251200E4FF121BED90029BE075F003A424CDF5BD
:1025220082E43402F583E0FBA3E0FAA3E0F97D0341
:062532007F01121F64226C
:101FE5007F007E021229E9900300E0B40106900209
:101FF500FA7401F09002FAE0FD7F047E021229884E
:10200500E490035FF0E4900360F0900360E0FDC3AB
:102015009408503E90035FE0FC75F008A42408FF87
:10202500E5F03402FEED7A002FFFEA3EFEEC75F096
:1020350009A424DEF582E43402F583E5822DF582D8
:10204500E43583F583E0FD122988900360E004F010
:0E20550080B890035FE004F0E0C3940340A75E
:01206300225A
:10215E007F047E021229BA9002FAEFF0D394014066
:10216E0002E4F0E490035FF0E4900360F09003600B
:10217E00E0FDC39408504590035FE075F008A42479
:10218E0008FFE5F03402FE7C00EF2DFFEC3EFE1260
:10219E0029BA900360E0FE90035FE075F009A42475
:1021AE00DEF582E43402F583E5822EF582E4358392
:1021BE00F583EFF0900360E004F080B190035FE0F0
:0821CE0004F0E0C3940340A0FB
:0121D60022E6
:062AF7001226C4021FE5D7
:062AFD0012258C02215E8F
:10284300C210EF4488F5BC201008E5BCA2E4921046
:1028530080F5EDAFBDB40A14EF75F004A4FFE5BE37
:1028630054037C002FFBEC35F0FA80047A00AB07AD
:0728730075BC00AF03AE02CB
:01287A00223B
:1022B1007D0A7F0312284390027CEEF0A3EFF09099
:1022C1000284E0FD04F0ED75F00A84E5F025E024D8
:1022D10085F582E43402F583EEF0A3EFF0D2047FBA
:1022E100647E001229D27D087F0412284390027077
:1022F100EFF0D20190030CE0FEEFC39E500AC2A79B
:10230100A2069209D2068008D2A7A2069209C206A5
:072311007F647E000229D267
:100C1400E490035FF0FFF9A3F0A3F0A3F0A3F0A323
:100C2400F0A3F0FEEE25E02485F582E43402F5839A
:100C3400E0FCA3E0FDBCFF07BDFF04E4020E09EDE8
:100C44004C700890035FE004F0805C90030EE0FDBC
:100C5400EE25E02485F582E43402F583E0FAA3E08E
:100C6400FBD39D7480F8EA6480984005900361800A
:100C74001290030DE0FDD3EB9D7480F86A98400850
:100C8400900360E004F08001090FEE25E02485F56F
:100C940082E43402F583E0FCA3E0FD900363E02DDD
:100CA400F0900362E03CF00EEE640A6003020C284C
:100CB400EF7004FEFF800FEFFD7C00900362E0FE06
:100CC400A3E0FF1208F7900364EEF0A3EFF09003A3
:100CD4005FE0D39407501290030DE0FF900365E0AA
:100CE4009F900364E0940050199002CCE0C394FAFE
:100CF4005003E004F0E49002DCF0A3F09002FDF075
:100D0400A3F0900360E0D39404501290030DE0FF2D
:100D1400900365E09F900364E09400403FE49002F8
:100D2400CCF0C39002DDE094FA9002DCE06480949D
:100D340080500CA3E004F070069002DCE004F0C3E1
:100D44009002FEE094FA9002FDE064809480500CDE
:100D5400A3E004F070069002FDE004F0900361E06B
:100D6400D39407501390030EE0FFC3900365E09FF4
:100D7400900364E094004028E49002CCF09002DCFC
:100D8400F0A3F0C39002FEE094FA9002FDE06480C8
:100D94009480500CA3E004F070069002FDE004F08F
:100DA4009002CCE0D39403401190029BE0900301A5
:100DB400F090029B7401F0022AC4D39002DDE09407
:100DC400149002DCE0648094804016E49002FDF00C
:100DD400A3F090029BE0900301F090029B7403F057
:100DE40022D39002FEE094039002FDE0648094809C
:100DF400400F90029BE0900301F090029B7402F07C
:090E040022900301E090029BF032
:010E0D0022C2
:1028E000300B1DC20B9003287401F0D20D120006AC
:1028F0007BFF7A2379C0E4FD7F03121F64122A8CC8
:08290000E4900304F0A3F022AF
:03000300022808C8
:10280800C0E0C0F0C083C082C0D075D000C000C096
:1028180001C002C003C004C005C006C00712267D5F
:10282800D007D006D005D004D003D002D001D00004
:0B283800D0D0D082D083D0F0D0E032AE
:03000B00021D2EA5
:101D2E00C0E0C0F0C083C082C0D075D008122A13A4
:101D3E009002FBE475F001120962FEC3E5F09453C4
:101D4E00EE940040649002FBE4F0A3F0900303E0F5
:101D5E0004F07006900302E004F090029BE0FF6432
:101D6E00026004EFB40342900307E004F0700690A3
:101D7E000306E004F0C3900307E094B0900306E07E
:101D8E0094044025E4F0A3F0900309E004F07006FB
:101D9E00900308E004F0C3900309E094A0900308B8
:101DAE00E094054004E4F0A3F0D0D0D082D083D0EC
:041DBE00F0D0E0324F
:10000E00900310E070167BFF3010067A2379C580BE
:10001E00047A2379CA7D027F04021F647BFF3010AD
:10002E00067A2379CD80047A2379CF7D017F0C1255
:03003E001EDF22A0
:10292D00300220C202D21012000ED2CD7F017E00E5
:10293D001229D2C2CD7FD07E071229D2D2CDC2109C
:04294D0012000E2244
:1029510020100FC3900303E094C8900302E0940099
:0D296100400A12274BE4900302F0A3F0227D
:1029A100300615A209300601B35006D2107F04800B
:0929B10004C2107F021229512218
:10278C00122AFD122318D21012290890027B740110
:10279C00F0900271F01222B11229A11220E19003E3
:1027AC0010E0D394004003121740120C141224E2D0
:0E27BC0012287B1228E0122AD012292D80CD7F
:0F2A7D00E5A254F34408F5A275CED075CDC02262
:0B2ADC008FCFE5CD30E7FB75CDC022A9
:0D2A9B00E4F5CFE5CD30E7FBAFCF75CDC042
:012AA800220B
:0B29FE007FF57E00122A097FF57E00A5
:0A2A0900EF1F70011E144E70F7223B
:1029D200AD07AC06ED1DAE0470011C4E6008122955
:0729E200FE1229FE80EE2227
:10270A00B5D8D6B7C9E8D6C300C1C1B6C8E3D0D6D2
:10271A00B500B3E4C2FACFC2CFDE00B3E4C2FAC94D
:10272A00CFCFDE00B4F2BFAAC9F9D2F400B5F7CA16
:10273A00D400C9E8D6C300C9E8D6C3CDEAB1CF21CF
:01274A00008E
:100BBA0043031D0000004403240000000041034CCD
:100BCA0000C10DC10EC10CC10B41034B00410328EA
:100BDA000046031700010203040546030B00000048
:100BEA0000000046031100961464010052034DFFF1
:100BFA00270AFF2713FF271CFF2725FF272EFF277A
:090C0A003741034A0041030A00CE
:0F2A8C00D207758AD7758CFDC28DD2A9D28C2244
:0E2AA90030070AC207758AD7758CFDD28C22C1
:1025380090035FEFF0120006900310E0600C7BFF41
:102548007A277937E4FDFF121F647BFF7A27793CED
:10255800E4FD7F03121F6490035FE075F003A42479
:102568004DF582E43403F583E0FBA3E0FAA3E0F938
:102578007D017F02121F643010097B1A7D027F01E2
:04258800121C91226E
:1028B20090031DE02430900324F090031EE02430A6
:1028C200900325F090031FE02430900326F0E4A348
:0E28D200F07B017A0379247D027F03021F64EC
:10004600900322E01209E602AF0703780800900940
:1000560003210C025A15030516033E1803941C01CE
:10006600CF4003C642021144015D4500844603F7B2
:100076004A03DF5203AD5A035B5E0000041190038E
:1000860028E06003020411D20B22900328E0B40199
:100096000E7402F0E490034AF0D210FF0202CD90F3
:1000A6000328E06402704E7403F0E490030AF090B3
:1000B600034AE0FFD21012253890034AE0FF240BD2
:1000C600F582E43403F583E0FE75F0648490031D45
:1000D600F0EE75F06484E5F075F00A84A3F0740B15
:1000E6002FF582E43403F583E075F00A8490031F4C
:1000F600E5F002040D900328E0640370030201AFEB
:10010600900328E06404600302041190034AE0FFB0
:10011600B40608E4900328F0C20D2290031EE07591
:10012600F00AA4FE90031DE075F064A42EFE900371
:100136001FE02EFE740B2FF582E43403F583EEF0F8
:100146001226C47BFF7A2779417D037F02121F6442
:100156009003287405F022900328E0FF64026004EF
:10016600EFB40112E4900328F0122AA9120006C285
:100176000DD210022908900328E0B4030D7402F092
:1001860090034AE0FFD2100202CD900328E0B404A7
:100196000D7402F090034AE0FFD2100202CD9003E4
:1001A60028E0640560030204117404F090034AE039
:1001B600FFC2101225387B1A7D037F02121C911292
:1001C60028B2E490030A020251900328E0B4021A0E
:1001D60090034AE02401FFE433FE7C007D0612080A
:1001E600F7AF05EFF0D2100202CD900328E06404C9
:1001F600600302041190030AE02401FFE433FE7C4D
:10020600007D031208F7AF05EF8040900328E0B4A5
:10021600021A90034AE02405FFE433FE7C007D06C3
:100226001208F7AF05EFF0D2100202CD900328E0D6
:100236006404600302041190030AE02402FFE4331D
:10024600FE7C007D031208F7AF05EFF02403FF7D67
:1002560003022AEF900328E0B4021990034AE0242F
:1002660001FFE433FE7C007D061208F7AF05EFF0D0
:10027600D2108053900328E06404600302041190B6
:10028600030AE0FB241DF582E43403F583E0240130
:10029600FFE433FE7C007D0A1208F7741D2BF582FD
:1002A600E43403F583ED02040D900328E0B4021A4A
:1002B60090034AE02405FFE433FE7C007D06120825
:1002C600F7AF05EFF0D210022538900328E064045A
:1002D600600302041190030AE0FB241DF582E43456
:1002E60003F583E02409FFE433FE7C007D0A12084F
:1002F600F7741D2BF582E43403F583ED02040D90AB
:100306000328E06404600302041190030AE0241D3C
:10031600F582E43403F583E402040D900328E064D7
:1003260004600302041190030AE0241DF582E434FC
:1003360003F583740102040D900328E0640460034E
:1003460002041190030AE0241DF582E43403F583C8
:10035600740202040D900328E06404600302041191
:1003660090030AE0241DF582E43403F58374030246
:10037600040D900328E06404600302041190030A4C
:10038600E0241DF582E43403F58374048079900338
:1003960028E06404707590030AE0241DF582E434B5
:1003A60003F58374058060900328E06404705C9014
:1003B600030AE0241DF582E43403F58374068047BE
:1003C600900328E06404704390030AE0241DF5823C
:1003D600E43403F5837407802E900328E0B4042BDD
:1003E60090030AE0241DF582E43403F58374088043
:1003F60016900328E0B4041390030AE0241DF58246
:0C040600E43403F5837409F01228B222DC
:1027CA007E01E4FD7C0174292EF582E43403F5834D
:1027DA00E0D394024004EF4480FFECC39408500411
:1027EA00EFC313FF0E0CECB409DC74202DF582E460
:0D27FA003403F583EFF0E4FF0DEDB404C7E8
:0128070022AE
:1026C400E4FFFE1229E9E490035FF090035FE0FF6A
:1026D4007E00240BF582E43403F583E0FD1229889F
:1026E40090035FE0FF7E001229BA90035FE0240BA1
:1026F400F582E43403F583EFF090035FE004F0E047
:05270400C3940640C66D
:0127090022AD
:10258C00E490035FF090035FE0FFC3940650437E3A
:10259C00001229BA90035FE0FE240BF582E43403A9
:1025AC00F583EFF0740B2EF582E43403F583E0B47D
:1025BC00FF1874112EF582E43403F583E0FF740BDD
:1025CC002EF582E43403F583EFF090035FE004F022
:0225DC0080B3CA
:0125DE0022DA
:0C2AD000300E081227CA120046C20E2267
:102A1300758AD7758CFD300C0690034CE004F022C8
:10267D00200E43300C3990034CE0FFC3940F400AF9
:10268D00EF941C5005E490034BF090034BE024298C
:10269D00F582E43403F583EFF0E490034CF09003FE
:1026AD004BE004F0E0B4210EC20CD20EE4F022D2C5
:0726BD000CE490034CF02235
:10296E00538E7F5389F0438901758AD7758CFDC2CA
:0A297E008DD2A9D28CD288D2A822F3
:052B0300C2B6C2B522BC
:10274B0090035FEFF090030FE06035D2B67FE87E29
:10275B0003122A09C2B67FE87E03122A0990035F8F
:10276B00E0D39400401AD2B57FF47E01122A09C23D
:10277B00B57FF47E01122A0990035FE014F080DD2F
:01278B00222B
:03000000021E538A
:0C1E5300787FE4F6D8FD758122021E9A0B
:10077500E709F608DFFA8046E709F208DFFA803E66
:1007850088828C83E709F0A3DFFA8032E309F60853
:10079500DFFA8078E309F208DFFA807088828C83BB
:1007A500E309F0A3DFFA806489828A83E0A3F6086F
:1007B500DFFA805889828A83E0A3F208DFFA804C49
:1007C50080D280FA80C680D4806980F28033801020
:1007D50080A680EA809A80A880DA80E280CA803389
:1007E50089828A83ECFAE493A3C8C582C8CCC58301
:1007F500CCF0A3C8C582C8CCC583CCDFE9DEE780D1
:100805000D89828A83E493A3F608DFF9ECFAA9F04F
:10081500EDFB2289828A83ECFAE0A3C8C582C8CCA5
:10082500C583CCF0A3C8C582C8CCC583CCDFEADEBE
:10083500E880DB89828A83E493A3F208DFF980CC20
:1008450088F0EF60010E4E60C388F0ED2402B40419
:100855000050B9F582EB2402B4040050AF232345C0
:0608650082239007C57319
:10086B00BB010689828A83E0225002E722BBFE028B
:09087B00E32289828A83E49322BE
:10088400BB010CE58229F582E5833AF583E0225029
:1008940006E92582F8E622BBFE06E92582F8E22273
:0D08A400E58229F582E5833AF583E493228D
:1008B100BB010689828A83F0225002F722BBFE0126
:0208C100F32220
:1008C300F8BB010DE58229F582E5833AF583E8F06B
:1008D300225006E92582C8F622BBFE05E92582C817
:0208E300F222FF
:1008E500EF8DF0A4A8F0CF8CF0A428CE8DF0A42E27
:0208F500FE22E1
:1008F700BC000BBE0029EF8DF084FFADF022E4CCE5
:10090700F875F008EF2FFFEE33FEEC33FCEE9DECAD
:10091700984005FCEE9DFE0FD5F0E9E4CEFD22EDF3
:10092700F8F5F0EE8420D21CFEADF075F008EF2F3D
:10093700FFED33FD4007985006D5F0F222C398FD2E
:050947000FD5F0EA22CB
:10094C00C5F0F8A3E028F0C5F0F8E5821582700236
:06095C001583E038F022D3
:10096200A3F8E0C5F025F0F0E58215827002158348
:06097200E0C838F0E822A5
:10097800E88FF0A4CC8BF0A42CFCE98EF0A42CFC1E
:100988008AF0EDA42CFCEA8EF0A4CDA8F08BF0A49C
:100998002DCC3825F0FDE98FF0A42CCD35F0FCEBFB
:1009A8008EF0A4FEA9F0EB8FF0A4CFC5F02ECD39C0
:0F09B800FEE43CFCEAA42DCE35F0FDE43CFC222D
:1009C700E8600FECC313FCED13FDEE13FEEF13FF0E
:0309D700D8F12232
:0C09DA00ECF0A3EDF0A3EEF0A3EFF02290
:1009E600D083D082F8E4937012740193700DA3A3A0
:1009F60093F8740193F5828883E4737402936860B4
:060A0600EFA3A3A380DFB3
:101E5F0002278CE493A3F8E493A34003F68001F2E6
:101E6F0008DFF48029E493A3F85407240CC8C33384
:101E7F00C4540F4420C8834004F456800146F6DF53
:101E8F00E4800B0102040810204080900A0CE47ECD
:101E9F00019360BCA3FF543F30E509541FFEE49348
:101EAF00A360010ECF54C025E060A840B8E493A30F
:101EBF00FAE493A3F8E493A3C8C582C8CAC583CA3A
:101ECF00F0A3C8C582C8CAC583CADFE9DEE780BEF2
:010C130000E0
:00000001FF
